{
  "data": {
    "bytecode": {
      "linkReferences": {},
      "object": "60806040525f8055348015610012575f80fd5b503360015f6101000a81548173ffffffffffffffffffffffffffffffffffffffff021916908373ffffffffffffffffffffffffffffffffffffffff160217905550612e4f806100605f395ff3fe6080604052600436106100a6575f3560e01c806379ee7bb21161006357806379ee7bb2146101b65780638bf20649146101de578063b6db75a0146101fa578063d819c63514610224578063e26034cd1461024e578063e67549381461028a576100a6565b8063046e5a67146100aa578063057902be146100d25780632e1a7d4d146101145780634ca079f21461013c5780635e5503aa14610166578063658918e01461018e575b5f80fd5b3480156100b5575f80fd5b506100d060048036038101906100cb9190611761565b6102b2565b005b3480156100dd575f80fd5b506100f860048036038101906100f391906117bf565b610384565b60405161010b9796959493929190611883565b60405180910390f35b34801561011f575f80fd5b5061013a600480360381019061013591906117bf565b6105e9565b005b348015610147575f80fd5b506101506107b1565b60405161015d9190611acc565b60405180910390f35b348015610171575f80fd5b5061018c60048036038101906101879190611c18565b610a6a565b005b348015610199575f80fd5b506101b460048036038101906101af9190611761565b610ba2565b005b3480156101c1575f80fd5b506101dc60048036038101906101d79190611d11565b610c74565b005b6101f860048036038101906101f39190611d58565b610f63565b005b348015610205575f80fd5b5061020e6111aa565b60405161021b9190611e16565b60405180910390f35b34801561022f575f80fd5b50610238611249565b6040516102459190611e2f565b60405180910390f35b348015610259575f80fd5b50610274600480360381019061026f9190611d11565b611281565b6040516102819190611ef6565b60405180910390f35b348015610295575f80fd5b506102b060048036038101906102ab9190611761565b6115ea565b005b60015f9054906101000a900473ffffffffffffffffffffffffffffffffffffffff1673ffffffffffffffffffffffffffffffffffffffff163373ffffffffffffffffffffffffffffffffffffffff1614610341576040517f08c379a000000000000000000000000000000000000000000000000000000000815260040161033890611f86565b60405180910390fd5b8060025f6101000a81548173ffffffffffffffffffffffffffffffffffffffff021916908373ffffffffffffffffffffffffffffffffffffffff16021790555050565b60058181548110610393575f80fd5b905f5260205f2090600702015f91509050805f0180546103b290611fd1565b80601f01602080910402602001604051908101604052809291908181526020018280546103de90611fd1565b80156104295780601f1061040057610100808354040283529160200191610429565b820191905f5260205f20905b81548152906001019060200180831161040c57829003601f168201915b50505050509080600101805461043e90611fd1565b80601f016020809104026020016040519081016040528092919081815260200182805461046a90611fd1565b80156104b55780601f1061048c576101008083540402835291602001916104b5565b820191905f5260205f20905b81548152906001019060200180831161049857829003601f168201915b5050505050908060020180546104ca90611fd1565b80601f01602080910402602001604051908101604052809291908181526020018280546104f690611fd1565b80156105415780601f1061051857610100808354040283529160200191610541565b820191905f5260205f20905b81548152906001019060200180831161052457829003601f168201915b50505050509080600301549080600401549080600501805461056290611fd1565b80601f016020809104026020016040519081016040528092919081815260200182805461058e90611fd1565b80156105d95780601f106105b0576101008083540402835291602001916105d9565b820191905f5260205f20905b8154815290600101906020018083116105bc57829003601f168201915b5050505050908060060154905087565b6105f16111aa565b610630576040517f08c379a000000000000000000000000000000000000000000000000000000000815260040161062790612071565b60405180910390fd5b5f60035f9054906101000a900473ffffffffffffffffffffffffffffffffffffffff1673ffffffffffffffffffffffffffffffffffffffff1663d93cb236836040518263ffffffff1660e01b815260040161068b9190611e2f565b5f60405180830381865afa1580156106a5573d5f803e3d5ffd5b505050506040513d5f823e3d601f19601f820116820180604052508101906106cd91906122e7565b905060011515816060015115151461071a576040517f08c379a000000000000000000000000000000000000000000000000000000000815260040161071190612378565b60405180910390fd5b8060800151471015610761576040517f08c379a000000000000000000000000000000000000000000000000000000000815260040161075890612406565b60405180910390fd5b8060c0015173ffffffffffffffffffffffffffffffffffffffff166108fc826080015190811502906040515f60405180830381858888f193505050501580156107ac573d5f803e3d5ffd5b505050565b60606005805480602002602001604051908101604052809291908181526020015f905b82821015610a61578382905f5260205f2090600702016040518060e00160405290815f8201805461080490611fd1565b80601f016020809104026020016040519081016040528092919081815260200182805461083090611fd1565b801561087b5780601f106108525761010080835404028352916020019161087b565b820191905f5260205f20905b81548152906001019060200180831161085e57829003601f168201915b5050505050815260200160018201805461089490611fd1565b80601f01602080910402602001604051908101604052809291908181526020018280546108c090611fd1565b801561090b5780601f106108e25761010080835404028352916020019161090b565b820191905f5260205f20905b8154815290600101906020018083116108ee57829003601f168201915b5050505050815260200160028201805461092490611fd1565b80601f016020809104026020016040519081016040528092919081815260200182805461095090611fd1565b801561099b5780601f106109725761010080835404028352916020019161099b565b820191905f5260205f20905b81548152906001019060200180831161097e57829003601f168201915b5050505050815260200160038201548152602001600482015481526020016005820180546109c890611fd1565b80601f01602080910402602001604051908101604052809291908181526020018280546109f490611fd1565b8015610a3f5780601f10610a1657610100808354040283529160200191610a3f565b820191905f5260205f20905b815481529060010190602001808311610a2257829003601f168201915b50505050508152602001600682015481525050815260200190600101906107d4565b50505050905090565b610a726111aa565b610ab1576040517f08c379a0000000000000000000000000000000000000000000000000000000008152600401610aa890612071565b60405180910390fd5b610ab96116bc565b86815f01819052508581602001819052508481604001819052508281608001818152505083816060018181525050818160a001819052505f8160c0018181525050600581908060018154018082558091505060019003905f5260205f2090600702015f909190919091505f820151815f019081610b3691906125c1565b506020820151816001019081610b4c91906125c1565b506040820151816002019081610b6291906125c1565b50606082015181600301556080820151816004015560a0820151816005019081610b8c91906125c1565b5060c08201518160060155505050505050505050565b60015f9054906101000a900473ffffffffffffffffffffffffffffffffffffffff1673ffffffffffffffffffffffffffffffffffffffff163373ffffffffffffffffffffffffffffffffffffffff1614610c31576040517f08c379a0000000000000000000000000000000000000000000000000000000008152600401610c2890611f86565b60405180910390fd5b8060045f6101000a81548173ffffffffffffffffffffffffffffffffffffffff021916908373ffffffffffffffffffffffffffffffffffffffff16021790555050565b610c7c6111aa565b610cbb576040517f08c379a0000000000000000000000000000000000000000000000000000000008152600401610cb290612071565b60405180910390fd5b5f60025f9054906101000a900473ffffffffffffffffffffffffffffffffffffffff1673ffffffffffffffffffffffffffffffffffffffff1663d740bb6c836040518263ffffffff1660e01b8152600401610d169190612690565b5f60405180830381865afa158015610d30573d5f803e3d5ffd5b505050506040513d5f823e3d601f19601f82011682018060405250810190610d5891906128dd565b90505f4711610d9c576040517f08c379a0000000000000000000000000000000000000000000000000000000008152600401610d9390612406565b60405180910390fd5b600181511015610de1576040517f08c379a0000000000000000000000000000000000000000000000000000000008152600401610dd890612994565b60405180910390fd5b5f5b8151811015610ea457818181518110610dff57610dfe6129b2565b5b60200260200101516080015173ffffffffffffffffffffffffffffffffffffffff166108fc838381518110610e3757610e366129b2565b5b602002602001015160a0015190811502906040515f60405180830381858888f19350505050158015610e6b573d5f803e3d5ffd5b506001828281518110610e8157610e806129b2565b5b602002602001015160c00190151590811515815250508080600101915050610de3565b505f5b600580549050811015610f5e5782604051602001610ec59190612a19565b6040516020818303038152906040528051906020012060058281548110610eef57610eee6129b2565b5b905f5260205f2090600702015f01604051602001610f0d9190612aaf565b6040516020818303038152906040528051906020012003610f51575f60058281548110610f3d57610f3c6129b2565b5b905f5260205f209060070201600301819055505b8080600101915050610ea7565b505050565b65b5e620f48000341015610fac576040517f08c379a0000000000000000000000000000000000000000000000000000000008152600401610fa390612b35565b60405180910390fd5b5f5b6005805490508110156111695783604051602001610fcc9190612a19565b6040516020818303038152906040528051906020012060058281548110610ff657610ff56129b2565b5b905f5260205f2090600702015f016040516020016110149190612aaf565b604051602081830303815290604052805190602001200361115c573460058281548110611044576110436129b2565b5b905f5260205f2090600702016003015f8282546110619190612b80565b925050819055505f611071611249565b905060025f9054906101000a900473ffffffffffffffffffffffffffffffffffffffff1673ffffffffffffffffffffffffffffffffffffffff166331d7adf78287600586815481106110c6576110c56129b2565b5b905f5260205f2090600702016001018833348a6040518863ffffffff1660e01b81526004016110fb9796959493929190612c43565b5f604051808303815f87803b158015611112575f80fd5b505af1158015611124573d5f803e3d5ffd5b50505050807f10e28c4148ed071d575b5f87a5bcbf953897e4e56f6b71d447efac1398db5e2d60405160405180910390a250506111a5565b8080600101915050610fae565b506040517f08c379a000000000000000000000000000000000000000000000000000000000815260040161119c90612d16565b60405180910390fd5b505050565b5f60045f9054906101000a900473ffffffffffffffffffffffffffffffffffffffff1673ffffffffffffffffffffffffffffffffffffffff16639026dee8336040518263ffffffff1660e01b81526004016112059190612d34565b602060405180830381865afa158015611220573d5f803e3d5ffd5b505050506040513d601f19601f820116820180604052508101906112449190612d4d565b905090565b5f8042334460405160200161126093929190612ddd565b604051602081830303815290604052805190602001205f1c90508091505090565b6112896116bc565b5f5b6005805490508110156115a957826040516020016112a99190612a19565b60405160208183030381529060405280519060200120600582815481106112d3576112d26129b2565b5b905f5260205f2090600702015f016040516020016112f19190612aaf565b604051602081830303815290604052805190602001200361159c57600581815481106113205761131f6129b2565b5b905f5260205f2090600702016040518060e00160405290815f8201805461134690611fd1565b80601f016020809104026020016040519081016040528092919081815260200182805461137290611fd1565b80156113bd5780601f10611394576101008083540402835291602001916113bd565b820191905f5260205f20905b8154815290600101906020018083116113a057829003601f168201915b505050505081526020016001820180546113d690611fd1565b80601f016020809104026020016040519081016040528092919081815260200182805461140290611fd1565b801561144d5780601f106114245761010080835404028352916020019161144d565b820191905f5260205f20905b81548152906001019060200180831161143057829003601f168201915b5050505050815260200160028201805461146690611fd1565b80601f016020809104026020016040519081016040528092919081815260200182805461149290611fd1565b80156114dd5780601f106114b4576101008083540402835291602001916114dd565b820191905f5260205f20905b8154815290600101906020018083116114c057829003601f168201915b50505050508152602001600382015481526020016004820154815260200160058201805461150a90611fd1565b80601f016020809104026020016040519081016040528092919081815260200182805461153690611fd1565b80156115815780601f1061155857610100808354040283529160200191611581565b820191905f5260205f20905b81548152906001019060200180831161156457829003601f168201915b505050505081526020016006820154815250509150506115e5565b808060010191505061128b565b506040517f08c379a00000000000000000000000000000000000000000000000000000000081526004016115dc90612d16565b60405180910390fd5b919050565b60015f9054906101000a900473ffffffffffffffffffffffffffffffffffffffff1673ffffffffffffffffffffffffffffffffffffffff163373ffffffffffffffffffffffffffffffffffffffff1614611679576040517f08c379a000000000000000000000000000000000000000000000000000000000815260040161167090611f86565b60405180910390fd5b8060035f6101000a81548173ffffffffffffffffffffffffffffffffffffffff021916908373ffffffffffffffffffffffffffffffffffffffff16021790555050565b6040518060e001604052806060815260200160608152602001606081526020015f81526020015f8152602001606081526020015f81525090565b5f604051905090565b5f80fd5b5f80fd5b5f73ffffffffffffffffffffffffffffffffffffffff82169050919050565b5f61173082611707565b9050919050565b61174081611726565b811461174a575f80fd5b50565b5f8135905061175b81611737565b92915050565b5f60208284031215611776576117756116ff565b5b5f6117838482850161174d565b91505092915050565b5f819050919050565b61179e8161178c565b81146117a8575f80fd5b50565b5f813590506117b981611795565b92915050565b5f602082840312156117d4576117d36116ff565b5b5f6117e1848285016117ab565b91505092915050565b5f81519050919050565b5f82825260208201905092915050565b5f5b83811015611821578082015181840152602081019050611806565b5f8484015250505050565b5f601f19601f8301169050919050565b5f611846826117ea565b61185081856117f4565b9350611860818560208601611804565b6118698161182c565b840191505092915050565b61187d8161178c565b82525050565b5f60e0820190508181035f83015261189b818a61183c565b905081810360208301526118af818961183c565b905081810360408301526118c3818861183c565b90506118d26060830187611874565b6118df6080830186611874565b81810360a08301526118f1818561183c565b905061190060c0830184611874565b98975050505050505050565b5f81519050919050565b5f82825260208201905092915050565b5f819050602082019050919050565b5f82825260208201905092915050565b5f61194f826117ea565b6119598185611935565b9350611969818560208601611804565b6119728161182c565b840191505092915050565b6119868161178c565b82525050565b5f60e083015f8301518482035f8601526119a68282611945565b915050602083015184820360208601526119c08282611945565b915050604083015184820360408601526119da8282611945565b91505060608301516119ef606086018261197d565b506080830151611a02608086018261197d565b5060a083015184820360a0860152611a1a8282611945565b91505060c0830151611a2f60c086018261197d565b508091505092915050565b5f611a45838361198c565b905092915050565b5f602082019050919050565b5f611a638261190c565b611a6d8185611916565b935083602082028501611a7f85611926565b805f5b85811015611aba5784840389528151611a9b8582611a3a565b9450611aa683611a4d565b925060208a01995050600181019050611a82565b50829750879550505050505092915050565b5f6020820190508181035f830152611ae48184611a59565b905092915050565b5f80fd5b5f80fd5b7f4e487b71000000000000000000000000000000000000000000000000000000005f52604160045260245ffd5b611b2a8261182c565b810181811067ffffffffffffffff82111715611b4957611b48611af4565b5b80604052505050565b5f611b5b6116f6565b9050611b678282611b21565b919050565b5f67ffffffffffffffff821115611b8657611b85611af4565b5b611b8f8261182c565b9050602081019050919050565b828183375f83830152505050565b5f611bbc611bb784611b6c565b611b52565b905082815260208101848484011115611bd857611bd7611af0565b5b611be3848285611b9c565b509392505050565b5f82601f830112611bff57611bfe611aec565b5b8135611c0f848260208601611baa565b91505092915050565b5f805f805f8060c08789031215611c3257611c316116ff565b5b5f87013567ffffffffffffffff811115611c4f57611c4e611703565b5b611c5b89828a01611beb565b965050602087013567ffffffffffffffff811115611c7c57611c7b611703565b5b611c8889828a01611beb565b955050604087013567ffffffffffffffff811115611ca957611ca8611703565b5b611cb589828a01611beb565b9450506060611cc689828a016117ab565b9350506080611cd789828a016117ab565b92505060a087013567ffffffffffffffff811115611cf857611cf7611703565b5b611d0489828a01611beb565b9150509295509295509295565b5f60208284031215611d2657611d256116ff565b5b5f82013567ffffffffffffffff811115611d4357611d42611703565b5b611d4f84828501611beb565b91505092915050565b5f805f60608486031215611d6f57611d6e6116ff565b5b5f84013567ffffffffffffffff811115611d8c57611d8b611703565b5b611d9886828701611beb565b935050602084013567ffffffffffffffff811115611db957611db8611703565b5b611dc586828701611beb565b925050604084013567ffffffffffffffff811115611de657611de5611703565b5b611df286828701611beb565b9150509250925092565b5f8115159050919050565b611e1081611dfc565b82525050565b5f602082019050611e295f830184611e07565b92915050565b5f602082019050611e425f830184611874565b92915050565b5f60e083015f8301518482035f860152611e628282611945565b91505060208301518482036020860152611e7c8282611945565b91505060408301518482036040860152611e968282611945565b9150506060830151611eab606086018261197d565b506080830151611ebe608086018261197d565b5060a083015184820360a0860152611ed68282611945565b91505060c0830151611eeb60c086018261197d565b508091505092915050565b5f6020820190508181035f830152611f0e8184611e48565b905092915050565b7f4f6e6c79206465706c6f7965722063616e2063616c6c20746869732066756e635f8201527f74696f6e00000000000000000000000000000000000000000000000000000000602082015250565b5f611f706024836117f4565b9150611f7b82611f16565b604082019050919050565b5f6020820190508181035f830152611f9d81611f64565b9050919050565b7f4e487b71000000000000000000000000000000000000000000000000000000005f52602260045260245ffd5b5f6002820490506001821680611fe857607f821691505b602082108103611ffb57611ffa611fa4565b5b50919050565b7f4f6e6c792061646d696e2063616e2063616c6c20746869732066756e6374696f5f8201527f6e00000000000000000000000000000000000000000000000000000000000000602082015250565b5f61205b6021836117f4565b915061206682612001565b604082019050919050565b5f6020820190508181035f8301526120888161204f565b9050919050565b5f80fd5b5f80fd5b5f815190506120a581611795565b92915050565b5f6120bd6120b884611b6c565b611b52565b9050828152602081018484840111156120d9576120d8611af0565b5b6120e4848285611804565b509392505050565b5f82601f830112612100576120ff611aec565b5b81516121108482602086016120ab565b91505092915050565b61212281611dfc565b811461212c575f80fd5b50565b5f8151905061213d81612119565b92915050565b5f61214d82611707565b9050919050565b61215d81612143565b8114612167575f80fd5b50565b5f8151905061217881612154565b92915050565b5f61012082840312156121945761219361208f565b5b61219f610120611b52565b90505f6121ae84828501612097565b5f83015250602082015167ffffffffffffffff8111156121d1576121d0612093565b5b6121dd848285016120ec565b602083015250604082015167ffffffffffffffff81111561220157612200612093565b5b61220d848285016120ec565b60408301525060606122218482850161212f565b606083015250608061223584828501612097565b60808301525060a082015167ffffffffffffffff81111561225957612258612093565b5b612265848285016120ec565b60a08301525060c06122798482850161216a565b60c08301525060e082015167ffffffffffffffff81111561229d5761229c612093565b5b6122a9848285016120ec565b60e08301525061010082015167ffffffffffffffff8111156122ce576122cd612093565b5b6122da848285016120ec565b6101008301525092915050565b5f602082840312156122fc576122fb6116ff565b5b5f82015167ffffffffffffffff81111561231957612318611703565b5b6123258482850161217e565b91505092915050565b7f5265717565737420686173206265656e206e6f7420617070726f7665640000005f82015250565b5f612362601d836117f4565b915061236d8261232e565b602082019050919050565b5f6020820190508181035f83015261238f81612356565b9050919050565b7f496e73756666696369656e742062616c616e636520696e2074686520636f6e745f8201527f7261637400000000000000000000000000000000000000000000000000000000602082015250565b5f6123f06024836117f4565b91506123fb82612396565b604082019050919050565b5f6020820190508181035f83015261241d816123e4565b9050919050565b5f819050815f5260205f209050919050565b5f6020601f8301049050919050565b5f82821b905092915050565b5f600883026124807fffffffffffffffffffffffffffffffffffffffffffffffffffffffffffffffff82612445565b61248a8683612445565b95508019841693508086168417925050509392505050565b5f819050919050565b5f6124c56124c06124bb8461178c565b6124a2565b61178c565b9050919050565b5f819050919050565b6124de836124ab565b6124f26124ea826124cc565b848454612451565b825550505050565b5f90565b6125066124fa565b6125118184846124d5565b505050565b5b81811015612534576125295f826124fe565b600181019050612517565b5050565b601f8211156125795761254a81612424565b61255384612436565b81016020851015612562578190505b61257661256e85612436565b830182612516565b50505b505050565b5f82821c905092915050565b5f6125995f198460080261257e565b1980831691505092915050565b5f6125b1838361258a565b9150826002028217905092915050565b6125ca826117ea565b67ffffffffffffffff8111156125e3576125e2611af4565b5b6125ed8254611fd1565b6125f8828285612538565b5f60209050601f831160018114612629575f8415612617578287015190505b61262185826125a6565b865550612688565b601f19841661263786612424565b5f5b8281101561265e57848901518255600182019150602085019450602081019050612639565b8683101561267b5784890151612677601f89168261258a565b8355505b6001600288020188555050505b505050505050565b5f6020820190508181035f8301526126a8818461183c565b905092915050565b5f67ffffffffffffffff8211156126ca576126c9611af4565b5b602082029050602081019050919050565b5f80fd5b5f815190506126ed81611737565b92915050565b5f61010082840312156127095761270861208f565b5b612714610100611b52565b90505f61272384828501612097565b5f83015250602082015167ffffffffffffffff81111561274657612745612093565b5b612752848285016120ec565b602083015250604082015167ffffffffffffffff81111561277657612775612093565b5b612782848285016120ec565b604083015250606082015167ffffffffffffffff8111156127a6576127a5612093565b5b6127b2848285016120ec565b60608301525060806127c6848285016126df565b60808301525060a06127da84828501612097565b60a08301525060c06127ee8482850161212f565b60c08301525060e082015167ffffffffffffffff81111561281257612811612093565b5b61281e848285016120ec565b60e08301525092915050565b5f61283c612837846126b0565b611b52565b9050808382526020820190506020840283018581111561285f5761285e6126db565b5b835b818110156128a657805167ffffffffffffffff81111561288457612883611aec565b5b80860161289189826126f3565b85526020850194505050602081019050612861565b5050509392505050565b5f82601f8301126128c4576128c3611aec565b5b81516128d484826020860161282a565b91505092915050565b5f602082840312156128f2576128f16116ff565b5b5f82015167ffffffffffffffff81111561290f5761290e611703565b5b61291b848285016128b0565b91505092915050565b7f4e6f206861766520616e79207472616e73616374696f6e2077686963682063615f8201527f6e20726566756e64000000000000000000000000000000000000000000000000602082015250565b5f61297e6028836117f4565b915061298982612924565b604082019050919050565b5f6020820190508181035f8301526129ab81612972565b9050919050565b7f4e487b71000000000000000000000000000000000000000000000000000000005f52603260045260245ffd5b5f81905092915050565b5f6129f3826117ea565b6129fd81856129df565b9350612a0d818560208601611804565b80840191505092915050565b5f612a2482846129e9565b915081905092915050565b5f8154612a3b81611fd1565b612a4581866129df565b9450600182165f8114612a5f5760018114612a7457612aa6565b60ff1983168652811515820286019350612aa6565b612a7d85612424565b5f5b83811015612a9e57815481890152600182019150602081019050612a7f565b838801955050505b50505092915050565b5f612aba8284612a2f565b915081905092915050565b7f56616c7565206d75737420626520302e3030303220455448206f722061626f765f8201527f6500000000000000000000000000000000000000000000000000000000000000602082015250565b5f612b1f6021836117f4565b9150612b2a82612ac5565b604082019050919050565b5f6020820190508181035f830152612b4c81612b13565b9050919050565b7f4e487b71000000000000000000000000000000000000000000000000000000005f52601160045260245ffd5b5f612b8a8261178c565b9150612b958361178c565b9250828201905080821115612bad57612bac612b53565b5b92915050565b5f8154612bbf81611fd1565b612bc981866117f4565b9450600182165f8114612be35760018114612bf957612c2b565b60ff198316865281151560200286019350612c2b565b612c0285612424565b5f5b83811015612c2357815481890152600182019150602081019050612c04565b808801955050505b50505092915050565b612c3d81611726565b82525050565b5f60e082019050612c565f83018a611874565b8181036020830152612c68818961183c565b90508181036040830152612c7c8188612bb3565b90508181036060830152612c90818761183c565b9050612c9f6080830186612c34565b612cac60a0830185611874565b81810360c0830152612cbe818461183c565b905098975050505050505050565b7f4e6f7420666f756e6400000000000000000000000000000000000000000000005f82015250565b5f612d006009836117f4565b9150612d0b82612ccc565b602082019050919050565b5f6020820190508181035f830152612d2d81612cf4565b9050919050565b5f602082019050612d475f830184612c34565b92915050565b5f60208284031215612d6257612d616116ff565b5b5f612d6f8482850161212f565b91505092915050565b5f819050919050565b612d92612d8d8261178c565b612d78565b82525050565b5f8160601b9050919050565b5f612dae82612d98565b9050919050565b5f612dbf82612da4565b9050919050565b612dd7612dd282611726565b612db5565b82525050565b5f612de88286612d81565b602082019150612df88285612dc6565b601482019150612e088284612d81565b60208201915081905094935050505056fea26469706673582212203dc677194ac7b721bc6dbf153f7665cdcfc29387e47fcf0000b2c767bd15f99964736f6c63430008160033",
      "opcodes": "PUSH1 0x80 PUSH1 0x40 MSTORE PUSH0 DUP1 SSTORE CALLVALUE DUP1 ISZERO PUSH2 0x12 JUMPI PUSH0 DUP1 REVERT JUMPDEST POP CALLER PUSH1 0x1 PUSH0 PUSH2 0x100 EXP DUP2 SLOAD DUP2 PUSH20 0xFFFFFFFFFFFFFFFFFFFFFFFFFFFFFFFFFFFFFFFF MUL NOT AND SWAP1 DUP4 PUSH20 0xFFFFFFFFFFFFFFFFFFFFFFFFFFFFFFFFFFFFFFFF AND MUL OR SWAP1 SSTORE POP PUSH2 0x2E4F DUP1 PUSH2 0x60 PUSH0 CODECOPY PUSH0 RETURN INVALID PUSH1 0x80 PUSH1 0x40 MSTORE PUSH1 0x4 CALLDATASIZE LT PUSH2 0xA6 JUMPI PUSH0 CALLDATALOAD PUSH1 0xE0 SHR DUP1 PUSH4 0x79EE7BB2 GT PUSH2 0x63 JUMPI DUP1 PUSH4 0x79EE7BB2 EQ PUSH2 0x1B6 JUMPI DUP1 PUSH4 0x8BF20649 EQ PUSH2 0x1DE JUMPI DUP1 PUSH4 0xB6DB75A0 EQ PUSH2 0x1FA JUMPI DUP1 PUSH4 0xD819C635 EQ PUSH2 0x224 JUMPI DUP1 PUSH4 0xE26034CD EQ PUSH2 0x24E JUMPI DUP1 PUSH4 0xE6754938 EQ PUSH2 0x28A JUMPI PUSH2 0xA6 JUMP JUMPDEST DUP1 PUSH4 0x46E5A67 EQ PUSH2 0xAA JUMPI DUP1 PUSH4 0x57902BE EQ PUSH2 0xD2 JUMPI DUP1 PUSH4 0x2E1A7D4D EQ PUSH2 0x114 JUMPI DUP1 PUSH4 0x4CA079F2 EQ PUSH2 0x13C JUMPI DUP1 PUSH4 0x5E5503AA EQ PUSH2 0x166 JUMPI DUP1 PUSH4 0x658918E0 EQ PUSH2 0x18E JUMPI JUMPDEST PUSH0 DUP1 REVERT JUMPDEST CALLVALUE DUP1 ISZERO PUSH2 0xB5 JUMPI PUSH0 DUP1 REVERT JUMPDEST POP PUSH2 0xD0 PUSH1 0x4 DUP1 CALLDATASIZE SUB DUP2 ADD SWAP1 PUSH2 0xCB SWAP2 SWAP1 PUSH2 0x1761 JUMP JUMPDEST PUSH2 0x2B2 JUMP JUMPDEST STOP JUMPDEST CALLVALUE DUP1 ISZERO PUSH2 0xDD JUMPI PUSH0 DUP1 REVERT JUMPDEST POP PUSH2 0xF8 PUSH1 0x4 DUP1 CALLDATASIZE SUB DUP2 ADD SWAP1 PUSH2 0xF3 SWAP2 SWAP1 PUSH2 0x17BF JUMP JUMPDEST PUSH2 0x384 JUMP JUMPDEST PUSH1 0x40 MLOAD PUSH2 0x10B SWAP8 SWAP7 SWAP6 SWAP5 SWAP4 SWAP3 SWAP2 SWAP1 PUSH2 0x1883 JUMP JUMPDEST PUSH1 0x40 MLOAD DUP1 SWAP2 SUB SWAP1 RETURN JUMPDEST CALLVALUE DUP1 ISZERO PUSH2 0x11F JUMPI PUSH0 DUP1 REVERT JUMPDEST POP PUSH2 0x13A PUSH1 0x4 DUP1 CALLDATASIZE SUB DUP2 ADD SWAP1 PUSH2 0x135 SWAP2 SWAP1 PUSH2 0x17BF JUMP JUMPDEST PUSH2 0x5E9 JUMP JUMPDEST STOP JUMPDEST CALLVALUE DUP1 ISZERO PUSH2 0x147 JUMPI PUSH0 DUP1 REVERT JUMPDEST POP PUSH2 0x150 PUSH2 0x7B1 JUMP JUMPDEST PUSH1 0x40 MLOAD PUSH2 0x15D SWAP2 SWAP1 PUSH2 0x1ACC JUMP JUMPDEST PUSH1 0x40 MLOAD DUP1 SWAP2 SUB SWAP1 RETURN JUMPDEST CALLVALUE DUP1 ISZERO PUSH2 0x171 JUMPI PUSH0 DUP1 REVERT JUMPDEST POP PUSH2 0x18C PUSH1 0x4 DUP1 CALLDATASIZE SUB DUP2 ADD SWAP1 PUSH2 0x187 SWAP2 SWAP1 PUSH2 0x1C18 JUMP JUMPDEST PUSH2 0xA6A JUMP JUMPDEST STOP JUMPDEST CALLVALUE DUP1 ISZERO PUSH2 0x199 JUMPI PUSH0 DUP1 REVERT JUMPDEST POP PUSH2 0x1B4 PUSH1 0x4 DUP1 CALLDATASIZE SUB DUP2 ADD SWAP1 PUSH2 0x1AF SWAP2 SWAP1 PUSH2 0x1761 JUMP JUMPDEST PUSH2 0xBA2 JUMP JUMPDEST STOP JUMPDEST CALLVALUE DUP1 ISZERO PUSH2 0x1C1 JUMPI PUSH0 DUP1 REVERT JUMPDEST POP PUSH2 0x1DC PUSH1 0x4 DUP1 CALLDATASIZE SUB DUP2 ADD SWAP1 PUSH2 0x1D7 SWAP2 SWAP1 PUSH2 0x1D11 JUMP JUMPDEST PUSH2 0xC74 JUMP JUMPDEST STOP JUMPDEST PUSH2 0x1F8 PUSH1 0x4 DUP1 CALLDATASIZE SUB DUP2 ADD SWAP1 PUSH2 0x1F3 SWAP2 SWAP1 PUSH2 0x1D58 JUMP JUMPDEST PUSH2 0xF63 JUMP JUMPDEST STOP JUMPDEST CALLVALUE DUP1 ISZERO PUSH2 0x205 JUMPI PUSH0 DUP1 REVERT JUMPDEST POP PUSH2 0x20E PUSH2 0x11AA JUMP JUMPDEST PUSH1 0x40 MLOAD PUSH2 0x21B SWAP2 SWAP1 PUSH2 0x1E16 JUMP JUMPDEST PUSH1 0x40 MLOAD DUP1 SWAP2 SUB SWAP1 RETURN JUMPDEST CALLVALUE DUP1 ISZERO PUSH2 0x22F JUMPI PUSH0 DUP1 REVERT JUMPDEST POP PUSH2 0x238 PUSH2 0x1249 JUMP JUMPDEST PUSH1 0x40 MLOAD PUSH2 0x245 SWAP2 SWAP1 PUSH2 0x1E2F JUMP JUMPDEST PUSH1 0x40 MLOAD DUP1 SWAP2 SUB SWAP1 RETURN JUMPDEST CALLVALUE DUP1 ISZERO PUSH2 0x259 JUMPI PUSH0 DUP1 REVERT JUMPDEST POP PUSH2 0x274 PUSH1 0x4 DUP1 CALLDATASIZE SUB DUP2 ADD SWAP1 PUSH2 0x26F SWAP2 SWAP1 PUSH2 0x1D11 JUMP JUMPDEST PUSH2 0x1281 JUMP JUMPDEST PUSH1 0x40 MLOAD PUSH2 0x281 SWAP2 SWAP1 PUSH2 0x1EF6 JUMP JUMPDEST PUSH1 0x40 MLOAD DUP1 SWAP2 SUB SWAP1 RETURN JUMPDEST CALLVALUE DUP1 ISZERO PUSH2 0x295 JUMPI PUSH0 DUP1 REVERT JUMPDEST POP PUSH2 0x2B0 PUSH1 0x4 DUP1 CALLDATASIZE SUB DUP2 ADD SWAP1 PUSH2 0x2AB SWAP2 SWAP1 PUSH2 0x1761 JUMP JUMPDEST PUSH2 0x15EA JUMP JUMPDEST STOP JUMPDEST PUSH1 0x1 PUSH0 SWAP1 SLOAD SWAP1 PUSH2 0x100 EXP SWAP1 DIV PUSH20 0xFFFFFFFFFFFFFFFFFFFFFFFFFFFFFFFFFFFFFFFF AND PUSH20 0xFFFFFFFFFFFFFFFFFFFFFFFFFFFFFFFFFFFFFFFF AND CALLER PUSH20 0xFFFFFFFFFFFFFFFFFFFFFFFFFFFFFFFFFFFFFFFF AND EQ PUSH2 0x341 JUMPI PUSH1 0x40 MLOAD PUSH32 0x8C379A000000000000000000000000000000000000000000000000000000000 DUP2 MSTORE PUSH1 0x4 ADD PUSH2 0x338 SWAP1 PUSH2 0x1F86 JUMP JUMPDEST PUSH1 0x40 MLOAD DUP1 SWAP2 SUB SWAP1 REVERT JUMPDEST DUP1 PUSH1 0x2 PUSH0 PUSH2 0x100 EXP DUP2 SLOAD DUP2 PUSH20 0xFFFFFFFFFFFFFFFFFFFFFFFFFFFFFFFFFFFFFFFF MUL NOT AND SWAP1 DUP4 PUSH20 0xFFFFFFFFFFFFFFFFFFFFFFFFFFFFFFFFFFFFFFFF AND MUL OR SWAP1 SSTORE POP POP JUMP JUMPDEST PUSH1 0x5 DUP2 DUP2 SLOAD DUP2 LT PUSH2 0x393 JUMPI PUSH0 DUP1 REVERT JUMPDEST SWAP1 PUSH0 MSTORE PUSH1 0x20 PUSH0 KECCAK256 SWAP1 PUSH1 0x7 MUL ADD PUSH0 SWAP2 POP SWAP1 POP DUP1 PUSH0 ADD DUP1 SLOAD PUSH2 0x3B2 SWAP1 PUSH2 0x1FD1 JUMP JUMPDEST DUP1 PUSH1 0x1F ADD PUSH1 0x20 DUP1 SWAP2 DIV MUL PUSH1 0x20 ADD PUSH1 0x40 MLOAD SWAP1 DUP2 ADD PUSH1 0x40 MSTORE DUP1 SWAP3 SWAP2 SWAP1 DUP2 DUP2 MSTORE PUSH1 0x20 ADD DUP3 DUP1 SLOAD PUSH2 0x3DE SWAP1 PUSH2 0x1FD1 JUMP JUMPDEST DUP1 ISZERO PUSH2 0x429 JUMPI DUP1 PUSH1 0x1F LT PUSH2 0x400 JUMPI PUSH2 0x100 DUP1 DUP4 SLOAD DIV MUL DUP4 MSTORE SWAP2 PUSH1 0x20 ADD SWAP2 PUSH2 0x429 JUMP JUMPDEST DUP3 ADD SWAP2 SWAP1 PUSH0 MSTORE PUSH1 0x20 PUSH0 KECCAK256 SWAP1 JUMPDEST DUP2 SLOAD DUP2 MSTORE SWAP1 PUSH1 0x1 ADD SWAP1 PUSH1 0x20 ADD DUP1 DUP4 GT PUSH2 0x40C JUMPI DUP3 SWAP1 SUB PUSH1 0x1F AND DUP3 ADD SWAP2 JUMPDEST POP POP POP POP POP SWAP1 DUP1 PUSH1 0x1 ADD DUP1 SLOAD PUSH2 0x43E SWAP1 PUSH2 0x1FD1 JUMP JUMPDEST DUP1 PUSH1 0x1F ADD PUSH1 0x20 DUP1 SWAP2 DIV MUL PUSH1 0x20 ADD PUSH1 0x40 MLOAD SWAP1 DUP2 ADD PUSH1 0x40 MSTORE DUP1 SWAP3 SWAP2 SWAP1 DUP2 DUP2 MSTORE PUSH1 0x20 ADD DUP3 DUP1 SLOAD PUSH2 0x46A SWAP1 PUSH2 0x1FD1 JUMP JUMPDEST DUP1 ISZERO PUSH2 0x4B5 JUMPI DUP1 PUSH1 0x1F LT PUSH2 0x48C JUMPI PUSH2 0x100 DUP1 DUP4 SLOAD DIV MUL DUP4 MSTORE SWAP2 PUSH1 0x20 ADD SWAP2 PUSH2 0x4B5 JUMP JUMPDEST DUP3 ADD SWAP2 SWAP1 PUSH0 MSTORE PUSH1 0x20 PUSH0 KECCAK256 SWAP1 JUMPDEST DUP2 SLOAD DUP2 MSTORE SWAP1 PUSH1 0x1 ADD SWAP1 PUSH1 0x20 ADD DUP1 DUP4 GT PUSH2 0x498 JUMPI DUP3 SWAP1 SUB PUSH1 0x1F AND DUP3 ADD SWAP2 JUMPDEST POP POP POP POP POP SWAP1 DUP1 PUSH1 0x2 ADD DUP1 SLOAD PUSH2 0x4CA SWAP1 PUSH2 0x1FD1 JUMP JUMPDEST DUP1 PUSH1 0x1F ADD PUSH1 0x20 DUP1 SWAP2 DIV MUL PUSH1 0x20 ADD PUSH1 0x40 MLOAD SWAP1 DUP2 ADD PUSH1 0x40 MSTORE DUP1 SWAP3 SWAP2 SWAP1 DUP2 DUP2 MSTORE PUSH1 0x20 ADD DUP3 DUP1 SLOAD PUSH2 0x4F6 SWAP1 PUSH2 0x1FD1 JUMP JUMPDEST DUP1 ISZERO PUSH2 0x541 JUMPI DUP1 PUSH1 0x1F LT PUSH2 0x518 JUMPI PUSH2 0x100 DUP1 DUP4 SLOAD DIV MUL DUP4 MSTORE SWAP2 PUSH1 0x20 ADD SWAP2 PUSH2 0x541 JUMP JUMPDEST DUP3 ADD SWAP2 SWAP1 PUSH0 MSTORE PUSH1 0x20 PUSH0 KECCAK256 SWAP1 JUMPDEST DUP2 SLOAD DUP2 MSTORE SWAP1 PUSH1 0x1 ADD SWAP1 PUSH1 0x20 ADD DUP1 DUP4 GT PUSH2 0x524 JUMPI DUP3 SWAP1 SUB PUSH1 0x1F AND DUP3 ADD SWAP2 JUMPDEST POP POP POP POP POP SWAP1 DUP1 PUSH1 0x3 ADD SLOAD SWAP1 DUP1 PUSH1 0x4 ADD SLOAD SWAP1 DUP1 PUSH1 0x5 ADD DUP1 SLOAD PUSH2 0x562 SWAP1 PUSH2 0x1FD1 JUMP JUMPDEST DUP1 PUSH1 0x1F ADD PUSH1 0x20 DUP1 SWAP2 DIV MUL PUSH1 0x20 ADD PUSH1 0x40 MLOAD SWAP1 DUP2 ADD PUSH1 0x40 MSTORE DUP1 SWAP3 SWAP2 SWAP1 DUP2 DUP2 MSTORE PUSH1 0x20 ADD DUP3 DUP1 SLOAD PUSH2 0x58E SWAP1 PUSH2 0x1FD1 JUMP JUMPDEST DUP1 ISZERO PUSH2 0x5D9 JUMPI DUP1 PUSH1 0x1F LT PUSH2 0x5B0 JUMPI PUSH2 0x100 DUP1 DUP4 SLOAD DIV MUL DUP4 MSTORE SWAP2 PUSH1 0x20 ADD SWAP2 PUSH2 0x5D9 JUMP JUMPDEST DUP3 ADD SWAP2 SWAP1 PUSH0 MSTORE PUSH1 0x20 PUSH0 KECCAK256 SWAP1 JUMPDEST DUP2 SLOAD DUP2 MSTORE SWAP1 PUSH1 0x1 ADD SWAP1 PUSH1 0x20 ADD DUP1 DUP4 GT PUSH2 0x5BC JUMPI DUP3 SWAP1 SUB PUSH1 0x1F AND DUP3 ADD SWAP2 JUMPDEST POP POP POP POP POP SWAP1 DUP1 PUSH1 0x6 ADD SLOAD SWAP1 POP DUP8 JUMP JUMPDEST PUSH2 0x5F1 PUSH2 0x11AA JUMP JUMPDEST PUSH2 0x630 JUMPI PUSH1 0x40 MLOAD PUSH32 0x8C379A000000000000000000000000000000000000000000000000000000000 DUP2 MSTORE PUSH1 0x4 ADD PUSH2 0x627 SWAP1 PUSH2 0x2071 JUMP JUMPDEST PUSH1 0x40 MLOAD DUP1 SWAP2 SUB SWAP1 REVERT JUMPDEST PUSH0 PUSH1 0x3 PUSH0 SWAP1 SLOAD SWAP1 PUSH2 0x100 EXP SWAP1 DIV PUSH20 0xFFFFFFFFFFFFFFFFFFFFFFFFFFFFFFFFFFFFFFFF AND PUSH20 0xFFFFFFFFFFFFFFFFFFFFFFFFFFFFFFFFFFFFFFFF AND PUSH4 0xD93CB236 DUP4 PUSH1 0x40 MLOAD DUP3 PUSH4 0xFFFFFFFF AND PUSH1 0xE0 SHL DUP2 MSTORE PUSH1 0x4 ADD PUSH2 0x68B SWAP2 SWAP1 PUSH2 0x1E2F JUMP JUMPDEST PUSH0 PUSH1 0x40 MLOAD DUP1 DUP4 SUB DUP2 DUP7 GAS STATICCALL ISZERO DUP1 ISZERO PUSH2 0x6A5 JUMPI RETURNDATASIZE PUSH0 DUP1 RETURNDATACOPY RETURNDATASIZE PUSH0 REVERT JUMPDEST POP POP POP POP PUSH1 0x40 MLOAD RETURNDATASIZE PUSH0 DUP3 RETURNDATACOPY RETURNDATASIZE PUSH1 0x1F NOT PUSH1 0x1F DUP3 ADD AND DUP3 ADD DUP1 PUSH1 0x40 MSTORE POP DUP2 ADD SWAP1 PUSH2 0x6CD SWAP2 SWAP1 PUSH2 0x22E7 JUMP JUMPDEST SWAP1 POP PUSH1 0x1 ISZERO ISZERO DUP2 PUSH1 0x60 ADD MLOAD ISZERO ISZERO EQ PUSH2 0x71A JUMPI PUSH1 0x40 MLOAD PUSH32 0x8C379A000000000000000000000000000000000000000000000000000000000 DUP2 MSTORE PUSH1 0x4 ADD PUSH2 0x711 SWAP1 PUSH2 0x2378 JUMP JUMPDEST PUSH1 0x40 MLOAD DUP1 SWAP2 SUB SWAP1 REVERT JUMPDEST DUP1 PUSH1 0x80 ADD MLOAD SELFBALANCE LT ISZERO PUSH2 0x761 JUMPI PUSH1 0x40 MLOAD PUSH32 0x8C379A000000000000000000000000000000000000000000000000000000000 DUP2 MSTORE PUSH1 0x4 ADD PUSH2 0x758 SWAP1 PUSH2 0x2406 JUMP JUMPDEST PUSH1 0x40 MLOAD DUP1 SWAP2 SUB SWAP1 REVERT JUMPDEST DUP1 PUSH1 0xC0 ADD MLOAD PUSH20 0xFFFFFFFFFFFFFFFFFFFFFFFFFFFFFFFFFFFFFFFF AND PUSH2 0x8FC DUP3 PUSH1 0x80 ADD MLOAD SWAP1 DUP2 ISZERO MUL SWAP1 PUSH1 0x40 MLOAD PUSH0 PUSH1 0x40 MLOAD DUP1 DUP4 SUB DUP2 DUP6 DUP9 DUP9 CALL SWAP4 POP POP POP POP ISZERO DUP1 ISZERO PUSH2 0x7AC JUMPI RETURNDATASIZE PUSH0 DUP1 RETURNDATACOPY RETURNDATASIZE PUSH0 REVERT JUMPDEST POP POP POP JUMP JUMPDEST PUSH1 0x60 PUSH1 0x5 DUP1 SLOAD DUP1 PUSH1 0x20 MUL PUSH1 0x20 ADD PUSH1 0x40 MLOAD SWAP1 DUP2 ADD PUSH1 0x40 MSTORE DUP1 SWAP3 SWAP2 SWAP1 DUP2 DUP2 MSTORE PUSH1 0x20 ADD PUSH0 SWAP1 JUMPDEST DUP3 DUP3 LT ISZERO PUSH2 0xA61 JUMPI DUP4 DUP3 SWAP1 PUSH0 MSTORE PUSH1 0x20 PUSH0 KECCAK256 SWAP1 PUSH1 0x7 MUL ADD PUSH1 0x40 MLOAD DUP1 PUSH1 0xE0 ADD PUSH1 0x40 MSTORE SWAP1 DUP2 PUSH0 DUP3 ADD DUP1 SLOAD PUSH2 0x804 SWAP1 PUSH2 0x1FD1 JUMP JUMPDEST DUP1 PUSH1 0x1F ADD PUSH1 0x20 DUP1 SWAP2 DIV MUL PUSH1 0x20 ADD PUSH1 0x40 MLOAD SWAP1 DUP2 ADD PUSH1 0x40 MSTORE DUP1 SWAP3 SWAP2 SWAP1 DUP2 DUP2 MSTORE PUSH1 0x20 ADD DUP3 DUP1 SLOAD PUSH2 0x830 SWAP1 PUSH2 0x1FD1 JUMP JUMPDEST DUP1 ISZERO PUSH2 0x87B JUMPI DUP1 PUSH1 0x1F LT PUSH2 0x852 JUMPI PUSH2 0x100 DUP1 DUP4 SLOAD DIV MUL DUP4 MSTORE SWAP2 PUSH1 0x20 ADD SWAP2 PUSH2 0x87B JUMP JUMPDEST DUP3 ADD SWAP2 SWAP1 PUSH0 MSTORE PUSH1 0x20 PUSH0 KECCAK256 SWAP1 JUMPDEST DUP2 SLOAD DUP2 MSTORE SWAP1 PUSH1 0x1 ADD SWAP1 PUSH1 0x20 ADD DUP1 DUP4 GT PUSH2 0x85E JUMPI DUP3 SWAP1 SUB PUSH1 0x1F AND DUP3 ADD SWAP2 JUMPDEST POP POP POP POP POP DUP2 MSTORE PUSH1 0x20 ADD PUSH1 0x1 DUP3 ADD DUP1 SLOAD PUSH2 0x894 SWAP1 PUSH2 0x1FD1 JUMP JUMPDEST DUP1 PUSH1 0x1F ADD PUSH1 0x20 DUP1 SWAP2 DIV MUL PUSH1 0x20 ADD PUSH1 0x40 MLOAD SWAP1 DUP2 ADD PUSH1 0x40 MSTORE DUP1 SWAP3 SWAP2 SWAP1 DUP2 DUP2 MSTORE PUSH1 0x20 ADD DUP3 DUP1 SLOAD PUSH2 0x8C0 SWAP1 PUSH2 0x1FD1 JUMP JUMPDEST DUP1 ISZERO PUSH2 0x90B JUMPI DUP1 PUSH1 0x1F LT PUSH2 0x8E2 JUMPI PUSH2 0x100 DUP1 DUP4 SLOAD DIV MUL DUP4 MSTORE SWAP2 PUSH1 0x20 ADD SWAP2 PUSH2 0x90B JUMP JUMPDEST DUP3 ADD SWAP2 SWAP1 PUSH0 MSTORE PUSH1 0x20 PUSH0 KECCAK256 SWAP1 JUMPDEST DUP2 SLOAD DUP2 MSTORE SWAP1 PUSH1 0x1 ADD SWAP1 PUSH1 0x20 ADD DUP1 DUP4 GT PUSH2 0x8EE JUMPI DUP3 SWAP1 SUB PUSH1 0x1F AND DUP3 ADD SWAP2 JUMPDEST POP POP POP POP POP DUP2 MSTORE PUSH1 0x20 ADD PUSH1 0x2 DUP3 ADD DUP1 SLOAD PUSH2 0x924 SWAP1 PUSH2 0x1FD1 JUMP JUMPDEST DUP1 PUSH1 0x1F ADD PUSH1 0x20 DUP1 SWAP2 DIV MUL PUSH1 0x20 ADD PUSH1 0x40 MLOAD SWAP1 DUP2 ADD PUSH1 0x40 MSTORE DUP1 SWAP3 SWAP2 SWAP1 DUP2 DUP2 MSTORE PUSH1 0x20 ADD DUP3 DUP1 SLOAD PUSH2 0x950 SWAP1 PUSH2 0x1FD1 JUMP JUMPDEST DUP1 ISZERO PUSH2 0x99B JUMPI DUP1 PUSH1 0x1F LT PUSH2 0x972 JUMPI PUSH2 0x100 DUP1 DUP4 SLOAD DIV MUL DUP4 MSTORE SWAP2 PUSH1 0x20 ADD SWAP2 PUSH2 0x99B JUMP JUMPDEST DUP3 ADD SWAP2 SWAP1 PUSH0 MSTORE PUSH1 0x20 PUSH0 KECCAK256 SWAP1 JUMPDEST DUP2 SLOAD DUP2 MSTORE SWAP1 PUSH1 0x1 ADD SWAP1 PUSH1 0x20 ADD DUP1 DUP4 GT PUSH2 0x97E JUMPI DUP3 SWAP1 SUB PUSH1 0x1F AND DUP3 ADD SWAP2 JUMPDEST POP POP POP POP POP DUP2 MSTORE PUSH1 0x20 ADD PUSH1 0x3 DUP3 ADD SLOAD DUP2 MSTORE PUSH1 0x20 ADD PUSH1 0x4 DUP3 ADD SLOAD DUP2 MSTORE PUSH1 0x20 ADD PUSH1 0x5 DUP3 ADD DUP1 SLOAD PUSH2 0x9C8 SWAP1 PUSH2 0x1FD1 JUMP JUMPDEST DUP1 PUSH1 0x1F ADD PUSH1 0x20 DUP1 SWAP2 DIV MUL PUSH1 0x20 ADD PUSH1 0x40 MLOAD SWAP1 DUP2 ADD PUSH1 0x40 MSTORE DUP1 SWAP3 SWAP2 SWAP1 DUP2 DUP2 MSTORE PUSH1 0x20 ADD DUP3 DUP1 SLOAD PUSH2 0x9F4 SWAP1 PUSH2 0x1FD1 JUMP JUMPDEST DUP1 ISZERO PUSH2 0xA3F JUMPI DUP1 PUSH1 0x1F LT PUSH2 0xA16 JUMPI PUSH2 0x100 DUP1 DUP4 SLOAD DIV MUL DUP4 MSTORE SWAP2 PUSH1 0x20 ADD SWAP2 PUSH2 0xA3F JUMP JUMPDEST DUP3 ADD SWAP2 SWAP1 PUSH0 MSTORE PUSH1 0x20 PUSH0 KECCAK256 SWAP1 JUMPDEST DUP2 SLOAD DUP2 MSTORE SWAP1 PUSH1 0x1 ADD SWAP1 PUSH1 0x20 ADD DUP1 DUP4 GT PUSH2 0xA22 JUMPI DUP3 SWAP1 SUB PUSH1 0x1F AND DUP3 ADD SWAP2 JUMPDEST POP POP POP POP POP DUP2 MSTORE PUSH1 0x20 ADD PUSH1 0x6 DUP3 ADD SLOAD DUP2 MSTORE POP POP DUP2 MSTORE PUSH1 0x20 ADD SWAP1 PUSH1 0x1 ADD SWAP1 PUSH2 0x7D4 JUMP JUMPDEST POP POP POP POP SWAP1 POP SWAP1 JUMP JUMPDEST PUSH2 0xA72 PUSH2 0x11AA JUMP JUMPDEST PUSH2 0xAB1 JUMPI PUSH1 0x40 MLOAD PUSH32 0x8C379A000000000000000000000000000000000000000000000000000000000 DUP2 MSTORE PUSH1 0x4 ADD PUSH2 0xAA8 SWAP1 PUSH2 0x2071 JUMP JUMPDEST PUSH1 0x40 MLOAD DUP1 SWAP2 SUB SWAP1 REVERT JUMPDEST PUSH2 0xAB9 PUSH2 0x16BC JUMP JUMPDEST DUP7 DUP2 PUSH0 ADD DUP2 SWAP1 MSTORE POP DUP6 DUP2 PUSH1 0x20 ADD DUP2 SWAP1 MSTORE POP DUP5 DUP2 PUSH1 0x40 ADD DUP2 SWAP1 MSTORE POP DUP3 DUP2 PUSH1 0x80 ADD DUP2 DUP2 MSTORE POP POP DUP4 DUP2 PUSH1 0x60 ADD DUP2 DUP2 MSTORE POP POP DUP2 DUP2 PUSH1 0xA0 ADD DUP2 SWAP1 MSTORE POP PUSH0 DUP2 PUSH1 0xC0 ADD DUP2 DUP2 MSTORE POP POP PUSH1 0x5 DUP2 SWAP1 DUP1 PUSH1 0x1 DUP2 SLOAD ADD DUP1 DUP3 SSTORE DUP1 SWAP2 POP POP PUSH1 0x1 SWAP1 SUB SWAP1 PUSH0 MSTORE PUSH1 0x20 PUSH0 KECCAK256 SWAP1 PUSH1 0x7 MUL ADD PUSH0 SWAP1 SWAP2 SWAP1 SWAP2 SWAP1 SWAP2 POP PUSH0 DUP3 ADD MLOAD DUP2 PUSH0 ADD SWAP1 DUP2 PUSH2 0xB36 SWAP2 SWAP1 PUSH2 0x25C1 JUMP JUMPDEST POP PUSH1 0x20 DUP3 ADD MLOAD DUP2 PUSH1 0x1 ADD SWAP1 DUP2 PUSH2 0xB4C SWAP2 SWAP1 PUSH2 0x25C1 JUMP JUMPDEST POP PUSH1 0x40 DUP3 ADD MLOAD DUP2 PUSH1 0x2 ADD SWAP1 DUP2 PUSH2 0xB62 SWAP2 SWAP1 PUSH2 0x25C1 JUMP JUMPDEST POP PUSH1 0x60 DUP3 ADD MLOAD DUP2 PUSH1 0x3 ADD SSTORE PUSH1 0x80 DUP3 ADD MLOAD DUP2 PUSH1 0x4 ADD SSTORE PUSH1 0xA0 DUP3 ADD MLOAD DUP2 PUSH1 0x5 ADD SWAP1 DUP2 PUSH2 0xB8C SWAP2 SWAP1 PUSH2 0x25C1 JUMP JUMPDEST POP PUSH1 0xC0 DUP3 ADD MLOAD DUP2 PUSH1 0x6 ADD SSTORE POP POP POP POP POP POP POP POP POP JUMP JUMPDEST PUSH1 0x1 PUSH0 SWAP1 SLOAD SWAP1 PUSH2 0x100 EXP SWAP1 DIV PUSH20 0xFFFFFFFFFFFFFFFFFFFFFFFFFFFFFFFFFFFFFFFF AND PUSH20 0xFFFFFFFFFFFFFFFFFFFFFFFFFFFFFFFFFFFFFFFF AND CALLER PUSH20 0xFFFFFFFFFFFFFFFFFFFFFFFFFFFFFFFFFFFFFFFF AND EQ PUSH2 0xC31 JUMPI PUSH1 0x40 MLOAD PUSH32 0x8C379A000000000000000000000000000000000000000000000000000000000 DUP2 MSTORE PUSH1 0x4 ADD PUSH2 0xC28 SWAP1 PUSH2 0x1F86 JUMP JUMPDEST PUSH1 0x40 MLOAD DUP1 SWAP2 SUB SWAP1 REVERT JUMPDEST DUP1 PUSH1 0x4 PUSH0 PUSH2 0x100 EXP DUP2 SLOAD DUP2 PUSH20 0xFFFFFFFFFFFFFFFFFFFFFFFFFFFFFFFFFFFFFFFF MUL NOT AND SWAP1 DUP4 PUSH20 0xFFFFFFFFFFFFFFFFFFFFFFFFFFFFFFFFFFFFFFFF AND MUL OR SWAP1 SSTORE POP POP JUMP JUMPDEST PUSH2 0xC7C PUSH2 0x11AA JUMP JUMPDEST PUSH2 0xCBB JUMPI PUSH1 0x40 MLOAD PUSH32 0x8C379A000000000000000000000000000000000000000000000000000000000 DUP2 MSTORE PUSH1 0x4 ADD PUSH2 0xCB2 SWAP1 PUSH2 0x2071 JUMP JUMPDEST PUSH1 0x40 MLOAD DUP1 SWAP2 SUB SWAP1 REVERT JUMPDEST PUSH0 PUSH1 0x2 PUSH0 SWAP1 SLOAD SWAP1 PUSH2 0x100 EXP SWAP1 DIV PUSH20 0xFFFFFFFFFFFFFFFFFFFFFFFFFFFFFFFFFFFFFFFF AND PUSH20 0xFFFFFFFFFFFFFFFFFFFFFFFFFFFFFFFFFFFFFFFF AND PUSH4 0xD740BB6C DUP4 PUSH1 0x40 MLOAD DUP3 PUSH4 0xFFFFFFFF AND PUSH1 0xE0 SHL DUP2 MSTORE PUSH1 0x4 ADD PUSH2 0xD16 SWAP2 SWAP1 PUSH2 0x2690 JUMP JUMPDEST PUSH0 PUSH1 0x40 MLOAD DUP1 DUP4 SUB DUP2 DUP7 GAS STATICCALL ISZERO DUP1 ISZERO PUSH2 0xD30 JUMPI RETURNDATASIZE PUSH0 DUP1 RETURNDATACOPY RETURNDATASIZE PUSH0 REVERT JUMPDEST POP POP POP POP PUSH1 0x40 MLOAD RETURNDATASIZE PUSH0 DUP3 RETURNDATACOPY RETURNDATASIZE PUSH1 0x1F NOT PUSH1 0x1F DUP3 ADD AND DUP3 ADD DUP1 PUSH1 0x40 MSTORE POP DUP2 ADD SWAP1 PUSH2 0xD58 SWAP2 SWAP1 PUSH2 0x28DD JUMP JUMPDEST SWAP1 POP PUSH0 SELFBALANCE GT PUSH2 0xD9C JUMPI PUSH1 0x40 MLOAD PUSH32 0x8C379A000000000000000000000000000000000000000000000000000000000 DUP2 MSTORE PUSH1 0x4 ADD PUSH2 0xD93 SWAP1 PUSH2 0x2406 JUMP JUMPDEST PUSH1 0x40 MLOAD DUP1 SWAP2 SUB SWAP1 REVERT JUMPDEST PUSH1 0x1 DUP2 MLOAD LT ISZERO PUSH2 0xDE1 JUMPI PUSH1 0x40 MLOAD PUSH32 0x8C379A000000000000000000000000000000000000000000000000000000000 DUP2 MSTORE PUSH1 0x4 ADD PUSH2 0xDD8 SWAP1 PUSH2 0x2994 JUMP JUMPDEST PUSH1 0x40 MLOAD DUP1 SWAP2 SUB SWAP1 REVERT JUMPDEST PUSH0 JUMPDEST DUP2 MLOAD DUP2 LT ISZERO PUSH2 0xEA4 JUMPI DUP2 DUP2 DUP2 MLOAD DUP2 LT PUSH2 0xDFF JUMPI PUSH2 0xDFE PUSH2 0x29B2 JUMP JUMPDEST JUMPDEST PUSH1 0x20 MUL PUSH1 0x20 ADD ADD MLOAD PUSH1 0x80 ADD MLOAD PUSH20 0xFFFFFFFFFFFFFFFFFFFFFFFFFFFFFFFFFFFFFFFF AND PUSH2 0x8FC DUP4 DUP4 DUP2 MLOAD DUP2 LT PUSH2 0xE37 JUMPI PUSH2 0xE36 PUSH2 0x29B2 JUMP JUMPDEST JUMPDEST PUSH1 0x20 MUL PUSH1 0x20 ADD ADD MLOAD PUSH1 0xA0 ADD MLOAD SWAP1 DUP2 ISZERO MUL SWAP1 PUSH1 0x40 MLOAD PUSH0 PUSH1 0x40 MLOAD DUP1 DUP4 SUB DUP2 DUP6 DUP9 DUP9 CALL SWAP4 POP POP POP POP ISZERO DUP1 ISZERO PUSH2 0xE6B JUMPI RETURNDATASIZE PUSH0 DUP1 RETURNDATACOPY RETURNDATASIZE PUSH0 REVERT JUMPDEST POP PUSH1 0x1 DUP3 DUP3 DUP2 MLOAD DUP2 LT PUSH2 0xE81 JUMPI PUSH2 0xE80 PUSH2 0x29B2 JUMP JUMPDEST JUMPDEST PUSH1 0x20 MUL PUSH1 0x20 ADD ADD MLOAD PUSH1 0xC0 ADD SWAP1 ISZERO ISZERO SWAP1 DUP2 ISZERO ISZERO DUP2 MSTORE POP POP DUP1 DUP1 PUSH1 0x1 ADD SWAP2 POP POP PUSH2 0xDE3 JUMP JUMPDEST POP PUSH0 JUMPDEST PUSH1 0x5 DUP1 SLOAD SWAP1 POP DUP2 LT ISZERO PUSH2 0xF5E JUMPI DUP3 PUSH1 0x40 MLOAD PUSH1 0x20 ADD PUSH2 0xEC5 SWAP2 SWAP1 PUSH2 0x2A19 JUMP JUMPDEST PUSH1 0x40 MLOAD PUSH1 0x20 DUP2 DUP4 SUB SUB DUP2 MSTORE SWAP1 PUSH1 0x40 MSTORE DUP1 MLOAD SWAP1 PUSH1 0x20 ADD KECCAK256 PUSH1 0x5 DUP3 DUP2 SLOAD DUP2 LT PUSH2 0xEEF JUMPI PUSH2 0xEEE PUSH2 0x29B2 JUMP JUMPDEST JUMPDEST SWAP1 PUSH0 MSTORE PUSH1 0x20 PUSH0 KECCAK256 SWAP1 PUSH1 0x7 MUL ADD PUSH0 ADD PUSH1 0x40 MLOAD PUSH1 0x20 ADD PUSH2 0xF0D SWAP2 SWAP1 PUSH2 0x2AAF JUMP JUMPDEST PUSH1 0x40 MLOAD PUSH1 0x20 DUP2 DUP4 SUB SUB DUP2 MSTORE SWAP1 PUSH1 0x40 MSTORE DUP1 MLOAD SWAP1 PUSH1 0x20 ADD KECCAK256 SUB PUSH2 0xF51 JUMPI PUSH0 PUSH1 0x5 DUP3 DUP2 SLOAD DUP2 LT PUSH2 0xF3D JUMPI PUSH2 0xF3C PUSH2 0x29B2 JUMP JUMPDEST JUMPDEST SWAP1 PUSH0 MSTORE PUSH1 0x20 PUSH0 KECCAK256 SWAP1 PUSH1 0x7 MUL ADD PUSH1 0x3 ADD DUP2 SWAP1 SSTORE POP JUMPDEST DUP1 DUP1 PUSH1 0x1 ADD SWAP2 POP POP PUSH2 0xEA7 JUMP JUMPDEST POP POP POP JUMP JUMPDEST PUSH6 0xB5E620F48000 CALLVALUE LT ISZERO PUSH2 0xFAC JUMPI PUSH1 0x40 MLOAD PUSH32 0x8C379A000000000000000000000000000000000000000000000000000000000 DUP2 MSTORE PUSH1 0x4 ADD PUSH2 0xFA3 SWAP1 PUSH2 0x2B35 JUMP JUMPDEST PUSH1 0x40 MLOAD DUP1 SWAP2 SUB SWAP1 REVERT JUMPDEST PUSH0 JUMPDEST PUSH1 0x5 DUP1 SLOAD SWAP1 POP DUP2 LT ISZERO PUSH2 0x1169 JUMPI DUP4 PUSH1 0x40 MLOAD PUSH1 0x20 ADD PUSH2 0xFCC SWAP2 SWAP1 PUSH2 0x2A19 JUMP JUMPDEST PUSH1 0x40 MLOAD PUSH1 0x20 DUP2 DUP4 SUB SUB DUP2 MSTORE SWAP1 PUSH1 0x40 MSTORE DUP1 MLOAD SWAP1 PUSH1 0x20 ADD KECCAK256 PUSH1 0x5 DUP3 DUP2 SLOAD DUP2 LT PUSH2 0xFF6 JUMPI PUSH2 0xFF5 PUSH2 0x29B2 JUMP JUMPDEST JUMPDEST SWAP1 PUSH0 MSTORE PUSH1 0x20 PUSH0 KECCAK256 SWAP1 PUSH1 0x7 MUL ADD PUSH0 ADD PUSH1 0x40 MLOAD PUSH1 0x20 ADD PUSH2 0x1014 SWAP2 SWAP1 PUSH2 0x2AAF JUMP JUMPDEST PUSH1 0x40 MLOAD PUSH1 0x20 DUP2 DUP4 SUB SUB DUP2 MSTORE SWAP1 PUSH1 0x40 MSTORE DUP1 MLOAD SWAP1 PUSH1 0x20 ADD KECCAK256 SUB PUSH2 0x115C JUMPI CALLVALUE PUSH1 0x5 DUP3 DUP2 SLOAD DUP2 LT PUSH2 0x1044 JUMPI PUSH2 0x1043 PUSH2 0x29B2 JUMP JUMPDEST JUMPDEST SWAP1 PUSH0 MSTORE PUSH1 0x20 PUSH0 KECCAK256 SWAP1 PUSH1 0x7 MUL ADD PUSH1 0x3 ADD PUSH0 DUP3 DUP3 SLOAD PUSH2 0x1061 SWAP2 SWAP1 PUSH2 0x2B80 JUMP JUMPDEST SWAP3 POP POP DUP2 SWAP1 SSTORE POP PUSH0 PUSH2 0x1071 PUSH2 0x1249 JUMP JUMPDEST SWAP1 POP PUSH1 0x2 PUSH0 SWAP1 SLOAD SWAP1 PUSH2 0x100 EXP SWAP1 DIV PUSH20 0xFFFFFFFFFFFFFFFFFFFFFFFFFFFFFFFFFFFFFFFF AND PUSH20 0xFFFFFFFFFFFFFFFFFFFFFFFFFFFFFFFFFFFFFFFF AND PUSH4 0x31D7ADF7 DUP3 DUP8 PUSH1 0x5 DUP7 DUP2 SLOAD DUP2 LT PUSH2 0x10C6 JUMPI PUSH2 0x10C5 PUSH2 0x29B2 JUMP JUMPDEST JUMPDEST SWAP1 PUSH0 MSTORE PUSH1 0x20 PUSH0 KECCAK256 SWAP1 PUSH1 0x7 MUL ADD PUSH1 0x1 ADD DUP9 CALLER CALLVALUE DUP11 PUSH1 0x40 MLOAD DUP9 PUSH4 0xFFFFFFFF AND PUSH1 0xE0 SHL DUP2 MSTORE PUSH1 0x4 ADD PUSH2 0x10FB SWAP8 SWAP7 SWAP6 SWAP5 SWAP4 SWAP3 SWAP2 SWAP1 PUSH2 0x2C43 JUMP JUMPDEST PUSH0 PUSH1 0x40 MLOAD DUP1 DUP4 SUB DUP2 PUSH0 DUP8 DUP1 EXTCODESIZE ISZERO DUP1 ISZERO PUSH2 0x1112 JUMPI PUSH0 DUP1 REVERT JUMPDEST POP GAS CALL ISZERO DUP1 ISZERO PUSH2 0x1124 JUMPI RETURNDATASIZE PUSH0 DUP1 RETURNDATACOPY RETURNDATASIZE PUSH0 REVERT JUMPDEST POP POP POP POP DUP1 PUSH32 0x10E28C4148ED071D575B5F87A5BCBF953897E4E56F6B71D447EFAC1398DB5E2D PUSH1 0x40 MLOAD PUSH1 0x40 MLOAD DUP1 SWAP2 SUB SWAP1 LOG2 POP POP PUSH2 0x11A5 JUMP JUMPDEST DUP1 DUP1 PUSH1 0x1 ADD SWAP2 POP POP PUSH2 0xFAE JUMP JUMPDEST POP PUSH1 0x40 MLOAD PUSH32 0x8C379A000000000000000000000000000000000000000000000000000000000 DUP2 MSTORE PUSH1 0x4 ADD PUSH2 0x119C SWAP1 PUSH2 0x2D16 JUMP JUMPDEST PUSH1 0x40 MLOAD DUP1 SWAP2 SUB SWAP1 REVERT JUMPDEST POP POP POP JUMP JUMPDEST PUSH0 PUSH1 0x4 PUSH0 SWAP1 SLOAD SWAP1 PUSH2 0x100 EXP SWAP1 DIV PUSH20 0xFFFFFFFFFFFFFFFFFFFFFFFFFFFFFFFFFFFFFFFF AND PUSH20 0xFFFFFFFFFFFFFFFFFFFFFFFFFFFFFFFFFFFFFFFF AND PUSH4 0x9026DEE8 CALLER PUSH1 0x40 MLOAD DUP3 PUSH4 0xFFFFFFFF AND PUSH1 0xE0 SHL DUP2 MSTORE PUSH1 0x4 ADD PUSH2 0x1205 SWAP2 SWAP1 PUSH2 0x2D34 JUMP JUMPDEST PUSH1 0x20 PUSH1 0x40 MLOAD DUP1 DUP4 SUB DUP2 DUP7 GAS STATICCALL ISZERO DUP1 ISZERO PUSH2 0x1220 JUMPI RETURNDATASIZE PUSH0 DUP1 RETURNDATACOPY RETURNDATASIZE PUSH0 REVERT JUMPDEST POP POP POP POP PUSH1 0x40 MLOAD RETURNDATASIZE PUSH1 0x1F NOT PUSH1 0x1F DUP3 ADD AND DUP3 ADD DUP1 PUSH1 0x40 MSTORE POP DUP2 ADD SWAP1 PUSH2 0x1244 SWAP2 SWAP1 PUSH2 0x2D4D JUMP JUMPDEST SWAP1 POP SWAP1 JUMP JUMPDEST PUSH0 DUP1 TIMESTAMP CALLER PREVRANDAO PUSH1 0x40 MLOAD PUSH1 0x20 ADD PUSH2 0x1260 SWAP4 SWAP3 SWAP2 SWAP1 PUSH2 0x2DDD JUMP JUMPDEST PUSH1 0x40 MLOAD PUSH1 0x20 DUP2 DUP4 SUB SUB DUP2 MSTORE SWAP1 PUSH1 0x40 MSTORE DUP1 MLOAD SWAP1 PUSH1 0x20 ADD KECCAK256 PUSH0 SHR SWAP1 POP DUP1 SWAP2 POP POP SWAP1 JUMP JUMPDEST PUSH2 0x1289 PUSH2 0x16BC JUMP JUMPDEST PUSH0 JUMPDEST PUSH1 0x5 DUP1 SLOAD SWAP1 POP DUP2 LT ISZERO PUSH2 0x15A9 JUMPI DUP3 PUSH1 0x40 MLOAD PUSH1 0x20 ADD PUSH2 0x12A9 SWAP2 SWAP1 PUSH2 0x2A19 JUMP JUMPDEST PUSH1 0x40 MLOAD PUSH1 0x20 DUP2 DUP4 SUB SUB DUP2 MSTORE SWAP1 PUSH1 0x40 MSTORE DUP1 MLOAD SWAP1 PUSH1 0x20 ADD KECCAK256 PUSH1 0x5 DUP3 DUP2 SLOAD DUP2 LT PUSH2 0x12D3 JUMPI PUSH2 0x12D2 PUSH2 0x29B2 JUMP JUMPDEST JUMPDEST SWAP1 PUSH0 MSTORE PUSH1 0x20 PUSH0 KECCAK256 SWAP1 PUSH1 0x7 MUL ADD PUSH0 ADD PUSH1 0x40 MLOAD PUSH1 0x20 ADD PUSH2 0x12F1 SWAP2 SWAP1 PUSH2 0x2AAF JUMP JUMPDEST PUSH1 0x40 MLOAD PUSH1 0x20 DUP2 DUP4 SUB SUB DUP2 MSTORE SWAP1 PUSH1 0x40 MSTORE DUP1 MLOAD SWAP1 PUSH1 0x20 ADD KECCAK256 SUB PUSH2 0x159C JUMPI PUSH1 0x5 DUP2 DUP2 SLOAD DUP2 LT PUSH2 0x1320 JUMPI PUSH2 0x131F PUSH2 0x29B2 JUMP JUMPDEST JUMPDEST SWAP1 PUSH0 MSTORE PUSH1 0x20 PUSH0 KECCAK256 SWAP1 PUSH1 0x7 MUL ADD PUSH1 0x40 MLOAD DUP1 PUSH1 0xE0 ADD PUSH1 0x40 MSTORE SWAP1 DUP2 PUSH0 DUP3 ADD DUP1 SLOAD PUSH2 0x1346 SWAP1 PUSH2 0x1FD1 JUMP JUMPDEST DUP1 PUSH1 0x1F ADD PUSH1 0x20 DUP1 SWAP2 DIV MUL PUSH1 0x20 ADD PUSH1 0x40 MLOAD SWAP1 DUP2 ADD PUSH1 0x40 MSTORE DUP1 SWAP3 SWAP2 SWAP1 DUP2 DUP2 MSTORE PUSH1 0x20 ADD DUP3 DUP1 SLOAD PUSH2 0x1372 SWAP1 PUSH2 0x1FD1 JUMP JUMPDEST DUP1 ISZERO PUSH2 0x13BD JUMPI DUP1 PUSH1 0x1F LT PUSH2 0x1394 JUMPI PUSH2 0x100 DUP1 DUP4 SLOAD DIV MUL DUP4 MSTORE SWAP2 PUSH1 0x20 ADD SWAP2 PUSH2 0x13BD JUMP JUMPDEST DUP3 ADD SWAP2 SWAP1 PUSH0 MSTORE PUSH1 0x20 PUSH0 KECCAK256 SWAP1 JUMPDEST DUP2 SLOAD DUP2 MSTORE SWAP1 PUSH1 0x1 ADD SWAP1 PUSH1 0x20 ADD DUP1 DUP4 GT PUSH2 0x13A0 JUMPI DUP3 SWAP1 SUB PUSH1 0x1F AND DUP3 ADD SWAP2 JUMPDEST POP POP POP POP POP DUP2 MSTORE PUSH1 0x20 ADD PUSH1 0x1 DUP3 ADD DUP1 SLOAD PUSH2 0x13D6 SWAP1 PUSH2 0x1FD1 JUMP JUMPDEST DUP1 PUSH1 0x1F ADD PUSH1 0x20 DUP1 SWAP2 DIV MUL PUSH1 0x20 ADD PUSH1 0x40 MLOAD SWAP1 DUP2 ADD PUSH1 0x40 MSTORE DUP1 SWAP3 SWAP2 SWAP1 DUP2 DUP2 MSTORE PUSH1 0x20 ADD DUP3 DUP1 SLOAD PUSH2 0x1402 SWAP1 PUSH2 0x1FD1 JUMP JUMPDEST DUP1 ISZERO PUSH2 0x144D JUMPI DUP1 PUSH1 0x1F LT PUSH2 0x1424 JUMPI PUSH2 0x100 DUP1 DUP4 SLOAD DIV MUL DUP4 MSTORE SWAP2 PUSH1 0x20 ADD SWAP2 PUSH2 0x144D JUMP JUMPDEST DUP3 ADD SWAP2 SWAP1 PUSH0 MSTORE PUSH1 0x20 PUSH0 KECCAK256 SWAP1 JUMPDEST DUP2 SLOAD DUP2 MSTORE SWAP1 PUSH1 0x1 ADD SWAP1 PUSH1 0x20 ADD DUP1 DUP4 GT PUSH2 0x1430 JUMPI DUP3 SWAP1 SUB PUSH1 0x1F AND DUP3 ADD SWAP2 JUMPDEST POP POP POP POP POP DUP2 MSTORE PUSH1 0x20 ADD PUSH1 0x2 DUP3 ADD DUP1 SLOAD PUSH2 0x1466 SWAP1 PUSH2 0x1FD1 JUMP JUMPDEST DUP1 PUSH1 0x1F ADD PUSH1 0x20 DUP1 SWAP2 DIV MUL PUSH1 0x20 ADD PUSH1 0x40 MLOAD SWAP1 DUP2 ADD PUSH1 0x40 MSTORE DUP1 SWAP3 SWAP2 SWAP1 DUP2 DUP2 MSTORE PUSH1 0x20 ADD DUP3 DUP1 SLOAD PUSH2 0x1492 SWAP1 PUSH2 0x1FD1 JUMP JUMPDEST DUP1 ISZERO PUSH2 0x14DD JUMPI DUP1 PUSH1 0x1F LT PUSH2 0x14B4 JUMPI PUSH2 0x100 DUP1 DUP4 SLOAD DIV MUL DUP4 MSTORE SWAP2 PUSH1 0x20 ADD SWAP2 PUSH2 0x14DD JUMP JUMPDEST DUP3 ADD SWAP2 SWAP1 PUSH0 MSTORE PUSH1 0x20 PUSH0 KECCAK256 SWAP1 JUMPDEST DUP2 SLOAD DUP2 MSTORE SWAP1 PUSH1 0x1 ADD SWAP1 PUSH1 0x20 ADD DUP1 DUP4 GT PUSH2 0x14C0 JUMPI DUP3 SWAP1 SUB PUSH1 0x1F AND DUP3 ADD SWAP2 JUMPDEST POP POP POP POP POP DUP2 MSTORE PUSH1 0x20 ADD PUSH1 0x3 DUP3 ADD SLOAD DUP2 MSTORE PUSH1 0x20 ADD PUSH1 0x4 DUP3 ADD SLOAD DUP2 MSTORE PUSH1 0x20 ADD PUSH1 0x5 DUP3 ADD DUP1 SLOAD PUSH2 0x150A SWAP1 PUSH2 0x1FD1 JUMP JUMPDEST DUP1 PUSH1 0x1F ADD PUSH1 0x20 DUP1 SWAP2 DIV MUL PUSH1 0x20 ADD PUSH1 0x40 MLOAD SWAP1 DUP2 ADD PUSH1 0x40 MSTORE DUP1 SWAP3 SWAP2 SWAP1 DUP2 DUP2 MSTORE PUSH1 0x20 ADD DUP3 DUP1 SLOAD PUSH2 0x1536 SWAP1 PUSH2 0x1FD1 JUMP JUMPDEST DUP1 ISZERO PUSH2 0x1581 JUMPI DUP1 PUSH1 0x1F LT PUSH2 0x1558 JUMPI PUSH2 0x100 DUP1 DUP4 SLOAD DIV MUL DUP4 MSTORE SWAP2 PUSH1 0x20 ADD SWAP2 PUSH2 0x1581 JUMP JUMPDEST DUP3 ADD SWAP2 SWAP1 PUSH0 MSTORE PUSH1 0x20 PUSH0 KECCAK256 SWAP1 JUMPDEST DUP2 SLOAD DUP2 MSTORE SWAP1 PUSH1 0x1 ADD SWAP1 PUSH1 0x20 ADD DUP1 DUP4 GT PUSH2 0x1564 JUMPI DUP3 SWAP1 SUB PUSH1 0x1F AND DUP3 ADD SWAP2 JUMPDEST POP POP POP POP POP DUP2 MSTORE PUSH1 0x20 ADD PUSH1 0x6 DUP3 ADD SLOAD DUP2 MSTORE POP POP SWAP2 POP POP PUSH2 0x15E5 JUMP JUMPDEST DUP1 DUP1 PUSH1 0x1 ADD SWAP2 POP POP PUSH2 0x128B JUMP JUMPDEST POP PUSH1 0x40 MLOAD PUSH32 0x8C379A000000000000000000000000000000000000000000000000000000000 DUP2 MSTORE PUSH1 0x4 ADD PUSH2 0x15DC SWAP1 PUSH2 0x2D16 JUMP JUMPDEST PUSH1 0x40 MLOAD DUP1 SWAP2 SUB SWAP1 REVERT JUMPDEST SWAP2 SWAP1 POP JUMP JUMPDEST PUSH1 0x1 PUSH0 SWAP1 SLOAD SWAP1 PUSH2 0x100 EXP SWAP1 DIV PUSH20 0xFFFFFFFFFFFFFFFFFFFFFFFFFFFFFFFFFFFFFFFF AND PUSH20 0xFFFFFFFFFFFFFFFFFFFFFFFFFFFFFFFFFFFFFFFF AND CALLER PUSH20 0xFFFFFFFFFFFFFFFFFFFFFFFFFFFFFFFFFFFFFFFF AND EQ PUSH2 0x1679 JUMPI PUSH1 0x40 MLOAD PUSH32 0x8C379A000000000000000000000000000000000000000000000000000000000 DUP2 MSTORE PUSH1 0x4 ADD PUSH2 0x1670 SWAP1 PUSH2 0x1F86 JUMP JUMPDEST PUSH1 0x40 MLOAD DUP1 SWAP2 SUB SWAP1 REVERT JUMPDEST DUP1 PUSH1 0x3 PUSH0 PUSH2 0x100 EXP DUP2 SLOAD DUP2 PUSH20 0xFFFFFFFFFFFFFFFFFFFFFFFFFFFFFFFFFFFFFFFF MUL NOT AND SWAP1 DUP4 PUSH20 0xFFFFFFFFFFFFFFFFFFFFFFFFFFFFFFFFFFFFFFFF AND MUL OR SWAP1 SSTORE POP POP JUMP JUMPDEST PUSH1 0x40 MLOAD DUP1 PUSH1 0xE0 ADD PUSH1 0x40 MSTORE DUP1 PUSH1 0x60 DUP2 MSTORE PUSH1 0x20 ADD PUSH1 0x60 DUP2 MSTORE PUSH1 0x20 ADD PUSH1 0x60 DUP2 MSTORE PUSH1 0x20 ADD PUSH0 DUP2 MSTORE PUSH1 0x20 ADD PUSH0 DUP2 MSTORE PUSH1 0x20 ADD PUSH1 0x60 DUP2 MSTORE PUSH1 0x20 ADD PUSH0 DUP2 MSTORE POP SWAP1 JUMP JUMPDEST PUSH0 PUSH1 0x40 MLOAD SWAP1 POP SWAP1 JUMP JUMPDEST PUSH0 DUP1 REVERT JUMPDEST PUSH0 DUP1 REVERT JUMPDEST PUSH0 PUSH20 0xFFFFFFFFFFFFFFFFFFFFFFFFFFFFFFFFFFFFFFFF DUP3 AND SWAP1 POP SWAP2 SWAP1 POP JUMP JUMPDEST PUSH0 PUSH2 0x1730 DUP3 PUSH2 0x1707 JUMP JUMPDEST SWAP1 POP SWAP2 SWAP1 POP JUMP JUMPDEST PUSH2 0x1740 DUP2 PUSH2 0x1726 JUMP JUMPDEST DUP2 EQ PUSH2 0x174A JUMPI PUSH0 DUP1 REVERT JUMPDEST POP JUMP JUMPDEST PUSH0 DUP2 CALLDATALOAD SWAP1 POP PUSH2 0x175B DUP2 PUSH2 0x1737 JUMP JUMPDEST SWAP3 SWAP2 POP POP JUMP JUMPDEST PUSH0 PUSH1 0x20 DUP3 DUP5 SUB SLT ISZERO PUSH2 0x1776 JUMPI PUSH2 0x1775 PUSH2 0x16FF JUMP JUMPDEST JUMPDEST PUSH0 PUSH2 0x1783 DUP5 DUP3 DUP6 ADD PUSH2 0x174D JUMP JUMPDEST SWAP2 POP POP SWAP3 SWAP2 POP POP JUMP JUMPDEST PUSH0 DUP2 SWAP1 POP SWAP2 SWAP1 POP JUMP JUMPDEST PUSH2 0x179E DUP2 PUSH2 0x178C JUMP JUMPDEST DUP2 EQ PUSH2 0x17A8 JUMPI PUSH0 DUP1 REVERT JUMPDEST POP JUMP JUMPDEST PUSH0 DUP2 CALLDATALOAD SWAP1 POP PUSH2 0x17B9 DUP2 PUSH2 0x1795 JUMP JUMPDEST SWAP3 SWAP2 POP POP JUMP JUMPDEST PUSH0 PUSH1 0x20 DUP3 DUP5 SUB SLT ISZERO PUSH2 0x17D4 JUMPI PUSH2 0x17D3 PUSH2 0x16FF JUMP JUMPDEST JUMPDEST PUSH0 PUSH2 0x17E1 DUP5 DUP3 DUP6 ADD PUSH2 0x17AB JUMP JUMPDEST SWAP2 POP POP SWAP3 SWAP2 POP POP JUMP JUMPDEST PUSH0 DUP2 MLOAD SWAP1 POP SWAP2 SWAP1 POP JUMP JUMPDEST PUSH0 DUP3 DUP3 MSTORE PUSH1 0x20 DUP3 ADD SWAP1 POP SWAP3 SWAP2 POP POP JUMP JUMPDEST PUSH0 JUMPDEST DUP4 DUP2 LT ISZERO PUSH2 0x1821 JUMPI DUP1 DUP3 ADD MLOAD DUP2 DUP5 ADD MSTORE PUSH1 0x20 DUP2 ADD SWAP1 POP PUSH2 0x1806 JUMP JUMPDEST PUSH0 DUP5 DUP5 ADD MSTORE POP POP POP POP JUMP JUMPDEST PUSH0 PUSH1 0x1F NOT PUSH1 0x1F DUP4 ADD AND SWAP1 POP SWAP2 SWAP1 POP JUMP JUMPDEST PUSH0 PUSH2 0x1846 DUP3 PUSH2 0x17EA JUMP JUMPDEST PUSH2 0x1850 DUP2 DUP6 PUSH2 0x17F4 JUMP JUMPDEST SWAP4 POP PUSH2 0x1860 DUP2 DUP6 PUSH1 0x20 DUP7 ADD PUSH2 0x1804 JUMP JUMPDEST PUSH2 0x1869 DUP2 PUSH2 0x182C JUMP JUMPDEST DUP5 ADD SWAP2 POP POP SWAP3 SWAP2 POP POP JUMP JUMPDEST PUSH2 0x187D DUP2 PUSH2 0x178C JUMP JUMPDEST DUP3 MSTORE POP POP JUMP JUMPDEST PUSH0 PUSH1 0xE0 DUP3 ADD SWAP1 POP DUP2 DUP2 SUB PUSH0 DUP4 ADD MSTORE PUSH2 0x189B DUP2 DUP11 PUSH2 0x183C JUMP JUMPDEST SWAP1 POP DUP2 DUP2 SUB PUSH1 0x20 DUP4 ADD MSTORE PUSH2 0x18AF DUP2 DUP10 PUSH2 0x183C JUMP JUMPDEST SWAP1 POP DUP2 DUP2 SUB PUSH1 0x40 DUP4 ADD MSTORE PUSH2 0x18C3 DUP2 DUP9 PUSH2 0x183C JUMP JUMPDEST SWAP1 POP PUSH2 0x18D2 PUSH1 0x60 DUP4 ADD DUP8 PUSH2 0x1874 JUMP JUMPDEST PUSH2 0x18DF PUSH1 0x80 DUP4 ADD DUP7 PUSH2 0x1874 JUMP JUMPDEST DUP2 DUP2 SUB PUSH1 0xA0 DUP4 ADD MSTORE PUSH2 0x18F1 DUP2 DUP6 PUSH2 0x183C JUMP JUMPDEST SWAP1 POP PUSH2 0x1900 PUSH1 0xC0 DUP4 ADD DUP5 PUSH2 0x1874 JUMP JUMPDEST SWAP9 SWAP8 POP POP POP POP POP POP POP POP JUMP JUMPDEST PUSH0 DUP2 MLOAD SWAP1 POP SWAP2 SWAP1 POP JUMP JUMPDEST PUSH0 DUP3 DUP3 MSTORE PUSH1 0x20 DUP3 ADD SWAP1 POP SWAP3 SWAP2 POP POP JUMP JUMPDEST PUSH0 DUP2 SWAP1 POP PUSH1 0x20 DUP3 ADD SWAP1 POP SWAP2 SWAP1 POP JUMP JUMPDEST PUSH0 DUP3 DUP3 MSTORE PUSH1 0x20 DUP3 ADD SWAP1 POP SWAP3 SWAP2 POP POP JUMP JUMPDEST PUSH0 PUSH2 0x194F DUP3 PUSH2 0x17EA JUMP JUMPDEST PUSH2 0x1959 DUP2 DUP6 PUSH2 0x1935 JUMP JUMPDEST SWAP4 POP PUSH2 0x1969 DUP2 DUP6 PUSH1 0x20 DUP7 ADD PUSH2 0x1804 JUMP JUMPDEST PUSH2 0x1972 DUP2 PUSH2 0x182C JUMP JUMPDEST DUP5 ADD SWAP2 POP POP SWAP3 SWAP2 POP POP JUMP JUMPDEST PUSH2 0x1986 DUP2 PUSH2 0x178C JUMP JUMPDEST DUP3 MSTORE POP POP JUMP JUMPDEST PUSH0 PUSH1 0xE0 DUP4 ADD PUSH0 DUP4 ADD MLOAD DUP5 DUP3 SUB PUSH0 DUP7 ADD MSTORE PUSH2 0x19A6 DUP3 DUP3 PUSH2 0x1945 JUMP JUMPDEST SWAP2 POP POP PUSH1 0x20 DUP4 ADD MLOAD DUP5 DUP3 SUB PUSH1 0x20 DUP7 ADD MSTORE PUSH2 0x19C0 DUP3 DUP3 PUSH2 0x1945 JUMP JUMPDEST SWAP2 POP POP PUSH1 0x40 DUP4 ADD MLOAD DUP5 DUP3 SUB PUSH1 0x40 DUP7 ADD MSTORE PUSH2 0x19DA DUP3 DUP3 PUSH2 0x1945 JUMP JUMPDEST SWAP2 POP POP PUSH1 0x60 DUP4 ADD MLOAD PUSH2 0x19EF PUSH1 0x60 DUP7 ADD DUP3 PUSH2 0x197D JUMP JUMPDEST POP PUSH1 0x80 DUP4 ADD MLOAD PUSH2 0x1A02 PUSH1 0x80 DUP7 ADD DUP3 PUSH2 0x197D JUMP JUMPDEST POP PUSH1 0xA0 DUP4 ADD MLOAD DUP5 DUP3 SUB PUSH1 0xA0 DUP7 ADD MSTORE PUSH2 0x1A1A DUP3 DUP3 PUSH2 0x1945 JUMP JUMPDEST SWAP2 POP POP PUSH1 0xC0 DUP4 ADD MLOAD PUSH2 0x1A2F PUSH1 0xC0 DUP7 ADD DUP3 PUSH2 0x197D JUMP JUMPDEST POP DUP1 SWAP2 POP POP SWAP3 SWAP2 POP POP JUMP JUMPDEST PUSH0 PUSH2 0x1A45 DUP4 DUP4 PUSH2 0x198C JUMP JUMPDEST SWAP1 POP SWAP3 SWAP2 POP POP JUMP JUMPDEST PUSH0 PUSH1 0x20 DUP3 ADD SWAP1 POP SWAP2 SWAP1 POP JUMP JUMPDEST PUSH0 PUSH2 0x1A63 DUP3 PUSH2 0x190C JUMP JUMPDEST PUSH2 0x1A6D DUP2 DUP6 PUSH2 0x1916 JUMP JUMPDEST SWAP4 POP DUP4 PUSH1 0x20 DUP3 MUL DUP6 ADD PUSH2 0x1A7F DUP6 PUSH2 0x1926 JUMP JUMPDEST DUP1 PUSH0 JUMPDEST DUP6 DUP2 LT ISZERO PUSH2 0x1ABA JUMPI DUP5 DUP5 SUB DUP10 MSTORE DUP2 MLOAD PUSH2 0x1A9B DUP6 DUP3 PUSH2 0x1A3A JUMP JUMPDEST SWAP5 POP PUSH2 0x1AA6 DUP4 PUSH2 0x1A4D JUMP JUMPDEST SWAP3 POP PUSH1 0x20 DUP11 ADD SWAP10 POP POP PUSH1 0x1 DUP2 ADD SWAP1 POP PUSH2 0x1A82 JUMP JUMPDEST POP DUP3 SWAP8 POP DUP8 SWAP6 POP POP POP POP POP POP SWAP3 SWAP2 POP POP JUMP JUMPDEST PUSH0 PUSH1 0x20 DUP3 ADD SWAP1 POP DUP2 DUP2 SUB PUSH0 DUP4 ADD MSTORE PUSH2 0x1AE4 DUP2 DUP5 PUSH2 0x1A59 JUMP JUMPDEST SWAP1 POP SWAP3 SWAP2 POP POP JUMP JUMPDEST PUSH0 DUP1 REVERT JUMPDEST PUSH0 DUP1 REVERT JUMPDEST PUSH32 0x4E487B7100000000000000000000000000000000000000000000000000000000 PUSH0 MSTORE PUSH1 0x41 PUSH1 0x4 MSTORE PUSH1 0x24 PUSH0 REVERT JUMPDEST PUSH2 0x1B2A DUP3 PUSH2 0x182C JUMP JUMPDEST DUP2 ADD DUP2 DUP2 LT PUSH8 0xFFFFFFFFFFFFFFFF DUP3 GT OR ISZERO PUSH2 0x1B49 JUMPI PUSH2 0x1B48 PUSH2 0x1AF4 JUMP JUMPDEST JUMPDEST DUP1 PUSH1 0x40 MSTORE POP POP POP JUMP JUMPDEST PUSH0 PUSH2 0x1B5B PUSH2 0x16F6 JUMP JUMPDEST SWAP1 POP PUSH2 0x1B67 DUP3 DUP3 PUSH2 0x1B21 JUMP JUMPDEST SWAP2 SWAP1 POP JUMP JUMPDEST PUSH0 PUSH8 0xFFFFFFFFFFFFFFFF DUP3 GT ISZERO PUSH2 0x1B86 JUMPI PUSH2 0x1B85 PUSH2 0x1AF4 JUMP JUMPDEST JUMPDEST PUSH2 0x1B8F DUP3 PUSH2 0x182C JUMP JUMPDEST SWAP1 POP PUSH1 0x20 DUP2 ADD SWAP1 POP SWAP2 SWAP1 POP JUMP JUMPDEST DUP3 DUP2 DUP4 CALLDATACOPY PUSH0 DUP4 DUP4 ADD MSTORE POP POP POP JUMP JUMPDEST PUSH0 PUSH2 0x1BBC PUSH2 0x1BB7 DUP5 PUSH2 0x1B6C JUMP JUMPDEST PUSH2 0x1B52 JUMP JUMPDEST SWAP1 POP DUP3 DUP2 MSTORE PUSH1 0x20 DUP2 ADD DUP5 DUP5 DUP5 ADD GT ISZERO PUSH2 0x1BD8 JUMPI PUSH2 0x1BD7 PUSH2 0x1AF0 JUMP JUMPDEST JUMPDEST PUSH2 0x1BE3 DUP5 DUP3 DUP6 PUSH2 0x1B9C JUMP JUMPDEST POP SWAP4 SWAP3 POP POP POP JUMP JUMPDEST PUSH0 DUP3 PUSH1 0x1F DUP4 ADD SLT PUSH2 0x1BFF JUMPI PUSH2 0x1BFE PUSH2 0x1AEC JUMP JUMPDEST JUMPDEST DUP2 CALLDATALOAD PUSH2 0x1C0F DUP5 DUP3 PUSH1 0x20 DUP7 ADD PUSH2 0x1BAA JUMP JUMPDEST SWAP2 POP POP SWAP3 SWAP2 POP POP JUMP JUMPDEST PUSH0 DUP1 PUSH0 DUP1 PUSH0 DUP1 PUSH1 0xC0 DUP8 DUP10 SUB SLT ISZERO PUSH2 0x1C32 JUMPI PUSH2 0x1C31 PUSH2 0x16FF JUMP JUMPDEST JUMPDEST PUSH0 DUP8 ADD CALLDATALOAD PUSH8 0xFFFFFFFFFFFFFFFF DUP2 GT ISZERO PUSH2 0x1C4F JUMPI PUSH2 0x1C4E PUSH2 0x1703 JUMP JUMPDEST JUMPDEST PUSH2 0x1C5B DUP10 DUP3 DUP11 ADD PUSH2 0x1BEB JUMP JUMPDEST SWAP7 POP POP PUSH1 0x20 DUP8 ADD CALLDATALOAD PUSH8 0xFFFFFFFFFFFFFFFF DUP2 GT ISZERO PUSH2 0x1C7C JUMPI PUSH2 0x1C7B PUSH2 0x1703 JUMP JUMPDEST JUMPDEST PUSH2 0x1C88 DUP10 DUP3 DUP11 ADD PUSH2 0x1BEB JUMP JUMPDEST SWAP6 POP POP PUSH1 0x40 DUP8 ADD CALLDATALOAD PUSH8 0xFFFFFFFFFFFFFFFF DUP2 GT ISZERO PUSH2 0x1CA9 JUMPI PUSH2 0x1CA8 PUSH2 0x1703 JUMP JUMPDEST JUMPDEST PUSH2 0x1CB5 DUP10 DUP3 DUP11 ADD PUSH2 0x1BEB JUMP JUMPDEST SWAP5 POP POP PUSH1 0x60 PUSH2 0x1CC6 DUP10 DUP3 DUP11 ADD PUSH2 0x17AB JUMP JUMPDEST SWAP4 POP POP PUSH1 0x80 PUSH2 0x1CD7 DUP10 DUP3 DUP11 ADD PUSH2 0x17AB JUMP JUMPDEST SWAP3 POP POP PUSH1 0xA0 DUP8 ADD CALLDATALOAD PUSH8 0xFFFFFFFFFFFFFFFF DUP2 GT ISZERO PUSH2 0x1CF8 JUMPI PUSH2 0x1CF7 PUSH2 0x1703 JUMP JUMPDEST JUMPDEST PUSH2 0x1D04 DUP10 DUP3 DUP11 ADD PUSH2 0x1BEB JUMP JUMPDEST SWAP2 POP POP SWAP3 SWAP6 POP SWAP3 SWAP6 POP SWAP3 SWAP6 JUMP JUMPDEST PUSH0 PUSH1 0x20 DUP3 DUP5 SUB SLT ISZERO PUSH2 0x1D26 JUMPI PUSH2 0x1D25 PUSH2 0x16FF JUMP JUMPDEST JUMPDEST PUSH0 DUP3 ADD CALLDATALOAD PUSH8 0xFFFFFFFFFFFFFFFF DUP2 GT ISZERO PUSH2 0x1D43 JUMPI PUSH2 0x1D42 PUSH2 0x1703 JUMP JUMPDEST JUMPDEST PUSH2 0x1D4F DUP5 DUP3 DUP6 ADD PUSH2 0x1BEB JUMP JUMPDEST SWAP2 POP POP SWAP3 SWAP2 POP POP JUMP JUMPDEST PUSH0 DUP1 PUSH0 PUSH1 0x60 DUP5 DUP7 SUB SLT ISZERO PUSH2 0x1D6F JUMPI PUSH2 0x1D6E PUSH2 0x16FF JUMP JUMPDEST JUMPDEST PUSH0 DUP5 ADD CALLDATALOAD PUSH8 0xFFFFFFFFFFFFFFFF DUP2 GT ISZERO PUSH2 0x1D8C JUMPI PUSH2 0x1D8B PUSH2 0x1703 JUMP JUMPDEST JUMPDEST PUSH2 0x1D98 DUP7 DUP3 DUP8 ADD PUSH2 0x1BEB JUMP JUMPDEST SWAP4 POP POP PUSH1 0x20 DUP5 ADD CALLDATALOAD PUSH8 0xFFFFFFFFFFFFFFFF DUP2 GT ISZERO PUSH2 0x1DB9 JUMPI PUSH2 0x1DB8 PUSH2 0x1703 JUMP JUMPDEST JUMPDEST PUSH2 0x1DC5 DUP7 DUP3 DUP8 ADD PUSH2 0x1BEB JUMP JUMPDEST SWAP3 POP POP PUSH1 0x40 DUP5 ADD CALLDATALOAD PUSH8 0xFFFFFFFFFFFFFFFF DUP2 GT ISZERO PUSH2 0x1DE6 JUMPI PUSH2 0x1DE5 PUSH2 0x1703 JUMP JUMPDEST JUMPDEST PUSH2 0x1DF2 DUP7 DUP3 DUP8 ADD PUSH2 0x1BEB JUMP JUMPDEST SWAP2 POP POP SWAP3 POP SWAP3 POP SWAP3 JUMP JUMPDEST PUSH0 DUP2 ISZERO ISZERO SWAP1 POP SWAP2 SWAP1 POP JUMP JUMPDEST PUSH2 0x1E10 DUP2 PUSH2 0x1DFC JUMP JUMPDEST DUP3 MSTORE POP POP JUMP JUMPDEST PUSH0 PUSH1 0x20 DUP3 ADD SWAP1 POP PUSH2 0x1E29 PUSH0 DUP4 ADD DUP5 PUSH2 0x1E07 JUMP JUMPDEST SWAP3 SWAP2 POP POP JUMP JUMPDEST PUSH0 PUSH1 0x20 DUP3 ADD SWAP1 POP PUSH2 0x1E42 PUSH0 DUP4 ADD DUP5 PUSH2 0x1874 JUMP JUMPDEST SWAP3 SWAP2 POP POP JUMP JUMPDEST PUSH0 PUSH1 0xE0 DUP4 ADD PUSH0 DUP4 ADD MLOAD DUP5 DUP3 SUB PUSH0 DUP7 ADD MSTORE PUSH2 0x1E62 DUP3 DUP3 PUSH2 0x1945 JUMP JUMPDEST SWAP2 POP POP PUSH1 0x20 DUP4 ADD MLOAD DUP5 DUP3 SUB PUSH1 0x20 DUP7 ADD MSTORE PUSH2 0x1E7C DUP3 DUP3 PUSH2 0x1945 JUMP JUMPDEST SWAP2 POP POP PUSH1 0x40 DUP4 ADD MLOAD DUP5 DUP3 SUB PUSH1 0x40 DUP7 ADD MSTORE PUSH2 0x1E96 DUP3 DUP3 PUSH2 0x1945 JUMP JUMPDEST SWAP2 POP POP PUSH1 0x60 DUP4 ADD MLOAD PUSH2 0x1EAB PUSH1 0x60 DUP7 ADD DUP3 PUSH2 0x197D JUMP JUMPDEST POP PUSH1 0x80 DUP4 ADD MLOAD PUSH2 0x1EBE PUSH1 0x80 DUP7 ADD DUP3 PUSH2 0x197D JUMP JUMPDEST POP PUSH1 0xA0 DUP4 ADD MLOAD DUP5 DUP3 SUB PUSH1 0xA0 DUP7 ADD MSTORE PUSH2 0x1ED6 DUP3 DUP3 PUSH2 0x1945 JUMP JUMPDEST SWAP2 POP POP PUSH1 0xC0 DUP4 ADD MLOAD PUSH2 0x1EEB PUSH1 0xC0 DUP7 ADD DUP3 PUSH2 0x197D JUMP JUMPDEST POP DUP1 SWAP2 POP POP SWAP3 SWAP2 POP POP JUMP JUMPDEST PUSH0 PUSH1 0x20 DUP3 ADD SWAP1 POP DUP2 DUP2 SUB PUSH0 DUP4 ADD MSTORE PUSH2 0x1F0E DUP2 DUP5 PUSH2 0x1E48 JUMP JUMPDEST SWAP1 POP SWAP3 SWAP2 POP POP JUMP JUMPDEST PUSH32 0x4F6E6C79206465706C6F7965722063616E2063616C6C20746869732066756E63 PUSH0 DUP3 ADD MSTORE PUSH32 0x74696F6E00000000000000000000000000000000000000000000000000000000 PUSH1 0x20 DUP3 ADD MSTORE POP JUMP JUMPDEST PUSH0 PUSH2 0x1F70 PUSH1 0x24 DUP4 PUSH2 0x17F4 JUMP JUMPDEST SWAP2 POP PUSH2 0x1F7B DUP3 PUSH2 0x1F16 JUMP JUMPDEST PUSH1 0x40 DUP3 ADD SWAP1 POP SWAP2 SWAP1 POP JUMP JUMPDEST PUSH0 PUSH1 0x20 DUP3 ADD SWAP1 POP DUP2 DUP2 SUB PUSH0 DUP4 ADD MSTORE PUSH2 0x1F9D DUP2 PUSH2 0x1F64 JUMP JUMPDEST SWAP1 POP SWAP2 SWAP1 POP JUMP JUMPDEST PUSH32 0x4E487B7100000000000000000000000000000000000000000000000000000000 PUSH0 MSTORE PUSH1 0x22 PUSH1 0x4 MSTORE PUSH1 0x24 PUSH0 REVERT JUMPDEST PUSH0 PUSH1 0x2 DUP3 DIV SWAP1 POP PUSH1 0x1 DUP3 AND DUP1 PUSH2 0x1FE8 JUMPI PUSH1 0x7F DUP3 AND SWAP2 POP JUMPDEST PUSH1 0x20 DUP3 LT DUP2 SUB PUSH2 0x1FFB JUMPI PUSH2 0x1FFA PUSH2 0x1FA4 JUMP JUMPDEST JUMPDEST POP SWAP2 SWAP1 POP JUMP JUMPDEST PUSH32 0x4F6E6C792061646D696E2063616E2063616C6C20746869732066756E6374696F PUSH0 DUP3 ADD MSTORE PUSH32 0x6E00000000000000000000000000000000000000000000000000000000000000 PUSH1 0x20 DUP3 ADD MSTORE POP JUMP JUMPDEST PUSH0 PUSH2 0x205B PUSH1 0x21 DUP4 PUSH2 0x17F4 JUMP JUMPDEST SWAP2 POP PUSH2 0x2066 DUP3 PUSH2 0x2001 JUMP JUMPDEST PUSH1 0x40 DUP3 ADD SWAP1 POP SWAP2 SWAP1 POP JUMP JUMPDEST PUSH0 PUSH1 0x20 DUP3 ADD SWAP1 POP DUP2 DUP2 SUB PUSH0 DUP4 ADD MSTORE PUSH2 0x2088 DUP2 PUSH2 0x204F JUMP JUMPDEST SWAP1 POP SWAP2 SWAP1 POP JUMP JUMPDEST PUSH0 DUP1 REVERT JUMPDEST PUSH0 DUP1 REVERT JUMPDEST PUSH0 DUP2 MLOAD SWAP1 POP PUSH2 0x20A5 DUP2 PUSH2 0x1795 JUMP JUMPDEST SWAP3 SWAP2 POP POP JUMP JUMPDEST PUSH0 PUSH2 0x20BD PUSH2 0x20B8 DUP5 PUSH2 0x1B6C JUMP JUMPDEST PUSH2 0x1B52 JUMP JUMPDEST SWAP1 POP DUP3 DUP2 MSTORE PUSH1 0x20 DUP2 ADD DUP5 DUP5 DUP5 ADD GT ISZERO PUSH2 0x20D9 JUMPI PUSH2 0x20D8 PUSH2 0x1AF0 JUMP JUMPDEST JUMPDEST PUSH2 0x20E4 DUP5 DUP3 DUP6 PUSH2 0x1804 JUMP JUMPDEST POP SWAP4 SWAP3 POP POP POP JUMP JUMPDEST PUSH0 DUP3 PUSH1 0x1F DUP4 ADD SLT PUSH2 0x2100 JUMPI PUSH2 0x20FF PUSH2 0x1AEC JUMP JUMPDEST JUMPDEST DUP2 MLOAD PUSH2 0x2110 DUP5 DUP3 PUSH1 0x20 DUP7 ADD PUSH2 0x20AB JUMP JUMPDEST SWAP2 POP POP SWAP3 SWAP2 POP POP JUMP JUMPDEST PUSH2 0x2122 DUP2 PUSH2 0x1DFC JUMP JUMPDEST DUP2 EQ PUSH2 0x212C JUMPI PUSH0 DUP1 REVERT JUMPDEST POP JUMP JUMPDEST PUSH0 DUP2 MLOAD SWAP1 POP PUSH2 0x213D DUP2 PUSH2 0x2119 JUMP JUMPDEST SWAP3 SWAP2 POP POP JUMP JUMPDEST PUSH0 PUSH2 0x214D DUP3 PUSH2 0x1707 JUMP JUMPDEST SWAP1 POP SWAP2 SWAP1 POP JUMP JUMPDEST PUSH2 0x215D DUP2 PUSH2 0x2143 JUMP JUMPDEST DUP2 EQ PUSH2 0x2167 JUMPI PUSH0 DUP1 REVERT JUMPDEST POP JUMP JUMPDEST PUSH0 DUP2 MLOAD SWAP1 POP PUSH2 0x2178 DUP2 PUSH2 0x2154 JUMP JUMPDEST SWAP3 SWAP2 POP POP JUMP JUMPDEST PUSH0 PUSH2 0x120 DUP3 DUP5 SUB SLT ISZERO PUSH2 0x2194 JUMPI PUSH2 0x2193 PUSH2 0x208F JUMP JUMPDEST JUMPDEST PUSH2 0x219F PUSH2 0x120 PUSH2 0x1B52 JUMP JUMPDEST SWAP1 POP PUSH0 PUSH2 0x21AE DUP5 DUP3 DUP6 ADD PUSH2 0x2097 JUMP JUMPDEST PUSH0 DUP4 ADD MSTORE POP PUSH1 0x20 DUP3 ADD MLOAD PUSH8 0xFFFFFFFFFFFFFFFF DUP2 GT ISZERO PUSH2 0x21D1 JUMPI PUSH2 0x21D0 PUSH2 0x2093 JUMP JUMPDEST JUMPDEST PUSH2 0x21DD DUP5 DUP3 DUP6 ADD PUSH2 0x20EC JUMP JUMPDEST PUSH1 0x20 DUP4 ADD MSTORE POP PUSH1 0x40 DUP3 ADD MLOAD PUSH8 0xFFFFFFFFFFFFFFFF DUP2 GT ISZERO PUSH2 0x2201 JUMPI PUSH2 0x2200 PUSH2 0x2093 JUMP JUMPDEST JUMPDEST PUSH2 0x220D DUP5 DUP3 DUP6 ADD PUSH2 0x20EC JUMP JUMPDEST PUSH1 0x40 DUP4 ADD MSTORE POP PUSH1 0x60 PUSH2 0x2221 DUP5 DUP3 DUP6 ADD PUSH2 0x212F JUMP JUMPDEST PUSH1 0x60 DUP4 ADD MSTORE POP PUSH1 0x80 PUSH2 0x2235 DUP5 DUP3 DUP6 ADD PUSH2 0x2097 JUMP JUMPDEST PUSH1 0x80 DUP4 ADD MSTORE POP PUSH1 0xA0 DUP3 ADD MLOAD PUSH8 0xFFFFFFFFFFFFFFFF DUP2 GT ISZERO PUSH2 0x2259 JUMPI PUSH2 0x2258 PUSH2 0x2093 JUMP JUMPDEST JUMPDEST PUSH2 0x2265 DUP5 DUP3 DUP6 ADD PUSH2 0x20EC JUMP JUMPDEST PUSH1 0xA0 DUP4 ADD MSTORE POP PUSH1 0xC0 PUSH2 0x2279 DUP5 DUP3 DUP6 ADD PUSH2 0x216A JUMP JUMPDEST PUSH1 0xC0 DUP4 ADD MSTORE POP PUSH1 0xE0 DUP3 ADD MLOAD PUSH8 0xFFFFFFFFFFFFFFFF DUP2 GT ISZERO PUSH2 0x229D JUMPI PUSH2 0x229C PUSH2 0x2093 JUMP JUMPDEST JUMPDEST PUSH2 0x22A9 DUP5 DUP3 DUP6 ADD PUSH2 0x20EC JUMP JUMPDEST PUSH1 0xE0 DUP4 ADD MSTORE POP PUSH2 0x100 DUP3 ADD MLOAD PUSH8 0xFFFFFFFFFFFFFFFF DUP2 GT ISZERO PUSH2 0x22CE JUMPI PUSH2 0x22CD PUSH2 0x2093 JUMP JUMPDEST JUMPDEST PUSH2 0x22DA DUP5 DUP3 DUP6 ADD PUSH2 0x20EC JUMP JUMPDEST PUSH2 0x100 DUP4 ADD MSTORE POP SWAP3 SWAP2 POP POP JUMP JUMPDEST PUSH0 PUSH1 0x20 DUP3 DUP5 SUB SLT ISZERO PUSH2 0x22FC JUMPI PUSH2 0x22FB PUSH2 0x16FF JUMP JUMPDEST JUMPDEST PUSH0 DUP3 ADD MLOAD PUSH8 0xFFFFFFFFFFFFFFFF DUP2 GT ISZERO PUSH2 0x2319 JUMPI PUSH2 0x2318 PUSH2 0x1703 JUMP JUMPDEST JUMPDEST PUSH2 0x2325 DUP5 DUP3 DUP6 ADD PUSH2 0x217E JUMP JUMPDEST SWAP2 POP POP SWAP3 SWAP2 POP POP JUMP JUMPDEST PUSH32 0x5265717565737420686173206265656E206E6F7420617070726F766564000000 PUSH0 DUP3 ADD MSTORE POP JUMP JUMPDEST PUSH0 PUSH2 0x2362 PUSH1 0x1D DUP4 PUSH2 0x17F4 JUMP JUMPDEST SWAP2 POP PUSH2 0x236D DUP3 PUSH2 0x232E JUMP JUMPDEST PUSH1 0x20 DUP3 ADD SWAP1 POP SWAP2 SWAP1 POP JUMP JUMPDEST PUSH0 PUSH1 0x20 DUP3 ADD SWAP1 POP DUP2 DUP2 SUB PUSH0 DUP4 ADD MSTORE PUSH2 0x238F DUP2 PUSH2 0x2356 JUMP JUMPDEST SWAP1 POP SWAP2 SWAP1 POP JUMP JUMPDEST PUSH32 0x496E73756666696369656E742062616C616E636520696E2074686520636F6E74 PUSH0 DUP3 ADD MSTORE PUSH32 0x7261637400000000000000000000000000000000000000000000000000000000 PUSH1 0x20 DUP3 ADD MSTORE POP JUMP JUMPDEST PUSH0 PUSH2 0x23F0 PUSH1 0x24 DUP4 PUSH2 0x17F4 JUMP JUMPDEST SWAP2 POP PUSH2 0x23FB DUP3 PUSH2 0x2396 JUMP JUMPDEST PUSH1 0x40 DUP3 ADD SWAP1 POP SWAP2 SWAP1 POP JUMP JUMPDEST PUSH0 PUSH1 0x20 DUP3 ADD SWAP1 POP DUP2 DUP2 SUB PUSH0 DUP4 ADD MSTORE PUSH2 0x241D DUP2 PUSH2 0x23E4 JUMP JUMPDEST SWAP1 POP SWAP2 SWAP1 POP JUMP JUMPDEST PUSH0 DUP2 SWAP1 POP DUP2 PUSH0 MSTORE PUSH1 0x20 PUSH0 KECCAK256 SWAP1 POP SWAP2 SWAP1 POP JUMP JUMPDEST PUSH0 PUSH1 0x20 PUSH1 0x1F DUP4 ADD DIV SWAP1 POP SWAP2 SWAP1 POP JUMP JUMPDEST PUSH0 DUP3 DUP3 SHL SWAP1 POP SWAP3 SWAP2 POP POP JUMP JUMPDEST PUSH0 PUSH1 0x8 DUP4 MUL PUSH2 0x2480 PUSH32 0xFFFFFFFFFFFFFFFFFFFFFFFFFFFFFFFFFFFFFFFFFFFFFFFFFFFFFFFFFFFFFFFF DUP3 PUSH2 0x2445 JUMP JUMPDEST PUSH2 0x248A DUP7 DUP4 PUSH2 0x2445 JUMP JUMPDEST SWAP6 POP DUP1 NOT DUP5 AND SWAP4 POP DUP1 DUP7 AND DUP5 OR SWAP3 POP POP POP SWAP4 SWAP3 POP POP POP JUMP JUMPDEST PUSH0 DUP2 SWAP1 POP SWAP2 SWAP1 POP JUMP JUMPDEST PUSH0 PUSH2 0x24C5 PUSH2 0x24C0 PUSH2 0x24BB DUP5 PUSH2 0x178C JUMP JUMPDEST PUSH2 0x24A2 JUMP JUMPDEST PUSH2 0x178C JUMP JUMPDEST SWAP1 POP SWAP2 SWAP1 POP JUMP JUMPDEST PUSH0 DUP2 SWAP1 POP SWAP2 SWAP1 POP JUMP JUMPDEST PUSH2 0x24DE DUP4 PUSH2 0x24AB JUMP JUMPDEST PUSH2 0x24F2 PUSH2 0x24EA DUP3 PUSH2 0x24CC JUMP JUMPDEST DUP5 DUP5 SLOAD PUSH2 0x2451 JUMP JUMPDEST DUP3 SSTORE POP POP POP POP JUMP JUMPDEST PUSH0 SWAP1 JUMP JUMPDEST PUSH2 0x2506 PUSH2 0x24FA JUMP JUMPDEST PUSH2 0x2511 DUP2 DUP5 DUP5 PUSH2 0x24D5 JUMP JUMPDEST POP POP POP JUMP JUMPDEST JUMPDEST DUP2 DUP2 LT ISZERO PUSH2 0x2534 JUMPI PUSH2 0x2529 PUSH0 DUP3 PUSH2 0x24FE JUMP JUMPDEST PUSH1 0x1 DUP2 ADD SWAP1 POP PUSH2 0x2517 JUMP JUMPDEST POP POP JUMP JUMPDEST PUSH1 0x1F DUP3 GT ISZERO PUSH2 0x2579 JUMPI PUSH2 0x254A DUP2 PUSH2 0x2424 JUMP JUMPDEST PUSH2 0x2553 DUP5 PUSH2 0x2436 JUMP JUMPDEST DUP2 ADD PUSH1 0x20 DUP6 LT ISZERO PUSH2 0x2562 JUMPI DUP2 SWAP1 POP JUMPDEST PUSH2 0x2576 PUSH2 0x256E DUP6 PUSH2 0x2436 JUMP JUMPDEST DUP4 ADD DUP3 PUSH2 0x2516 JUMP JUMPDEST POP POP JUMPDEST POP POP POP JUMP JUMPDEST PUSH0 DUP3 DUP3 SHR SWAP1 POP SWAP3 SWAP2 POP POP JUMP JUMPDEST PUSH0 PUSH2 0x2599 PUSH0 NOT DUP5 PUSH1 0x8 MUL PUSH2 0x257E JUMP JUMPDEST NOT DUP1 DUP4 AND SWAP2 POP POP SWAP3 SWAP2 POP POP JUMP JUMPDEST PUSH0 PUSH2 0x25B1 DUP4 DUP4 PUSH2 0x258A JUMP JUMPDEST SWAP2 POP DUP3 PUSH1 0x2 MUL DUP3 OR SWAP1 POP SWAP3 SWAP2 POP POP JUMP JUMPDEST PUSH2 0x25CA DUP3 PUSH2 0x17EA JUMP JUMPDEST PUSH8 0xFFFFFFFFFFFFFFFF DUP2 GT ISZERO PUSH2 0x25E3 JUMPI PUSH2 0x25E2 PUSH2 0x1AF4 JUMP JUMPDEST JUMPDEST PUSH2 0x25ED DUP3 SLOAD PUSH2 0x1FD1 JUMP JUMPDEST PUSH2 0x25F8 DUP3 DUP3 DUP6 PUSH2 0x2538 JUMP JUMPDEST PUSH0 PUSH1 0x20 SWAP1 POP PUSH1 0x1F DUP4 GT PUSH1 0x1 DUP2 EQ PUSH2 0x2629 JUMPI PUSH0 DUP5 ISZERO PUSH2 0x2617 JUMPI DUP3 DUP8 ADD MLOAD SWAP1 POP JUMPDEST PUSH2 0x2621 DUP6 DUP3 PUSH2 0x25A6 JUMP JUMPDEST DUP7 SSTORE POP PUSH2 0x2688 JUMP JUMPDEST PUSH1 0x1F NOT DUP5 AND PUSH2 0x2637 DUP7 PUSH2 0x2424 JUMP JUMPDEST PUSH0 JUMPDEST DUP3 DUP2 LT ISZERO PUSH2 0x265E JUMPI DUP5 DUP10 ADD MLOAD DUP3 SSTORE PUSH1 0x1 DUP3 ADD SWAP2 POP PUSH1 0x20 DUP6 ADD SWAP5 POP PUSH1 0x20 DUP2 ADD SWAP1 POP PUSH2 0x2639 JUMP JUMPDEST DUP7 DUP4 LT ISZERO PUSH2 0x267B JUMPI DUP5 DUP10 ADD MLOAD PUSH2 0x2677 PUSH1 0x1F DUP10 AND DUP3 PUSH2 0x258A JUMP JUMPDEST DUP4 SSTORE POP JUMPDEST PUSH1 0x1 PUSH1 0x2 DUP9 MUL ADD DUP9 SSTORE POP POP POP JUMPDEST POP POP POP POP POP POP JUMP JUMPDEST PUSH0 PUSH1 0x20 DUP3 ADD SWAP1 POP DUP2 DUP2 SUB PUSH0 DUP4 ADD MSTORE PUSH2 0x26A8 DUP2 DUP5 PUSH2 0x183C JUMP JUMPDEST SWAP1 POP SWAP3 SWAP2 POP POP JUMP JUMPDEST PUSH0 PUSH8 0xFFFFFFFFFFFFFFFF DUP3 GT ISZERO PUSH2 0x26CA JUMPI PUSH2 0x26C9 PUSH2 0x1AF4 JUMP JUMPDEST JUMPDEST PUSH1 0x20 DUP3 MUL SWAP1 POP PUSH1 0x20 DUP2 ADD SWAP1 POP SWAP2 SWAP1 POP JUMP JUMPDEST PUSH0 DUP1 REVERT JUMPDEST PUSH0 DUP2 MLOAD SWAP1 POP PUSH2 0x26ED DUP2 PUSH2 0x1737 JUMP JUMPDEST SWAP3 SWAP2 POP POP JUMP JUMPDEST PUSH0 PUSH2 0x100 DUP3 DUP5 SUB SLT ISZERO PUSH2 0x2709 JUMPI PUSH2 0x2708 PUSH2 0x208F JUMP JUMPDEST JUMPDEST PUSH2 0x2714 PUSH2 0x100 PUSH2 0x1B52 JUMP JUMPDEST SWAP1 POP PUSH0 PUSH2 0x2723 DUP5 DUP3 DUP6 ADD PUSH2 0x2097 JUMP JUMPDEST PUSH0 DUP4 ADD MSTORE POP PUSH1 0x20 DUP3 ADD MLOAD PUSH8 0xFFFFFFFFFFFFFFFF DUP2 GT ISZERO PUSH2 0x2746 JUMPI PUSH2 0x2745 PUSH2 0x2093 JUMP JUMPDEST JUMPDEST PUSH2 0x2752 DUP5 DUP3 DUP6 ADD PUSH2 0x20EC JUMP JUMPDEST PUSH1 0x20 DUP4 ADD MSTORE POP PUSH1 0x40 DUP3 ADD MLOAD PUSH8 0xFFFFFFFFFFFFFFFF DUP2 GT ISZERO PUSH2 0x2776 JUMPI PUSH2 0x2775 PUSH2 0x2093 JUMP JUMPDEST JUMPDEST PUSH2 0x2782 DUP5 DUP3 DUP6 ADD PUSH2 0x20EC JUMP JUMPDEST PUSH1 0x40 DUP4 ADD MSTORE POP PUSH1 0x60 DUP3 ADD MLOAD PUSH8 0xFFFFFFFFFFFFFFFF DUP2 GT ISZERO PUSH2 0x27A6 JUMPI PUSH2 0x27A5 PUSH2 0x2093 JUMP JUMPDEST JUMPDEST PUSH2 0x27B2 DUP5 DUP3 DUP6 ADD PUSH2 0x20EC JUMP JUMPDEST PUSH1 0x60 DUP4 ADD MSTORE POP PUSH1 0x80 PUSH2 0x27C6 DUP5 DUP3 DUP6 ADD PUSH2 0x26DF JUMP JUMPDEST PUSH1 0x80 DUP4 ADD MSTORE POP PUSH1 0xA0 PUSH2 0x27DA DUP5 DUP3 DUP6 ADD PUSH2 0x2097 JUMP JUMPDEST PUSH1 0xA0 DUP4 ADD MSTORE POP PUSH1 0xC0 PUSH2 0x27EE DUP5 DUP3 DUP6 ADD PUSH2 0x212F JUMP JUMPDEST PUSH1 0xC0 DUP4 ADD MSTORE POP PUSH1 0xE0 DUP3 ADD MLOAD PUSH8 0xFFFFFFFFFFFFFFFF DUP2 GT ISZERO PUSH2 0x2812 JUMPI PUSH2 0x2811 PUSH2 0x2093 JUMP JUMPDEST JUMPDEST PUSH2 0x281E DUP5 DUP3 DUP6 ADD PUSH2 0x20EC JUMP JUMPDEST PUSH1 0xE0 DUP4 ADD MSTORE POP SWAP3 SWAP2 POP POP JUMP JUMPDEST PUSH0 PUSH2 0x283C PUSH2 0x2837 DUP5 PUSH2 0x26B0 JUMP JUMPDEST PUSH2 0x1B52 JUMP JUMPDEST SWAP1 POP DUP1 DUP4 DUP3 MSTORE PUSH1 0x20 DUP3 ADD SWAP1 POP PUSH1 0x20 DUP5 MUL DUP4 ADD DUP6 DUP2 GT ISZERO PUSH2 0x285F JUMPI PUSH2 0x285E PUSH2 0x26DB JUMP JUMPDEST JUMPDEST DUP4 JUMPDEST DUP2 DUP2 LT ISZERO PUSH2 0x28A6 JUMPI DUP1 MLOAD PUSH8 0xFFFFFFFFFFFFFFFF DUP2 GT ISZERO PUSH2 0x2884 JUMPI PUSH2 0x2883 PUSH2 0x1AEC JUMP JUMPDEST JUMPDEST DUP1 DUP7 ADD PUSH2 0x2891 DUP10 DUP3 PUSH2 0x26F3 JUMP JUMPDEST DUP6 MSTORE PUSH1 0x20 DUP6 ADD SWAP5 POP POP POP PUSH1 0x20 DUP2 ADD SWAP1 POP PUSH2 0x2861 JUMP JUMPDEST POP POP POP SWAP4 SWAP3 POP POP POP JUMP JUMPDEST PUSH0 DUP3 PUSH1 0x1F DUP4 ADD SLT PUSH2 0x28C4 JUMPI PUSH2 0x28C3 PUSH2 0x1AEC JUMP JUMPDEST JUMPDEST DUP2 MLOAD PUSH2 0x28D4 DUP5 DUP3 PUSH1 0x20 DUP7 ADD PUSH2 0x282A JUMP JUMPDEST SWAP2 POP POP SWAP3 SWAP2 POP POP JUMP JUMPDEST PUSH0 PUSH1 0x20 DUP3 DUP5 SUB SLT ISZERO PUSH2 0x28F2 JUMPI PUSH2 0x28F1 PUSH2 0x16FF JUMP JUMPDEST JUMPDEST PUSH0 DUP3 ADD MLOAD PUSH8 0xFFFFFFFFFFFFFFFF DUP2 GT ISZERO PUSH2 0x290F JUMPI PUSH2 0x290E PUSH2 0x1703 JUMP JUMPDEST JUMPDEST PUSH2 0x291B DUP5 DUP3 DUP6 ADD PUSH2 0x28B0 JUMP JUMPDEST SWAP2 POP POP SWAP3 SWAP2 POP POP JUMP JUMPDEST PUSH32 0x4E6F206861766520616E79207472616E73616374696F6E207768696368206361 PUSH0 DUP3 ADD MSTORE PUSH32 0x6E20726566756E64000000000000000000000000000000000000000000000000 PUSH1 0x20 DUP3 ADD MSTORE POP JUMP JUMPDEST PUSH0 PUSH2 0x297E PUSH1 0x28 DUP4 PUSH2 0x17F4 JUMP JUMPDEST SWAP2 POP PUSH2 0x2989 DUP3 PUSH2 0x2924 JUMP JUMPDEST PUSH1 0x40 DUP3 ADD SWAP1 POP SWAP2 SWAP1 POP JUMP JUMPDEST PUSH0 PUSH1 0x20 DUP3 ADD SWAP1 POP DUP2 DUP2 SUB PUSH0 DUP4 ADD MSTORE PUSH2 0x29AB DUP2 PUSH2 0x2972 JUMP JUMPDEST SWAP1 POP SWAP2 SWAP1 POP JUMP JUMPDEST PUSH32 0x4E487B7100000000000000000000000000000000000000000000000000000000 PUSH0 MSTORE PUSH1 0x32 PUSH1 0x4 MSTORE PUSH1 0x24 PUSH0 REVERT JUMPDEST PUSH0 DUP2 SWAP1 POP SWAP3 SWAP2 POP POP JUMP JUMPDEST PUSH0 PUSH2 0x29F3 DUP3 PUSH2 0x17EA JUMP JUMPDEST PUSH2 0x29FD DUP2 DUP6 PUSH2 0x29DF JUMP JUMPDEST SWAP4 POP PUSH2 0x2A0D DUP2 DUP6 PUSH1 0x20 DUP7 ADD PUSH2 0x1804 JUMP JUMPDEST DUP1 DUP5 ADD SWAP2 POP POP SWAP3 SWAP2 POP POP JUMP JUMPDEST PUSH0 PUSH2 0x2A24 DUP3 DUP5 PUSH2 0x29E9 JUMP JUMPDEST SWAP2 POP DUP2 SWAP1 POP SWAP3 SWAP2 POP POP JUMP JUMPDEST PUSH0 DUP2 SLOAD PUSH2 0x2A3B DUP2 PUSH2 0x1FD1 JUMP JUMPDEST PUSH2 0x2A45 DUP2 DUP7 PUSH2 0x29DF JUMP JUMPDEST SWAP5 POP PUSH1 0x1 DUP3 AND PUSH0 DUP2 EQ PUSH2 0x2A5F JUMPI PUSH1 0x1 DUP2 EQ PUSH2 0x2A74 JUMPI PUSH2 0x2AA6 JUMP JUMPDEST PUSH1 0xFF NOT DUP4 AND DUP7 MSTORE DUP2 ISZERO ISZERO DUP3 MUL DUP7 ADD SWAP4 POP PUSH2 0x2AA6 JUMP JUMPDEST PUSH2 0x2A7D DUP6 PUSH2 0x2424 JUMP JUMPDEST PUSH0 JUMPDEST DUP4 DUP2 LT ISZERO PUSH2 0x2A9E JUMPI DUP2 SLOAD DUP2 DUP10 ADD MSTORE PUSH1 0x1 DUP3 ADD SWAP2 POP PUSH1 0x20 DUP2 ADD SWAP1 POP PUSH2 0x2A7F JUMP JUMPDEST DUP4 DUP9 ADD SWAP6 POP POP POP JUMPDEST POP POP POP SWAP3 SWAP2 POP POP JUMP JUMPDEST PUSH0 PUSH2 0x2ABA DUP3 DUP5 PUSH2 0x2A2F JUMP JUMPDEST SWAP2 POP DUP2 SWAP1 POP SWAP3 SWAP2 POP POP JUMP JUMPDEST PUSH32 0x56616C7565206D75737420626520302E3030303220455448206F722061626F76 PUSH0 DUP3 ADD MSTORE PUSH32 0x6500000000000000000000000000000000000000000000000000000000000000 PUSH1 0x20 DUP3 ADD MSTORE POP JUMP JUMPDEST PUSH0 PUSH2 0x2B1F PUSH1 0x21 DUP4 PUSH2 0x17F4 JUMP JUMPDEST SWAP2 POP PUSH2 0x2B2A DUP3 PUSH2 0x2AC5 JUMP JUMPDEST PUSH1 0x40 DUP3 ADD SWAP1 POP SWAP2 SWAP1 POP JUMP JUMPDEST PUSH0 PUSH1 0x20 DUP3 ADD SWAP1 POP DUP2 DUP2 SUB PUSH0 DUP4 ADD MSTORE PUSH2 0x2B4C DUP2 PUSH2 0x2B13 JUMP JUMPDEST SWAP1 POP SWAP2 SWAP1 POP JUMP JUMPDEST PUSH32 0x4E487B7100000000000000000000000000000000000000000000000000000000 PUSH0 MSTORE PUSH1 0x11 PUSH1 0x4 MSTORE PUSH1 0x24 PUSH0 REVERT JUMPDEST PUSH0 PUSH2 0x2B8A DUP3 PUSH2 0x178C JUMP JUMPDEST SWAP2 POP PUSH2 0x2B95 DUP4 PUSH2 0x178C JUMP JUMPDEST SWAP3 POP DUP3 DUP3 ADD SWAP1 POP DUP1 DUP3 GT ISZERO PUSH2 0x2BAD JUMPI PUSH2 0x2BAC PUSH2 0x2B53 JUMP JUMPDEST JUMPDEST SWAP3 SWAP2 POP POP JUMP JUMPDEST PUSH0 DUP2 SLOAD PUSH2 0x2BBF DUP2 PUSH2 0x1FD1 JUMP JUMPDEST PUSH2 0x2BC9 DUP2 DUP7 PUSH2 0x17F4 JUMP JUMPDEST SWAP5 POP PUSH1 0x1 DUP3 AND PUSH0 DUP2 EQ PUSH2 0x2BE3 JUMPI PUSH1 0x1 DUP2 EQ PUSH2 0x2BF9 JUMPI PUSH2 0x2C2B JUMP JUMPDEST PUSH1 0xFF NOT DUP4 AND DUP7 MSTORE DUP2 ISZERO ISZERO PUSH1 0x20 MUL DUP7 ADD SWAP4 POP PUSH2 0x2C2B JUMP JUMPDEST PUSH2 0x2C02 DUP6 PUSH2 0x2424 JUMP JUMPDEST PUSH0 JUMPDEST DUP4 DUP2 LT ISZERO PUSH2 0x2C23 JUMPI DUP2 SLOAD DUP2 DUP10 ADD MSTORE PUSH1 0x1 DUP3 ADD SWAP2 POP PUSH1 0x20 DUP2 ADD SWAP1 POP PUSH2 0x2C04 JUMP JUMPDEST DUP1 DUP9 ADD SWAP6 POP POP POP JUMPDEST POP POP POP SWAP3 SWAP2 POP POP JUMP JUMPDEST PUSH2 0x2C3D DUP2 PUSH2 0x1726 JUMP JUMPDEST DUP3 MSTORE POP POP JUMP JUMPDEST PUSH0 PUSH1 0xE0 DUP3 ADD SWAP1 POP PUSH2 0x2C56 PUSH0 DUP4 ADD DUP11 PUSH2 0x1874 JUMP JUMPDEST DUP2 DUP2 SUB PUSH1 0x20 DUP4 ADD MSTORE PUSH2 0x2C68 DUP2 DUP10 PUSH2 0x183C JUMP JUMPDEST SWAP1 POP DUP2 DUP2 SUB PUSH1 0x40 DUP4 ADD MSTORE PUSH2 0x2C7C DUP2 DUP9 PUSH2 0x2BB3 JUMP JUMPDEST SWAP1 POP DUP2 DUP2 SUB PUSH1 0x60 DUP4 ADD MSTORE PUSH2 0x2C90 DUP2 DUP8 PUSH2 0x183C JUMP JUMPDEST SWAP1 POP PUSH2 0x2C9F PUSH1 0x80 DUP4 ADD DUP7 PUSH2 0x2C34 JUMP JUMPDEST PUSH2 0x2CAC PUSH1 0xA0 DUP4 ADD DUP6 PUSH2 0x1874 JUMP JUMPDEST DUP2 DUP2 SUB PUSH1 0xC0 DUP4 ADD MSTORE PUSH2 0x2CBE DUP2 DUP5 PUSH2 0x183C JUMP JUMPDEST SWAP1 POP SWAP9 SWAP8 POP POP POP POP POP POP POP POP JUMP JUMPDEST PUSH32 0x4E6F7420666F756E640000000000000000000000000000000000000000000000 PUSH0 DUP3 ADD MSTORE POP JUMP JUMPDEST PUSH0 PUSH2 0x2D00 PUSH1 0x9 DUP4 PUSH2 0x17F4 JUMP JUMPDEST SWAP2 POP PUSH2 0x2D0B DUP3 PUSH2 0x2CCC JUMP JUMPDEST PUSH1 0x20 DUP3 ADD SWAP1 POP SWAP2 SWAP1 POP JUMP JUMPDEST PUSH0 PUSH1 0x20 DUP3 ADD SWAP1 POP DUP2 DUP2 SUB PUSH0 DUP4 ADD MSTORE PUSH2 0x2D2D DUP2 PUSH2 0x2CF4 JUMP JUMPDEST SWAP1 POP SWAP2 SWAP1 POP JUMP JUMPDEST PUSH0 PUSH1 0x20 DUP3 ADD SWAP1 POP PUSH2 0x2D47 PUSH0 DUP4 ADD DUP5 PUSH2 0x2C34 JUMP JUMPDEST SWAP3 SWAP2 POP POP JUMP JUMPDEST PUSH0 PUSH1 0x20 DUP3 DUP5 SUB SLT ISZERO PUSH2 0x2D62 JUMPI PUSH2 0x2D61 PUSH2 0x16FF JUMP JUMPDEST JUMPDEST PUSH0 PUSH2 0x2D6F DUP5 DUP3 DUP6 ADD PUSH2 0x212F JUMP JUMPDEST SWAP2 POP POP SWAP3 SWAP2 POP POP JUMP JUMPDEST PUSH0 DUP2 SWAP1 POP SWAP2 SWAP1 POP JUMP JUMPDEST PUSH2 0x2D92 PUSH2 0x2D8D DUP3 PUSH2 0x178C JUMP JUMPDEST PUSH2 0x2D78 JUMP JUMPDEST DUP3 MSTORE POP POP JUMP JUMPDEST PUSH0 DUP2 PUSH1 0x60 SHL SWAP1 POP SWAP2 SWAP1 POP JUMP JUMPDEST PUSH0 PUSH2 0x2DAE DUP3 PUSH2 0x2D98 JUMP JUMPDEST SWAP1 POP SWAP2 SWAP1 POP JUMP JUMPDEST PUSH0 PUSH2 0x2DBF DUP3 PUSH2 0x2DA4 JUMP JUMPDEST SWAP1 POP SWAP2 SWAP1 POP JUMP JUMPDEST PUSH2 0x2DD7 PUSH2 0x2DD2 DUP3 PUSH2 0x1726 JUMP JUMPDEST PUSH2 0x2DB5 JUMP JUMPDEST DUP3 MSTORE POP POP JUMP JUMPDEST PUSH0 PUSH2 0x2DE8 DUP3 DUP7 PUSH2 0x2D81 JUMP JUMPDEST PUSH1 0x20 DUP3 ADD SWAP2 POP PUSH2 0x2DF8 DUP3 DUP6 PUSH2 0x2DC6 JUMP JUMPDEST PUSH1 0x14 DUP3 ADD SWAP2 POP PUSH2 0x2E08 DUP3 DUP5 PUSH2 0x2D81 JUMP JUMPDEST PUSH1 0x20 DUP3 ADD SWAP2 POP DUP2 SWAP1 POP SWAP5 SWAP4 POP POP POP POP JUMP INVALID LOG2 PUSH5 0x6970667358 0x22 SLT KECCAK256 RETURNDATASIZE 0xC6 PUSH24 0x194AC7B721BC6DBF153F7665CDCFC29387E47FCF0000B2C7 PUSH8 0xBD15F99964736F6C PUSH4 0x43000816 STOP CALLER "
    },
    "gasEstimates": {
      "creation": {
        "codeDepositCost": "2371000",
        "executionCost": "31813",
        "totalCost": "2402813"
      },
      "external": {
        "addNewCampaign(string,string,string,uint256,uint256,string)": "infinite",
        "campaignInfoArray(uint256)": "infinite",
        "donate(string,string,string)": "infinite",
        "generateUniqueNumber()": "infinite",
        "getAllCampaign()": "infinite",
        "getCampaignById(string)": "infinite",
        "isAdmin()": "infinite",
        "refundAllByCampaignId(string)": "infinite",
        "setAdminContractAddress(address)": "26995",
        "settransactionHistoryContractAddress(address)": "26885",
        "setwithdrawRequestContractAddress(address)": "26994",
        "withdraw(uint256)": "infinite"
      }
    },
    "methodIdentifiers": {
      "addNewCampaign(string,string,string,uint256,uint256,string)": "5e5503aa",
      "campaignInfoArray(uint256)": "057902be",
      "donate(string,string,string)": "8bf20649",
      "generateUniqueNumber()": "d819c635",
      "getAllCampaign()": "4ca079f2",
      "getCampaignById(string)": "e26034cd",
      "isAdmin()": "b6db75a0",
      "refundAllByCampaignId(string)": "79ee7bb2",
      "setAdminContractAddress(address)": "658918e0",
      "settransactionHistoryContractAddress(address)": "046e5a67",
      "setwithdrawRequestContractAddress(address)": "e6754938",
      "withdraw(uint256)": "2e1a7d4d"
    }
  },
  "abi": [
    {
      "inputs": [],
      "stateMutability": "nonpayable",
      "type": "constructor"
    },
    {
      "anonymous": false,
      "inputs": [
        {
          "indexed": false,
          "internalType": "string",
          "name": "id",
          "type": "string"
        },
        {
          "indexed": false,
          "internalType": "string",
          "name": "creatorId",
          "type": "string"
        },
        {
          "indexed": false,
          "internalType": "string",
          "name": "title",
          "type": "string"
        },
        {
          "indexed": false,
          "internalType": "uint256",
          "name": "currentValue",
          "type": "uint256"
        },
        {
          "indexed": false,
          "internalType": "uint256",
          "name": "targetValue",
          "type": "uint256"
        },
        {
          "indexed": false,
          "internalType": "string",
          "name": "endDate",
          "type": "string"
        }
      ],
      "name": "NewCampaignAdded",
      "type": "event"
    },
    {
      "anonymous": false,
      "inputs": [
        {
          "indexed": true,
          "internalType": "uint256",
          "name": "value",
          "type": "uint256"
        }
      ],
      "name": "ReturnTransactionId",
      "type": "event"
    },
    {
      "inputs": [
        {
          "internalType": "string",
          "name": "id",
          "type": "string"
        },
        {
          "internalType": "string",
          "name": "creatorId",
          "type": "string"
        },
        {
          "internalType": "string",
          "name": "title",
          "type": "string"
        },
        {
          "internalType": "uint256",
          "name": "currentValue",
          "type": "uint256"
        },
        {
          "internalType": "uint256",
          "name": "targetValue",
          "type": "uint256"
        },
        {
          "internalType": "string",
          "name": "endDate",
          "type": "string"
        }
      ],
      "name": "addNewCampaign",
      "outputs": [],
      "stateMutability": "nonpayable",
      "type": "function"
    },
    {
      "inputs": [
        {
          "internalType": "uint256",
          "name": "",
          "type": "uint256"
        }
      ],
      "name": "campaignInfoArray",
      "outputs": [
        {
          "internalType": "string",
          "name": "id",
          "type": "string"
        },
        {
          "internalType": "string",
          "name": "creatorId",
          "type": "string"
        },
        {
          "internalType": "string",
          "name": "title",
          "type": "string"
        },
        {
          "internalType": "uint256",
          "name": "currentValue",
          "type": "uint256"
        },
        {
          "internalType": "uint256",
          "name": "targetValue",
          "type": "uint256"
        },
        {
          "internalType": "string",
          "name": "endDate",
          "type": "string"
        },
        {
          "internalType": "uint256",
          "name": "donateCount",
          "type": "uint256"
        }
      ],
      "stateMutability": "view",
      "type": "function"
    },
    {
      "inputs": [
        {
          "internalType": "string",
          "name": "campaignId",
          "type": "string"
        },
        {
          "internalType": "string",
          "name": "donatorId",
          "type": "string"
        },
        {
          "internalType": "string",
          "name": "time",
          "type": "string"
        }
      ],
      "name": "donate",
      "outputs": [],
      "stateMutability": "payable",
      "type": "function"
    },
    {
      "inputs": [],
      "name": "generateUniqueNumber",
      "outputs": [
        {
          "internalType": "uint256",
          "name": "",
          "type": "uint256"
        }
      ],
      "stateMutability": "view",
      "type": "function"
    },
    {
      "inputs": [],
      "name": "getAllCampaign",
      "outputs": [
        {
          "components": [
            {
              "internalType": "string",
              "name": "id",
              "type": "string"
            },
            {
              "internalType": "string",
              "name": "creatorId",
              "type": "string"
            },
            {
              "internalType": "string",
              "name": "title",
              "type": "string"
            },
            {
              "internalType": "uint256",
              "name": "currentValue",
              "type": "uint256"
            },
            {
              "internalType": "uint256",
              "name": "targetValue",
              "type": "uint256"
            },
            {
              "internalType": "string",
              "name": "endDate",
              "type": "string"
            },
            {
              "internalType": "uint256",
              "name": "donateCount",
              "type": "uint256"
            }
          ],
          "internalType": "struct Campaign.CampaignInfo[]",
          "name": "",
          "type": "tuple[]"
        }
      ],
      "stateMutability": "view",
      "type": "function"
    },
    {
      "inputs": [
        {
          "internalType": "string",
          "name": "id",
          "type": "string"
        }
      ],
      "name": "getCampaignById",
      "outputs": [
        {
          "components": [
            {
              "internalType": "string",
              "name": "id",
              "type": "string"
            },
            {
              "internalType": "string",
              "name": "creatorId",
              "type": "string"
            },
            {
              "internalType": "string",
              "name": "title",
              "type": "string"
            },
            {
              "internalType": "uint256",
              "name": "currentValue",
              "type": "uint256"
            },
            {
              "internalType": "uint256",
              "name": "targetValue",
              "type": "uint256"
            },
            {
              "internalType": "string",
              "name": "endDate",
              "type": "string"
            },
            {
              "internalType": "uint256",
              "name": "donateCount",
              "type": "uint256"
            }
          ],
          "internalType": "struct Campaign.CampaignInfo",
          "name": "",
          "type": "tuple"
        }
      ],
      "stateMutability": "view",
      "type": "function"
    },
    {
      "inputs": [],
      "name": "isAdmin",
      "outputs": [
        {
          "internalType": "bool",
          "name": "",
          "type": "bool"
        }
      ],
      "stateMutability": "view",
      "type": "function"
    },
    {
      "inputs": [
        {
          "internalType": "string",
          "name": "_campaignId",
          "type": "string"
        }
      ],
      "name": "refundAllByCampaignId",
      "outputs": [],
      "stateMutability": "nonpayable",
      "type": "function"
    },
    {
      "inputs": [
        {
          "internalType": "address",
          "name": "_adminContractAddress",
          "type": "address"
        }
      ],
      "name": "setAdminContractAddress",
      "outputs": [],
      "stateMutability": "nonpayable",
      "type": "function"
    },
    {
      "inputs": [
        {
          "internalType": "address",
          "name": "_transactionHistoryContractAddress",
          "type": "address"
        }
      ],
      "name": "settransactionHistoryContractAddress",
      "outputs": [],
      "stateMutability": "nonpayable",
      "type": "function"
    },
    {
      "inputs": [
        {
          "internalType": "address",
          "name": "_withdrawRequestContractAddress",
          "type": "address"
        }
      ],
      "name": "setwithdrawRequestContractAddress",
      "outputs": [],
      "stateMutability": "nonpayable",
      "type": "function"
    },
    {
      "inputs": [
        {
          "internalType": "uint256",
          "name": "_withdrawRequestId",
          "type": "uint256"
        }
      ],
      "name": "withdraw",
      "outputs": [],
      "stateMutability": "nonpayable",
      "type": "function"
    }
  ]
}