{
  "data": {
    "bytecode": {
      "linkReferences": {},
      "object": "60806040527340754e2791327413ed31812085de3890cc743c3b5f806101000a81548173ffffffffffffffffffffffffffffffffffffffff021916908373ffffffffffffffffffffffffffffffffffffffff160217905550348015610062575f80fd5b5061234b806100705f395ff3fe60806040526004361061007a575f3560e01c80638bf206491161004d5780638bf206491461013a5780639aeeb85614610156578063af393b1e1461017e578063e26034cd146101a65761007a565b8063057902be1461007e5780632e1a7d4d146100c05780634ca079f2146100e85780635e5503aa14610112575b5f80fd5b348015610089575f80fd5b506100a4600480360381019061009f91906111fb565b6101e2565b6040516100b797969594939291906112bf565b60405180910390f35b3480156100cb575f80fd5b506100e660048036038101906100e191906111fb565b610447565b005b3480156100f3575f80fd5b506100fc610655565b6040516101099190611508565b60405180910390f35b34801561011d575f80fd5b5061013860048036038101906101339190611654565b61090e565b005b610154600480360381019061014f919061174d565b610a8c565b005b348015610161575f80fd5b5061017c6004803603810190610177919061184b565b610c74565b005b348015610189575f80fd5b506101a4600480360381019061019f919061184b565b610d44565b005b3480156101b1575f80fd5b506101cc60048036038101906101c79190611876565b610e14565b6040516101d9919061196b565b60405180910390f35b600381815481106101f1575f80fd5b905f5260205f2090600702015f91509050805f018054610210906119b8565b80601f016020809104026020016040519081016040528092919081815260200182805461023c906119b8565b80156102875780601f1061025e57610100808354040283529160200191610287565b820191905f5260205f20905b81548152906001019060200180831161026a57829003601f168201915b50505050509080600101805461029c906119b8565b80601f01602080910402602001604051908101604052809291908181526020018280546102c8906119b8565b80156103135780601f106102ea57610100808354040283529160200191610313565b820191905f5260205f20905b8154815290600101906020018083116102f657829003601f168201915b505050505090806002018054610328906119b8565b80601f0160208091040260200160405190810160405280929190818152602001828054610354906119b8565b801561039f5780601f106103765761010080835404028352916020019161039f565b820191905f5260205f20905b81548152906001019060200180831161038257829003601f168201915b5050505050908060030154908060040154908060050180546103c0906119b8565b80601f01602080910402602001604051908101604052809291908181526020018280546103ec906119b8565b80156104375780601f1061040e57610100808354040283529160200191610437565b820191905f5260205f20905b81548152906001019060200180831161041a57829003601f168201915b5050505050908060060154905087565b5f8054906101000a900473ffffffffffffffffffffffffffffffffffffffff1673ffffffffffffffffffffffffffffffffffffffff163373ffffffffffffffffffffffffffffffffffffffff16146104d4576040517f08c379a00000000000000000000000000000000000000000000000000000000081526004016104cb90611a58565b60405180910390fd5b5f60025f9054906101000a900473ffffffffffffffffffffffffffffffffffffffff1673ffffffffffffffffffffffffffffffffffffffff1663d93cb236836040518263ffffffff1660e01b815260040161052f9190611a76565b5f60405180830381865afa158015610549573d5f803e3d5ffd5b505050506040513d5f823e3d601f19601f820116820180604052508101906105719190611c8e565b90506001151581606001511515146105be576040517f08c379a00000000000000000000000000000000000000000000000000000000081526004016105b590611d1f565b60405180910390fd5b8060800151471015610605576040517f08c379a00000000000000000000000000000000000000000000000000000000081526004016105fc90611dad565b60405180910390fd5b8060c0015173ffffffffffffffffffffffffffffffffffffffff166108fc826080015190811502906040515f60405180830381858888f19350505050158015610650573d5f803e3d5ffd5b505050565b60606003805480602002602001604051908101604052809291908181526020015f905b82821015610905578382905f5260205f2090600702016040518060e00160405290815f820180546106a8906119b8565b80601f01602080910402602001604051908101604052809291908181526020018280546106d4906119b8565b801561071f5780601f106106f65761010080835404028352916020019161071f565b820191905f5260205f20905b81548152906001019060200180831161070257829003601f168201915b50505050508152602001600182018054610738906119b8565b80601f0160208091040260200160405190810160405280929190818152602001828054610764906119b8565b80156107af5780601f10610786576101008083540402835291602001916107af565b820191905f5260205f20905b81548152906001019060200180831161079257829003601f168201915b505050505081526020016002820180546107c8906119b8565b80601f01602080910402602001604051908101604052809291908181526020018280546107f4906119b8565b801561083f5780601f106108165761010080835404028352916020019161083f565b820191905f5260205f20905b81548152906001019060200180831161082257829003601f168201915b50505050508152602001600382015481526020016004820154815260200160058201805461086c906119b8565b80601f0160208091040260200160405190810160405280929190818152602001828054610898906119b8565b80156108e35780601f106108ba576101008083540402835291602001916108e3565b820191905f5260205f20905b8154815290600101906020018083116108c657829003601f168201915b5050505050815260200160068201548152505081526020019060010190610678565b50505050905090565b5f8054906101000a900473ffffffffffffffffffffffffffffffffffffffff1673ffffffffffffffffffffffffffffffffffffffff163373ffffffffffffffffffffffffffffffffffffffff161461099b576040517f08c379a000000000000000000000000000000000000000000000000000000000815260040161099290611a58565b60405180910390fd5b6109a361117d565b86815f01819052508581602001819052508481604001819052508281608001818152505083816060018181525050818160a001819052505f8160c0018181525050600381908060018154018082558091505060019003905f5260205f2090600702015f909190919091505f820151815f019081610a209190611f68565b506020820151816001019081610a369190611f68565b506040820151816002019081610a4c9190611f68565b50606082015181600301556080820151816004015560a0820151816005019081610a769190611f68565b5060c08201518160060155505050505050505050565b65b5e620f48000341015610ad5576040517f08c379a0000000000000000000000000000000000000000000000000000000008152600401610acc906120a7565b60405180910390fd5b5f5b600380549050811015610c335783604051602001610af591906120ff565b6040516020818303038152906040528051906020012060038281548110610b1f57610b1e612115565b5b905f5260205f2090600702015f01604051602001610b3d91906121c2565b6040516020818303038152906040528051906020012003610c26573460038281548110610b6d57610b6c612115565b5b905f5260205f2090600702016003015f828254610b8a9190612205565b9250508190555060015f9054906101000a900473ffffffffffffffffffffffffffffffffffffffff1673ffffffffffffffffffffffffffffffffffffffff1663ca44981185853334876040518663ffffffff1660e01b8152600401610bf3959493929190612247565b5f604051808303815f87803b158015610c0a575f80fd5b505af1158015610c1c573d5f803e3d5ffd5b5050505050610c6f565b8080600101915050610ad7565b506040517f08c379a0000000000000000000000000000000000000000000000000000000008152600401610c66906122f7565b60405180910390fd5b505050565b5f8054906101000a900473ffffffffffffffffffffffffffffffffffffffff1673ffffffffffffffffffffffffffffffffffffffff163373ffffffffffffffffffffffffffffffffffffffff1614610d01576040517f08c379a0000000000000000000000000000000000000000000000000000000008152600401610cf890611a58565b60405180910390fd5b8060025f6101000a81548173ffffffffffffffffffffffffffffffffffffffff021916908373ffffffffffffffffffffffffffffffffffffffff16021790555050565b5f8054906101000a900473ffffffffffffffffffffffffffffffffffffffff1673ffffffffffffffffffffffffffffffffffffffff163373ffffffffffffffffffffffffffffffffffffffff1614610dd1576040517f08c379a0000000000000000000000000000000000000000000000000000000008152600401610dc890611a58565b60405180910390fd5b8060015f6101000a81548173ffffffffffffffffffffffffffffffffffffffff021916908373ffffffffffffffffffffffffffffffffffffffff16021790555050565b610e1c61117d565b5f5b60038054905081101561113c5782604051602001610e3c91906120ff565b6040516020818303038152906040528051906020012060038281548110610e6657610e65612115565b5b905f5260205f2090600702015f01604051602001610e8491906121c2565b604051602081830303815290604052805190602001200361112f5760038181548110610eb357610eb2612115565b5b905f5260205f2090600702016040518060e00160405290815f82018054610ed9906119b8565b80601f0160208091040260200160405190810160405280929190818152602001828054610f05906119b8565b8015610f505780601f10610f2757610100808354040283529160200191610f50565b820191905f5260205f20905b815481529060010190602001808311610f3357829003601f168201915b50505050508152602001600182018054610f69906119b8565b80601f0160208091040260200160405190810160405280929190818152602001828054610f95906119b8565b8015610fe05780601f10610fb757610100808354040283529160200191610fe0565b820191905f5260205f20905b815481529060010190602001808311610fc357829003601f168201915b50505050508152602001600282018054610ff9906119b8565b80601f0160208091040260200160405190810160405280929190818152602001828054611025906119b8565b80156110705780601f1061104757610100808354040283529160200191611070565b820191905f5260205f20905b81548152906001019060200180831161105357829003601f168201915b50505050508152602001600382015481526020016004820154815260200160058201805461109d906119b8565b80601f01602080910402602001604051908101604052809291908181526020018280546110c9906119b8565b80156111145780601f106110eb57610100808354040283529160200191611114565b820191905f5260205f20905b8154815290600101906020018083116110f757829003601f168201915b50505050508152602001600682015481525050915050611178565b8080600101915050610e1e565b506040517f08c379a000000000000000000000000000000000000000000000000000000000815260040161116f906122f7565b60405180910390fd5b919050565b6040518060e001604052806060815260200160608152602001606081526020015f81526020015f8152602001606081526020015f81525090565b5f604051905090565b5f80fd5b5f80fd5b5f819050919050565b6111da816111c8565b81146111e4575f80fd5b50565b5f813590506111f5816111d1565b92915050565b5f602082840312156112105761120f6111c0565b5b5f61121d848285016111e7565b91505092915050565b5f81519050919050565b5f82825260208201905092915050565b5f5b8381101561125d578082015181840152602081019050611242565b5f8484015250505050565b5f601f19601f8301169050919050565b5f61128282611226565b61128c8185611230565b935061129c818560208601611240565b6112a581611268565b840191505092915050565b6112b9816111c8565b82525050565b5f60e0820190508181035f8301526112d7818a611278565b905081810360208301526112eb8189611278565b905081810360408301526112ff8188611278565b905061130e60608301876112b0565b61131b60808301866112b0565b81810360a083015261132d8185611278565b905061133c60c08301846112b0565b98975050505050505050565b5f81519050919050565b5f82825260208201905092915050565b5f819050602082019050919050565b5f82825260208201905092915050565b5f61138b82611226565b6113958185611371565b93506113a5818560208601611240565b6113ae81611268565b840191505092915050565b6113c2816111c8565b82525050565b5f60e083015f8301518482035f8601526113e28282611381565b915050602083015184820360208601526113fc8282611381565b915050604083015184820360408601526114168282611381565b915050606083015161142b60608601826113b9565b50608083015161143e60808601826113b9565b5060a083015184820360a08601526114568282611381565b91505060c083015161146b60c08601826113b9565b508091505092915050565b5f61148183836113c8565b905092915050565b5f602082019050919050565b5f61149f82611348565b6114a98185611352565b9350836020820285016114bb85611362565b805f5b858110156114f657848403895281516114d78582611476565b94506114e283611489565b925060208a019950506001810190506114be565b50829750879550505050505092915050565b5f6020820190508181035f8301526115208184611495565b905092915050565b5f80fd5b5f80fd5b7f4e487b71000000000000000000000000000000000000000000000000000000005f52604160045260245ffd5b61156682611268565b810181811067ffffffffffffffff8211171561158557611584611530565b5b80604052505050565b5f6115976111b7565b90506115a3828261155d565b919050565b5f67ffffffffffffffff8211156115c2576115c1611530565b5b6115cb82611268565b9050602081019050919050565b828183375f83830152505050565b5f6115f86115f3846115a8565b61158e565b9050828152602081018484840111156116145761161361152c565b5b61161f8482856115d8565b509392505050565b5f82601f83011261163b5761163a611528565b5b813561164b8482602086016115e6565b91505092915050565b5f805f805f8060c0878903121561166e5761166d6111c0565b5b5f87013567ffffffffffffffff81111561168b5761168a6111c4565b5b61169789828a01611627565b965050602087013567ffffffffffffffff8111156116b8576116b76111c4565b5b6116c489828a01611627565b955050604087013567ffffffffffffffff8111156116e5576116e46111c4565b5b6116f189828a01611627565b945050606061170289828a016111e7565b935050608061171389828a016111e7565b92505060a087013567ffffffffffffffff811115611734576117336111c4565b5b61174089828a01611627565b9150509295509295509295565b5f805f60608486031215611764576117636111c0565b5b5f84013567ffffffffffffffff811115611781576117806111c4565b5b61178d86828701611627565b935050602084013567ffffffffffffffff8111156117ae576117ad6111c4565b5b6117ba86828701611627565b925050604084013567ffffffffffffffff8111156117db576117da6111c4565b5b6117e786828701611627565b9150509250925092565b5f73ffffffffffffffffffffffffffffffffffffffff82169050919050565b5f61181a826117f1565b9050919050565b61182a81611810565b8114611834575f80fd5b50565b5f8135905061184581611821565b92915050565b5f602082840312156118605761185f6111c0565b5b5f61186d84828501611837565b91505092915050565b5f6020828403121561188b5761188a6111c0565b5b5f82013567ffffffffffffffff8111156118a8576118a76111c4565b5b6118b484828501611627565b91505092915050565b5f60e083015f8301518482035f8601526118d78282611381565b915050602083015184820360208601526118f18282611381565b9150506040830151848203604086015261190b8282611381565b915050606083015161192060608601826113b9565b50608083015161193360808601826113b9565b5060a083015184820360a086015261194b8282611381565b91505060c083015161196060c08601826113b9565b508091505092915050565b5f6020820190508181035f83015261198381846118bd565b905092915050565b7f4e487b71000000000000000000000000000000000000000000000000000000005f52602260045260245ffd5b5f60028204905060018216806119cf57607f821691505b6020821081036119e2576119e161198b565b5b50919050565b7f4f6e6c792061646d696e2063616e2063616c6c20746869732066756e6374696f5f8201527f6e00000000000000000000000000000000000000000000000000000000000000602082015250565b5f611a42602183611230565b9150611a4d826119e8565b604082019050919050565b5f6020820190508181035f830152611a6f81611a36565b9050919050565b5f602082019050611a895f8301846112b0565b92915050565b5f80fd5b5f80fd5b5f81519050611aa5816111d1565b92915050565b5f611abd611ab8846115a8565b61158e565b905082815260208101848484011115611ad957611ad861152c565b5b611ae4848285611240565b509392505050565b5f82601f830112611b0057611aff611528565b5b8151611b10848260208601611aab565b91505092915050565b5f8115159050919050565b611b2d81611b19565b8114611b37575f80fd5b50565b5f81519050611b4881611b24565b92915050565b5f611b58826117f1565b9050919050565b611b6881611b4e565b8114611b72575f80fd5b50565b5f81519050611b8381611b5f565b92915050565b5f60e08284031215611b9e57611b9d611a8f565b5b611ba860e061158e565b90505f611bb784828501611a97565b5f83015250602082015167ffffffffffffffff811115611bda57611bd9611a93565b5b611be684828501611aec565b602083015250604082015167ffffffffffffffff811115611c0a57611c09611a93565b5b611c1684828501611aec565b6040830152506060611c2a84828501611b3a565b6060830152506080611c3e84828501611a97565b60808301525060a082015167ffffffffffffffff811115611c6257611c61611a93565b5b611c6e84828501611aec565b60a08301525060c0611c8284828501611b75565b60c08301525092915050565b5f60208284031215611ca357611ca26111c0565b5b5f82015167ffffffffffffffff811115611cc057611cbf6111c4565b5b611ccc84828501611b89565b91505092915050565b7f5265717565737420686173206265656e206e6f7420617070726f7665640000005f82015250565b5f611d09601d83611230565b9150611d1482611cd5565b602082019050919050565b5f6020820190508181035f830152611d3681611cfd565b9050919050565b7f496e73756666696369656e742062616c616e636520696e2074686520636f6e745f8201527f7261637400000000000000000000000000000000000000000000000000000000602082015250565b5f611d97602483611230565b9150611da282611d3d565b604082019050919050565b5f6020820190508181035f830152611dc481611d8b565b9050919050565b5f819050815f5260205f209050919050565b5f6020601f8301049050919050565b5f82821b905092915050565b5f60088302611e277fffffffffffffffffffffffffffffffffffffffffffffffffffffffffffffffff82611dec565b611e318683611dec565b95508019841693508086168417925050509392505050565b5f819050919050565b5f611e6c611e67611e62846111c8565b611e49565b6111c8565b9050919050565b5f819050919050565b611e8583611e52565b611e99611e9182611e73565b848454611df8565b825550505050565b5f90565b611ead611ea1565b611eb8818484611e7c565b505050565b5b81811015611edb57611ed05f82611ea5565b600181019050611ebe565b5050565b601f821115611f2057611ef181611dcb565b611efa84611ddd565b81016020851015611f09578190505b611f1d611f1585611ddd565b830182611ebd565b50505b505050565b5f82821c905092915050565b5f611f405f1984600802611f25565b1980831691505092915050565b5f611f588383611f31565b9150826002028217905092915050565b611f7182611226565b67ffffffffffffffff811115611f8a57611f89611530565b5b611f9482546119b8565b611f9f828285611edf565b5f60209050601f831160018114611fd0575f8415611fbe578287015190505b611fc88582611f4d565b86555061202f565b601f198416611fde86611dcb565b5f5b8281101561200557848901518255600182019150602085019450602081019050611fe0565b86831015612022578489015161201e601f891682611f31565b8355505b6001600288020188555050505b505050505050565b7f56616c7565206d75737420626520302e3030303220455448206f722061626f765f8201527f6500000000000000000000000000000000000000000000000000000000000000602082015250565b5f612091602183611230565b915061209c82612037565b604082019050919050565b5f6020820190508181035f8301526120be81612085565b9050919050565b5f81905092915050565b5f6120d982611226565b6120e381856120c5565b93506120f3818560208601611240565b80840191505092915050565b5f61210a82846120cf565b915081905092915050565b7f4e487b71000000000000000000000000000000000000000000000000000000005f52603260045260245ffd5b5f815461214e816119b8565b61215881866120c5565b9450600182165f81146121725760018114612187576121b9565b60ff19831686528115158202860193506121b9565b61219085611dcb565b5f5b838110156121b157815481890152600182019150602081019050612192565b838801955050505b50505092915050565b5f6121cd8284612142565b915081905092915050565b7f4e487b71000000000000000000000000000000000000000000000000000000005f52601160045260245ffd5b5f61220f826111c8565b915061221a836111c8565b9250828201905080821115612232576122316121d8565b5b92915050565b61224181611810565b82525050565b5f60a0820190508181035f83015261225f8188611278565b905081810360208301526122738187611278565b90506122826040830186612238565b61228f60608301856112b0565b81810360808301526122a18184611278565b90509695505050505050565b7f4e6f7420666f756e6400000000000000000000000000000000000000000000005f82015250565b5f6122e1600983611230565b91506122ec826122ad565b602082019050919050565b5f6020820190508181035f83015261230e816122d5565b905091905056fea2646970667358221220acba098c58c56fd4a273215af2daab76167f057ae0aa74d41fd947239e90f0bd64736f6c63430008160033",
      "opcodes": "PUSH1 0x80 PUSH1 0x40 MSTORE PUSH20 0x40754E2791327413ED31812085DE3890CC743C3B PUSH0 DUP1 PUSH2 0x100 EXP DUP2 SLOAD DUP2 PUSH20 0xFFFFFFFFFFFFFFFFFFFFFFFFFFFFFFFFFFFFFFFF MUL NOT AND SWAP1 DUP4 PUSH20 0xFFFFFFFFFFFFFFFFFFFFFFFFFFFFFFFFFFFFFFFF AND MUL OR SWAP1 SSTORE POP CALLVALUE DUP1 ISZERO PUSH2 0x62 JUMPI PUSH0 DUP1 REVERT JUMPDEST POP PUSH2 0x234B DUP1 PUSH2 0x70 PUSH0 CODECOPY PUSH0 RETURN INVALID PUSH1 0x80 PUSH1 0x40 MSTORE PUSH1 0x4 CALLDATASIZE LT PUSH2 0x7A JUMPI PUSH0 CALLDATALOAD PUSH1 0xE0 SHR DUP1 PUSH4 0x8BF20649 GT PUSH2 0x4D JUMPI DUP1 PUSH4 0x8BF20649 EQ PUSH2 0x13A JUMPI DUP1 PUSH4 0x9AEEB856 EQ PUSH2 0x156 JUMPI DUP1 PUSH4 0xAF393B1E EQ PUSH2 0x17E JUMPI DUP1 PUSH4 0xE26034CD EQ PUSH2 0x1A6 JUMPI PUSH2 0x7A JUMP JUMPDEST DUP1 PUSH4 0x57902BE EQ PUSH2 0x7E JUMPI DUP1 PUSH4 0x2E1A7D4D EQ PUSH2 0xC0 JUMPI DUP1 PUSH4 0x4CA079F2 EQ PUSH2 0xE8 JUMPI DUP1 PUSH4 0x5E5503AA EQ PUSH2 0x112 JUMPI JUMPDEST PUSH0 DUP1 REVERT JUMPDEST CALLVALUE DUP1 ISZERO PUSH2 0x89 JUMPI PUSH0 DUP1 REVERT JUMPDEST POP PUSH2 0xA4 PUSH1 0x4 DUP1 CALLDATASIZE SUB DUP2 ADD SWAP1 PUSH2 0x9F SWAP2 SWAP1 PUSH2 0x11FB JUMP JUMPDEST PUSH2 0x1E2 JUMP JUMPDEST PUSH1 0x40 MLOAD PUSH2 0xB7 SWAP8 SWAP7 SWAP6 SWAP5 SWAP4 SWAP3 SWAP2 SWAP1 PUSH2 0x12BF JUMP JUMPDEST PUSH1 0x40 MLOAD DUP1 SWAP2 SUB SWAP1 RETURN JUMPDEST CALLVALUE DUP1 ISZERO PUSH2 0xCB JUMPI PUSH0 DUP1 REVERT JUMPDEST POP PUSH2 0xE6 PUSH1 0x4 DUP1 CALLDATASIZE SUB DUP2 ADD SWAP1 PUSH2 0xE1 SWAP2 SWAP1 PUSH2 0x11FB JUMP JUMPDEST PUSH2 0x447 JUMP JUMPDEST STOP JUMPDEST CALLVALUE DUP1 ISZERO PUSH2 0xF3 JUMPI PUSH0 DUP1 REVERT JUMPDEST POP PUSH2 0xFC PUSH2 0x655 JUMP JUMPDEST PUSH1 0x40 MLOAD PUSH2 0x109 SWAP2 SWAP1 PUSH2 0x1508 JUMP JUMPDEST PUSH1 0x40 MLOAD DUP1 SWAP2 SUB SWAP1 RETURN JUMPDEST CALLVALUE DUP1 ISZERO PUSH2 0x11D JUMPI PUSH0 DUP1 REVERT JUMPDEST POP PUSH2 0x138 PUSH1 0x4 DUP1 CALLDATASIZE SUB DUP2 ADD SWAP1 PUSH2 0x133 SWAP2 SWAP1 PUSH2 0x1654 JUMP JUMPDEST PUSH2 0x90E JUMP JUMPDEST STOP JUMPDEST PUSH2 0x154 PUSH1 0x4 DUP1 CALLDATASIZE SUB DUP2 ADD SWAP1 PUSH2 0x14F SWAP2 SWAP1 PUSH2 0x174D JUMP JUMPDEST PUSH2 0xA8C JUMP JUMPDEST STOP JUMPDEST CALLVALUE DUP1 ISZERO PUSH2 0x161 JUMPI PUSH0 DUP1 REVERT JUMPDEST POP PUSH2 0x17C PUSH1 0x4 DUP1 CALLDATASIZE SUB DUP2 ADD SWAP1 PUSH2 0x177 SWAP2 SWAP1 PUSH2 0x184B JUMP JUMPDEST PUSH2 0xC74 JUMP JUMPDEST STOP JUMPDEST CALLVALUE DUP1 ISZERO PUSH2 0x189 JUMPI PUSH0 DUP1 REVERT JUMPDEST POP PUSH2 0x1A4 PUSH1 0x4 DUP1 CALLDATASIZE SUB DUP2 ADD SWAP1 PUSH2 0x19F SWAP2 SWAP1 PUSH2 0x184B JUMP JUMPDEST PUSH2 0xD44 JUMP JUMPDEST STOP JUMPDEST CALLVALUE DUP1 ISZERO PUSH2 0x1B1 JUMPI PUSH0 DUP1 REVERT JUMPDEST POP PUSH2 0x1CC PUSH1 0x4 DUP1 CALLDATASIZE SUB DUP2 ADD SWAP1 PUSH2 0x1C7 SWAP2 SWAP1 PUSH2 0x1876 JUMP JUMPDEST PUSH2 0xE14 JUMP JUMPDEST PUSH1 0x40 MLOAD PUSH2 0x1D9 SWAP2 SWAP1 PUSH2 0x196B JUMP JUMPDEST PUSH1 0x40 MLOAD DUP1 SWAP2 SUB SWAP1 RETURN JUMPDEST PUSH1 0x3 DUP2 DUP2 SLOAD DUP2 LT PUSH2 0x1F1 JUMPI PUSH0 DUP1 REVERT JUMPDEST SWAP1 PUSH0 MSTORE PUSH1 0x20 PUSH0 KECCAK256 SWAP1 PUSH1 0x7 MUL ADD PUSH0 SWAP2 POP SWAP1 POP DUP1 PUSH0 ADD DUP1 SLOAD PUSH2 0x210 SWAP1 PUSH2 0x19B8 JUMP JUMPDEST DUP1 PUSH1 0x1F ADD PUSH1 0x20 DUP1 SWAP2 DIV MUL PUSH1 0x20 ADD PUSH1 0x40 MLOAD SWAP1 DUP2 ADD PUSH1 0x40 MSTORE DUP1 SWAP3 SWAP2 SWAP1 DUP2 DUP2 MSTORE PUSH1 0x20 ADD DUP3 DUP1 SLOAD PUSH2 0x23C SWAP1 PUSH2 0x19B8 JUMP JUMPDEST DUP1 ISZERO PUSH2 0x287 JUMPI DUP1 PUSH1 0x1F LT PUSH2 0x25E JUMPI PUSH2 0x100 DUP1 DUP4 SLOAD DIV MUL DUP4 MSTORE SWAP2 PUSH1 0x20 ADD SWAP2 PUSH2 0x287 JUMP JUMPDEST DUP3 ADD SWAP2 SWAP1 PUSH0 MSTORE PUSH1 0x20 PUSH0 KECCAK256 SWAP1 JUMPDEST DUP2 SLOAD DUP2 MSTORE SWAP1 PUSH1 0x1 ADD SWAP1 PUSH1 0x20 ADD DUP1 DUP4 GT PUSH2 0x26A JUMPI DUP3 SWAP1 SUB PUSH1 0x1F AND DUP3 ADD SWAP2 JUMPDEST POP POP POP POP POP SWAP1 DUP1 PUSH1 0x1 ADD DUP1 SLOAD PUSH2 0x29C SWAP1 PUSH2 0x19B8 JUMP JUMPDEST DUP1 PUSH1 0x1F ADD PUSH1 0x20 DUP1 SWAP2 DIV MUL PUSH1 0x20 ADD PUSH1 0x40 MLOAD SWAP1 DUP2 ADD PUSH1 0x40 MSTORE DUP1 SWAP3 SWAP2 SWAP1 DUP2 DUP2 MSTORE PUSH1 0x20 ADD DUP3 DUP1 SLOAD PUSH2 0x2C8 SWAP1 PUSH2 0x19B8 JUMP JUMPDEST DUP1 ISZERO PUSH2 0x313 JUMPI DUP1 PUSH1 0x1F LT PUSH2 0x2EA JUMPI PUSH2 0x100 DUP1 DUP4 SLOAD DIV MUL DUP4 MSTORE SWAP2 PUSH1 0x20 ADD SWAP2 PUSH2 0x313 JUMP JUMPDEST DUP3 ADD SWAP2 SWAP1 PUSH0 MSTORE PUSH1 0x20 PUSH0 KECCAK256 SWAP1 JUMPDEST DUP2 SLOAD DUP2 MSTORE SWAP1 PUSH1 0x1 ADD SWAP1 PUSH1 0x20 ADD DUP1 DUP4 GT PUSH2 0x2F6 JUMPI DUP3 SWAP1 SUB PUSH1 0x1F AND DUP3 ADD SWAP2 JUMPDEST POP POP POP POP POP SWAP1 DUP1 PUSH1 0x2 ADD DUP1 SLOAD PUSH2 0x328 SWAP1 PUSH2 0x19B8 JUMP JUMPDEST DUP1 PUSH1 0x1F ADD PUSH1 0x20 DUP1 SWAP2 DIV MUL PUSH1 0x20 ADD PUSH1 0x40 MLOAD SWAP1 DUP2 ADD PUSH1 0x40 MSTORE DUP1 SWAP3 SWAP2 SWAP1 DUP2 DUP2 MSTORE PUSH1 0x20 ADD DUP3 DUP1 SLOAD PUSH2 0x354 SWAP1 PUSH2 0x19B8 JUMP JUMPDEST DUP1 ISZERO PUSH2 0x39F JUMPI DUP1 PUSH1 0x1F LT PUSH2 0x376 JUMPI PUSH2 0x100 DUP1 DUP4 SLOAD DIV MUL DUP4 MSTORE SWAP2 PUSH1 0x20 ADD SWAP2 PUSH2 0x39F JUMP JUMPDEST DUP3 ADD SWAP2 SWAP1 PUSH0 MSTORE PUSH1 0x20 PUSH0 KECCAK256 SWAP1 JUMPDEST DUP2 SLOAD DUP2 MSTORE SWAP1 PUSH1 0x1 ADD SWAP1 PUSH1 0x20 ADD DUP1 DUP4 GT PUSH2 0x382 JUMPI DUP3 SWAP1 SUB PUSH1 0x1F AND DUP3 ADD SWAP2 JUMPDEST POP POP POP POP POP SWAP1 DUP1 PUSH1 0x3 ADD SLOAD SWAP1 DUP1 PUSH1 0x4 ADD SLOAD SWAP1 DUP1 PUSH1 0x5 ADD DUP1 SLOAD PUSH2 0x3C0 SWAP1 PUSH2 0x19B8 JUMP JUMPDEST DUP1 PUSH1 0x1F ADD PUSH1 0x20 DUP1 SWAP2 DIV MUL PUSH1 0x20 ADD PUSH1 0x40 MLOAD SWAP1 DUP2 ADD PUSH1 0x40 MSTORE DUP1 SWAP3 SWAP2 SWAP1 DUP2 DUP2 MSTORE PUSH1 0x20 ADD DUP3 DUP1 SLOAD PUSH2 0x3EC SWAP1 PUSH2 0x19B8 JUMP JUMPDEST DUP1 ISZERO PUSH2 0x437 JUMPI DUP1 PUSH1 0x1F LT PUSH2 0x40E JUMPI PUSH2 0x100 DUP1 DUP4 SLOAD DIV MUL DUP4 MSTORE SWAP2 PUSH1 0x20 ADD SWAP2 PUSH2 0x437 JUMP JUMPDEST DUP3 ADD SWAP2 SWAP1 PUSH0 MSTORE PUSH1 0x20 PUSH0 KECCAK256 SWAP1 JUMPDEST DUP2 SLOAD DUP2 MSTORE SWAP1 PUSH1 0x1 ADD SWAP1 PUSH1 0x20 ADD DUP1 DUP4 GT PUSH2 0x41A JUMPI DUP3 SWAP1 SUB PUSH1 0x1F AND DUP3 ADD SWAP2 JUMPDEST POP POP POP POP POP SWAP1 DUP1 PUSH1 0x6 ADD SLOAD SWAP1 POP DUP8 JUMP JUMPDEST PUSH0 DUP1 SLOAD SWAP1 PUSH2 0x100 EXP SWAP1 DIV PUSH20 0xFFFFFFFFFFFFFFFFFFFFFFFFFFFFFFFFFFFFFFFF AND PUSH20 0xFFFFFFFFFFFFFFFFFFFFFFFFFFFFFFFFFFFFFFFF AND CALLER PUSH20 0xFFFFFFFFFFFFFFFFFFFFFFFFFFFFFFFFFFFFFFFF AND EQ PUSH2 0x4D4 JUMPI PUSH1 0x40 MLOAD PUSH32 0x8C379A000000000000000000000000000000000000000000000000000000000 DUP2 MSTORE PUSH1 0x4 ADD PUSH2 0x4CB SWAP1 PUSH2 0x1A58 JUMP JUMPDEST PUSH1 0x40 MLOAD DUP1 SWAP2 SUB SWAP1 REVERT JUMPDEST PUSH0 PUSH1 0x2 PUSH0 SWAP1 SLOAD SWAP1 PUSH2 0x100 EXP SWAP1 DIV PUSH20 0xFFFFFFFFFFFFFFFFFFFFFFFFFFFFFFFFFFFFFFFF AND PUSH20 0xFFFFFFFFFFFFFFFFFFFFFFFFFFFFFFFFFFFFFFFF AND PUSH4 0xD93CB236 DUP4 PUSH1 0x40 MLOAD DUP3 PUSH4 0xFFFFFFFF AND PUSH1 0xE0 SHL DUP2 MSTORE PUSH1 0x4 ADD PUSH2 0x52F SWAP2 SWAP1 PUSH2 0x1A76 JUMP JUMPDEST PUSH0 PUSH1 0x40 MLOAD DUP1 DUP4 SUB DUP2 DUP7 GAS STATICCALL ISZERO DUP1 ISZERO PUSH2 0x549 JUMPI RETURNDATASIZE PUSH0 DUP1 RETURNDATACOPY RETURNDATASIZE PUSH0 REVERT JUMPDEST POP POP POP POP PUSH1 0x40 MLOAD RETURNDATASIZE PUSH0 DUP3 RETURNDATACOPY RETURNDATASIZE PUSH1 0x1F NOT PUSH1 0x1F DUP3 ADD AND DUP3 ADD DUP1 PUSH1 0x40 MSTORE POP DUP2 ADD SWAP1 PUSH2 0x571 SWAP2 SWAP1 PUSH2 0x1C8E JUMP JUMPDEST SWAP1 POP PUSH1 0x1 ISZERO ISZERO DUP2 PUSH1 0x60 ADD MLOAD ISZERO ISZERO EQ PUSH2 0x5BE JUMPI PUSH1 0x40 MLOAD PUSH32 0x8C379A000000000000000000000000000000000000000000000000000000000 DUP2 MSTORE PUSH1 0x4 ADD PUSH2 0x5B5 SWAP1 PUSH2 0x1D1F JUMP JUMPDEST PUSH1 0x40 MLOAD DUP1 SWAP2 SUB SWAP1 REVERT JUMPDEST DUP1 PUSH1 0x80 ADD MLOAD SELFBALANCE LT ISZERO PUSH2 0x605 JUMPI PUSH1 0x40 MLOAD PUSH32 0x8C379A000000000000000000000000000000000000000000000000000000000 DUP2 MSTORE PUSH1 0x4 ADD PUSH2 0x5FC SWAP1 PUSH2 0x1DAD JUMP JUMPDEST PUSH1 0x40 MLOAD DUP1 SWAP2 SUB SWAP1 REVERT JUMPDEST DUP1 PUSH1 0xC0 ADD MLOAD PUSH20 0xFFFFFFFFFFFFFFFFFFFFFFFFFFFFFFFFFFFFFFFF AND PUSH2 0x8FC DUP3 PUSH1 0x80 ADD MLOAD SWAP1 DUP2 ISZERO MUL SWAP1 PUSH1 0x40 MLOAD PUSH0 PUSH1 0x40 MLOAD DUP1 DUP4 SUB DUP2 DUP6 DUP9 DUP9 CALL SWAP4 POP POP POP POP ISZERO DUP1 ISZERO PUSH2 0x650 JUMPI RETURNDATASIZE PUSH0 DUP1 RETURNDATACOPY RETURNDATASIZE PUSH0 REVERT JUMPDEST POP POP POP JUMP JUMPDEST PUSH1 0x60 PUSH1 0x3 DUP1 SLOAD DUP1 PUSH1 0x20 MUL PUSH1 0x20 ADD PUSH1 0x40 MLOAD SWAP1 DUP2 ADD PUSH1 0x40 MSTORE DUP1 SWAP3 SWAP2 SWAP1 DUP2 DUP2 MSTORE PUSH1 0x20 ADD PUSH0 SWAP1 JUMPDEST DUP3 DUP3 LT ISZERO PUSH2 0x905 JUMPI DUP4 DUP3 SWAP1 PUSH0 MSTORE PUSH1 0x20 PUSH0 KECCAK256 SWAP1 PUSH1 0x7 MUL ADD PUSH1 0x40 MLOAD DUP1 PUSH1 0xE0 ADD PUSH1 0x40 MSTORE SWAP1 DUP2 PUSH0 DUP3 ADD DUP1 SLOAD PUSH2 0x6A8 SWAP1 PUSH2 0x19B8 JUMP JUMPDEST DUP1 PUSH1 0x1F ADD PUSH1 0x20 DUP1 SWAP2 DIV MUL PUSH1 0x20 ADD PUSH1 0x40 MLOAD SWAP1 DUP2 ADD PUSH1 0x40 MSTORE DUP1 SWAP3 SWAP2 SWAP1 DUP2 DUP2 MSTORE PUSH1 0x20 ADD DUP3 DUP1 SLOAD PUSH2 0x6D4 SWAP1 PUSH2 0x19B8 JUMP JUMPDEST DUP1 ISZERO PUSH2 0x71F JUMPI DUP1 PUSH1 0x1F LT PUSH2 0x6F6 JUMPI PUSH2 0x100 DUP1 DUP4 SLOAD DIV MUL DUP4 MSTORE SWAP2 PUSH1 0x20 ADD SWAP2 PUSH2 0x71F JUMP JUMPDEST DUP3 ADD SWAP2 SWAP1 PUSH0 MSTORE PUSH1 0x20 PUSH0 KECCAK256 SWAP1 JUMPDEST DUP2 SLOAD DUP2 MSTORE SWAP1 PUSH1 0x1 ADD SWAP1 PUSH1 0x20 ADD DUP1 DUP4 GT PUSH2 0x702 JUMPI DUP3 SWAP1 SUB PUSH1 0x1F AND DUP3 ADD SWAP2 JUMPDEST POP POP POP POP POP DUP2 MSTORE PUSH1 0x20 ADD PUSH1 0x1 DUP3 ADD DUP1 SLOAD PUSH2 0x738 SWAP1 PUSH2 0x19B8 JUMP JUMPDEST DUP1 PUSH1 0x1F ADD PUSH1 0x20 DUP1 SWAP2 DIV MUL PUSH1 0x20 ADD PUSH1 0x40 MLOAD SWAP1 DUP2 ADD PUSH1 0x40 MSTORE DUP1 SWAP3 SWAP2 SWAP1 DUP2 DUP2 MSTORE PUSH1 0x20 ADD DUP3 DUP1 SLOAD PUSH2 0x764 SWAP1 PUSH2 0x19B8 JUMP JUMPDEST DUP1 ISZERO PUSH2 0x7AF JUMPI DUP1 PUSH1 0x1F LT PUSH2 0x786 JUMPI PUSH2 0x100 DUP1 DUP4 SLOAD DIV MUL DUP4 MSTORE SWAP2 PUSH1 0x20 ADD SWAP2 PUSH2 0x7AF JUMP JUMPDEST DUP3 ADD SWAP2 SWAP1 PUSH0 MSTORE PUSH1 0x20 PUSH0 KECCAK256 SWAP1 JUMPDEST DUP2 SLOAD DUP2 MSTORE SWAP1 PUSH1 0x1 ADD SWAP1 PUSH1 0x20 ADD DUP1 DUP4 GT PUSH2 0x792 JUMPI DUP3 SWAP1 SUB PUSH1 0x1F AND DUP3 ADD SWAP2 JUMPDEST POP POP POP POP POP DUP2 MSTORE PUSH1 0x20 ADD PUSH1 0x2 DUP3 ADD DUP1 SLOAD PUSH2 0x7C8 SWAP1 PUSH2 0x19B8 JUMP JUMPDEST DUP1 PUSH1 0x1F ADD PUSH1 0x20 DUP1 SWAP2 DIV MUL PUSH1 0x20 ADD PUSH1 0x40 MLOAD SWAP1 DUP2 ADD PUSH1 0x40 MSTORE DUP1 SWAP3 SWAP2 SWAP1 DUP2 DUP2 MSTORE PUSH1 0x20 ADD DUP3 DUP1 SLOAD PUSH2 0x7F4 SWAP1 PUSH2 0x19B8 JUMP JUMPDEST DUP1 ISZERO PUSH2 0x83F JUMPI DUP1 PUSH1 0x1F LT PUSH2 0x816 JUMPI PUSH2 0x100 DUP1 DUP4 SLOAD DIV MUL DUP4 MSTORE SWAP2 PUSH1 0x20 ADD SWAP2 PUSH2 0x83F JUMP JUMPDEST DUP3 ADD SWAP2 SWAP1 PUSH0 MSTORE PUSH1 0x20 PUSH0 KECCAK256 SWAP1 JUMPDEST DUP2 SLOAD DUP2 MSTORE SWAP1 PUSH1 0x1 ADD SWAP1 PUSH1 0x20 ADD DUP1 DUP4 GT PUSH2 0x822 JUMPI DUP3 SWAP1 SUB PUSH1 0x1F AND DUP3 ADD SWAP2 JUMPDEST POP POP POP POP POP DUP2 MSTORE PUSH1 0x20 ADD PUSH1 0x3 DUP3 ADD SLOAD DUP2 MSTORE PUSH1 0x20 ADD PUSH1 0x4 DUP3 ADD SLOAD DUP2 MSTORE PUSH1 0x20 ADD PUSH1 0x5 DUP3 ADD DUP1 SLOAD PUSH2 0x86C SWAP1 PUSH2 0x19B8 JUMP JUMPDEST DUP1 PUSH1 0x1F ADD PUSH1 0x20 DUP1 SWAP2 DIV MUL PUSH1 0x20 ADD PUSH1 0x40 MLOAD SWAP1 DUP2 ADD PUSH1 0x40 MSTORE DUP1 SWAP3 SWAP2 SWAP1 DUP2 DUP2 MSTORE PUSH1 0x20 ADD DUP3 DUP1 SLOAD PUSH2 0x898 SWAP1 PUSH2 0x19B8 JUMP JUMPDEST DUP1 ISZERO PUSH2 0x8E3 JUMPI DUP1 PUSH1 0x1F LT PUSH2 0x8BA JUMPI PUSH2 0x100 DUP1 DUP4 SLOAD DIV MUL DUP4 MSTORE SWAP2 PUSH1 0x20 ADD SWAP2 PUSH2 0x8E3 JUMP JUMPDEST DUP3 ADD SWAP2 SWAP1 PUSH0 MSTORE PUSH1 0x20 PUSH0 KECCAK256 SWAP1 JUMPDEST DUP2 SLOAD DUP2 MSTORE SWAP1 PUSH1 0x1 ADD SWAP1 PUSH1 0x20 ADD DUP1 DUP4 GT PUSH2 0x8C6 JUMPI DUP3 SWAP1 SUB PUSH1 0x1F AND DUP3 ADD SWAP2 JUMPDEST POP POP POP POP POP DUP2 MSTORE PUSH1 0x20 ADD PUSH1 0x6 DUP3 ADD SLOAD DUP2 MSTORE POP POP DUP2 MSTORE PUSH1 0x20 ADD SWAP1 PUSH1 0x1 ADD SWAP1 PUSH2 0x678 JUMP JUMPDEST POP POP POP POP SWAP1 POP SWAP1 JUMP JUMPDEST PUSH0 DUP1 SLOAD SWAP1 PUSH2 0x100 EXP SWAP1 DIV PUSH20 0xFFFFFFFFFFFFFFFFFFFFFFFFFFFFFFFFFFFFFFFF AND PUSH20 0xFFFFFFFFFFFFFFFFFFFFFFFFFFFFFFFFFFFFFFFF AND CALLER PUSH20 0xFFFFFFFFFFFFFFFFFFFFFFFFFFFFFFFFFFFFFFFF AND EQ PUSH2 0x99B JUMPI PUSH1 0x40 MLOAD PUSH32 0x8C379A000000000000000000000000000000000000000000000000000000000 DUP2 MSTORE PUSH1 0x4 ADD PUSH2 0x992 SWAP1 PUSH2 0x1A58 JUMP JUMPDEST PUSH1 0x40 MLOAD DUP1 SWAP2 SUB SWAP1 REVERT JUMPDEST PUSH2 0x9A3 PUSH2 0x117D JUMP JUMPDEST DUP7 DUP2 PUSH0 ADD DUP2 SWAP1 MSTORE POP DUP6 DUP2 PUSH1 0x20 ADD DUP2 SWAP1 MSTORE POP DUP5 DUP2 PUSH1 0x40 ADD DUP2 SWAP1 MSTORE POP DUP3 DUP2 PUSH1 0x80 ADD DUP2 DUP2 MSTORE POP POP DUP4 DUP2 PUSH1 0x60 ADD DUP2 DUP2 MSTORE POP POP DUP2 DUP2 PUSH1 0xA0 ADD DUP2 SWAP1 MSTORE POP PUSH0 DUP2 PUSH1 0xC0 ADD DUP2 DUP2 MSTORE POP POP PUSH1 0x3 DUP2 SWAP1 DUP1 PUSH1 0x1 DUP2 SLOAD ADD DUP1 DUP3 SSTORE DUP1 SWAP2 POP POP PUSH1 0x1 SWAP1 SUB SWAP1 PUSH0 MSTORE PUSH1 0x20 PUSH0 KECCAK256 SWAP1 PUSH1 0x7 MUL ADD PUSH0 SWAP1 SWAP2 SWAP1 SWAP2 SWAP1 SWAP2 POP PUSH0 DUP3 ADD MLOAD DUP2 PUSH0 ADD SWAP1 DUP2 PUSH2 0xA20 SWAP2 SWAP1 PUSH2 0x1F68 JUMP JUMPDEST POP PUSH1 0x20 DUP3 ADD MLOAD DUP2 PUSH1 0x1 ADD SWAP1 DUP2 PUSH2 0xA36 SWAP2 SWAP1 PUSH2 0x1F68 JUMP JUMPDEST POP PUSH1 0x40 DUP3 ADD MLOAD DUP2 PUSH1 0x2 ADD SWAP1 DUP2 PUSH2 0xA4C SWAP2 SWAP1 PUSH2 0x1F68 JUMP JUMPDEST POP PUSH1 0x60 DUP3 ADD MLOAD DUP2 PUSH1 0x3 ADD SSTORE PUSH1 0x80 DUP3 ADD MLOAD DUP2 PUSH1 0x4 ADD SSTORE PUSH1 0xA0 DUP3 ADD MLOAD DUP2 PUSH1 0x5 ADD SWAP1 DUP2 PUSH2 0xA76 SWAP2 SWAP1 PUSH2 0x1F68 JUMP JUMPDEST POP PUSH1 0xC0 DUP3 ADD MLOAD DUP2 PUSH1 0x6 ADD SSTORE POP POP POP POP POP POP POP POP POP JUMP JUMPDEST PUSH6 0xB5E620F48000 CALLVALUE LT ISZERO PUSH2 0xAD5 JUMPI PUSH1 0x40 MLOAD PUSH32 0x8C379A000000000000000000000000000000000000000000000000000000000 DUP2 MSTORE PUSH1 0x4 ADD PUSH2 0xACC SWAP1 PUSH2 0x20A7 JUMP JUMPDEST PUSH1 0x40 MLOAD DUP1 SWAP2 SUB SWAP1 REVERT JUMPDEST PUSH0 JUMPDEST PUSH1 0x3 DUP1 SLOAD SWAP1 POP DUP2 LT ISZERO PUSH2 0xC33 JUMPI DUP4 PUSH1 0x40 MLOAD PUSH1 0x20 ADD PUSH2 0xAF5 SWAP2 SWAP1 PUSH2 0x20FF JUMP JUMPDEST PUSH1 0x40 MLOAD PUSH1 0x20 DUP2 DUP4 SUB SUB DUP2 MSTORE SWAP1 PUSH1 0x40 MSTORE DUP1 MLOAD SWAP1 PUSH1 0x20 ADD KECCAK256 PUSH1 0x3 DUP3 DUP2 SLOAD DUP2 LT PUSH2 0xB1F JUMPI PUSH2 0xB1E PUSH2 0x2115 JUMP JUMPDEST JUMPDEST SWAP1 PUSH0 MSTORE PUSH1 0x20 PUSH0 KECCAK256 SWAP1 PUSH1 0x7 MUL ADD PUSH0 ADD PUSH1 0x40 MLOAD PUSH1 0x20 ADD PUSH2 0xB3D SWAP2 SWAP1 PUSH2 0x21C2 JUMP JUMPDEST PUSH1 0x40 MLOAD PUSH1 0x20 DUP2 DUP4 SUB SUB DUP2 MSTORE SWAP1 PUSH1 0x40 MSTORE DUP1 MLOAD SWAP1 PUSH1 0x20 ADD KECCAK256 SUB PUSH2 0xC26 JUMPI CALLVALUE PUSH1 0x3 DUP3 DUP2 SLOAD DUP2 LT PUSH2 0xB6D JUMPI PUSH2 0xB6C PUSH2 0x2115 JUMP JUMPDEST JUMPDEST SWAP1 PUSH0 MSTORE PUSH1 0x20 PUSH0 KECCAK256 SWAP1 PUSH1 0x7 MUL ADD PUSH1 0x3 ADD PUSH0 DUP3 DUP3 SLOAD PUSH2 0xB8A SWAP2 SWAP1 PUSH2 0x2205 JUMP JUMPDEST SWAP3 POP POP DUP2 SWAP1 SSTORE POP PUSH1 0x1 PUSH0 SWAP1 SLOAD SWAP1 PUSH2 0x100 EXP SWAP1 DIV PUSH20 0xFFFFFFFFFFFFFFFFFFFFFFFFFFFFFFFFFFFFFFFF AND PUSH20 0xFFFFFFFFFFFFFFFFFFFFFFFFFFFFFFFFFFFFFFFF AND PUSH4 0xCA449811 DUP6 DUP6 CALLER CALLVALUE DUP8 PUSH1 0x40 MLOAD DUP7 PUSH4 0xFFFFFFFF AND PUSH1 0xE0 SHL DUP2 MSTORE PUSH1 0x4 ADD PUSH2 0xBF3 SWAP6 SWAP5 SWAP4 SWAP3 SWAP2 SWAP1 PUSH2 0x2247 JUMP JUMPDEST PUSH0 PUSH1 0x40 MLOAD DUP1 DUP4 SUB DUP2 PUSH0 DUP8 DUP1 EXTCODESIZE ISZERO DUP1 ISZERO PUSH2 0xC0A JUMPI PUSH0 DUP1 REVERT JUMPDEST POP GAS CALL ISZERO DUP1 ISZERO PUSH2 0xC1C JUMPI RETURNDATASIZE PUSH0 DUP1 RETURNDATACOPY RETURNDATASIZE PUSH0 REVERT JUMPDEST POP POP POP POP POP PUSH2 0xC6F JUMP JUMPDEST DUP1 DUP1 PUSH1 0x1 ADD SWAP2 POP POP PUSH2 0xAD7 JUMP JUMPDEST POP PUSH1 0x40 MLOAD PUSH32 0x8C379A000000000000000000000000000000000000000000000000000000000 DUP2 MSTORE PUSH1 0x4 ADD PUSH2 0xC66 SWAP1 PUSH2 0x22F7 JUMP JUMPDEST PUSH1 0x40 MLOAD DUP1 SWAP2 SUB SWAP1 REVERT JUMPDEST POP POP POP JUMP JUMPDEST PUSH0 DUP1 SLOAD SWAP1 PUSH2 0x100 EXP SWAP1 DIV PUSH20 0xFFFFFFFFFFFFFFFFFFFFFFFFFFFFFFFFFFFFFFFF AND PUSH20 0xFFFFFFFFFFFFFFFFFFFFFFFFFFFFFFFFFFFFFFFF AND CALLER PUSH20 0xFFFFFFFFFFFFFFFFFFFFFFFFFFFFFFFFFFFFFFFF AND EQ PUSH2 0xD01 JUMPI PUSH1 0x40 MLOAD PUSH32 0x8C379A000000000000000000000000000000000000000000000000000000000 DUP2 MSTORE PUSH1 0x4 ADD PUSH2 0xCF8 SWAP1 PUSH2 0x1A58 JUMP JUMPDEST PUSH1 0x40 MLOAD DUP1 SWAP2 SUB SWAP1 REVERT JUMPDEST DUP1 PUSH1 0x2 PUSH0 PUSH2 0x100 EXP DUP2 SLOAD DUP2 PUSH20 0xFFFFFFFFFFFFFFFFFFFFFFFFFFFFFFFFFFFFFFFF MUL NOT AND SWAP1 DUP4 PUSH20 0xFFFFFFFFFFFFFFFFFFFFFFFFFFFFFFFFFFFFFFFF AND MUL OR SWAP1 SSTORE POP POP JUMP JUMPDEST PUSH0 DUP1 SLOAD SWAP1 PUSH2 0x100 EXP SWAP1 DIV PUSH20 0xFFFFFFFFFFFFFFFFFFFFFFFFFFFFFFFFFFFFFFFF AND PUSH20 0xFFFFFFFFFFFFFFFFFFFFFFFFFFFFFFFFFFFFFFFF AND CALLER PUSH20 0xFFFFFFFFFFFFFFFFFFFFFFFFFFFFFFFFFFFFFFFF AND EQ PUSH2 0xDD1 JUMPI PUSH1 0x40 MLOAD PUSH32 0x8C379A000000000000000000000000000000000000000000000000000000000 DUP2 MSTORE PUSH1 0x4 ADD PUSH2 0xDC8 SWAP1 PUSH2 0x1A58 JUMP JUMPDEST PUSH1 0x40 MLOAD DUP1 SWAP2 SUB SWAP1 REVERT JUMPDEST DUP1 PUSH1 0x1 PUSH0 PUSH2 0x100 EXP DUP2 SLOAD DUP2 PUSH20 0xFFFFFFFFFFFFFFFFFFFFFFFFFFFFFFFFFFFFFFFF MUL NOT AND SWAP1 DUP4 PUSH20 0xFFFFFFFFFFFFFFFFFFFFFFFFFFFFFFFFFFFFFFFF AND MUL OR SWAP1 SSTORE POP POP JUMP JUMPDEST PUSH2 0xE1C PUSH2 0x117D JUMP JUMPDEST PUSH0 JUMPDEST PUSH1 0x3 DUP1 SLOAD SWAP1 POP DUP2 LT ISZERO PUSH2 0x113C JUMPI DUP3 PUSH1 0x40 MLOAD PUSH1 0x20 ADD PUSH2 0xE3C SWAP2 SWAP1 PUSH2 0x20FF JUMP JUMPDEST PUSH1 0x40 MLOAD PUSH1 0x20 DUP2 DUP4 SUB SUB DUP2 MSTORE SWAP1 PUSH1 0x40 MSTORE DUP1 MLOAD SWAP1 PUSH1 0x20 ADD KECCAK256 PUSH1 0x3 DUP3 DUP2 SLOAD DUP2 LT PUSH2 0xE66 JUMPI PUSH2 0xE65 PUSH2 0x2115 JUMP JUMPDEST JUMPDEST SWAP1 PUSH0 MSTORE PUSH1 0x20 PUSH0 KECCAK256 SWAP1 PUSH1 0x7 MUL ADD PUSH0 ADD PUSH1 0x40 MLOAD PUSH1 0x20 ADD PUSH2 0xE84 SWAP2 SWAP1 PUSH2 0x21C2 JUMP JUMPDEST PUSH1 0x40 MLOAD PUSH1 0x20 DUP2 DUP4 SUB SUB DUP2 MSTORE SWAP1 PUSH1 0x40 MSTORE DUP1 MLOAD SWAP1 PUSH1 0x20 ADD KECCAK256 SUB PUSH2 0x112F JUMPI PUSH1 0x3 DUP2 DUP2 SLOAD DUP2 LT PUSH2 0xEB3 JUMPI PUSH2 0xEB2 PUSH2 0x2115 JUMP JUMPDEST JUMPDEST SWAP1 PUSH0 MSTORE PUSH1 0x20 PUSH0 KECCAK256 SWAP1 PUSH1 0x7 MUL ADD PUSH1 0x40 MLOAD DUP1 PUSH1 0xE0 ADD PUSH1 0x40 MSTORE SWAP1 DUP2 PUSH0 DUP3 ADD DUP1 SLOAD PUSH2 0xED9 SWAP1 PUSH2 0x19B8 JUMP JUMPDEST DUP1 PUSH1 0x1F ADD PUSH1 0x20 DUP1 SWAP2 DIV MUL PUSH1 0x20 ADD PUSH1 0x40 MLOAD SWAP1 DUP2 ADD PUSH1 0x40 MSTORE DUP1 SWAP3 SWAP2 SWAP1 DUP2 DUP2 MSTORE PUSH1 0x20 ADD DUP3 DUP1 SLOAD PUSH2 0xF05 SWAP1 PUSH2 0x19B8 JUMP JUMPDEST DUP1 ISZERO PUSH2 0xF50 JUMPI DUP1 PUSH1 0x1F LT PUSH2 0xF27 JUMPI PUSH2 0x100 DUP1 DUP4 SLOAD DIV MUL DUP4 MSTORE SWAP2 PUSH1 0x20 ADD SWAP2 PUSH2 0xF50 JUMP JUMPDEST DUP3 ADD SWAP2 SWAP1 PUSH0 MSTORE PUSH1 0x20 PUSH0 KECCAK256 SWAP1 JUMPDEST DUP2 SLOAD DUP2 MSTORE SWAP1 PUSH1 0x1 ADD SWAP1 PUSH1 0x20 ADD DUP1 DUP4 GT PUSH2 0xF33 JUMPI DUP3 SWAP1 SUB PUSH1 0x1F AND DUP3 ADD SWAP2 JUMPDEST POP POP POP POP POP DUP2 MSTORE PUSH1 0x20 ADD PUSH1 0x1 DUP3 ADD DUP1 SLOAD PUSH2 0xF69 SWAP1 PUSH2 0x19B8 JUMP JUMPDEST DUP1 PUSH1 0x1F ADD PUSH1 0x20 DUP1 SWAP2 DIV MUL PUSH1 0x20 ADD PUSH1 0x40 MLOAD SWAP1 DUP2 ADD PUSH1 0x40 MSTORE DUP1 SWAP3 SWAP2 SWAP1 DUP2 DUP2 MSTORE PUSH1 0x20 ADD DUP3 DUP1 SLOAD PUSH2 0xF95 SWAP1 PUSH2 0x19B8 JUMP JUMPDEST DUP1 ISZERO PUSH2 0xFE0 JUMPI DUP1 PUSH1 0x1F LT PUSH2 0xFB7 JUMPI PUSH2 0x100 DUP1 DUP4 SLOAD DIV MUL DUP4 MSTORE SWAP2 PUSH1 0x20 ADD SWAP2 PUSH2 0xFE0 JUMP JUMPDEST DUP3 ADD SWAP2 SWAP1 PUSH0 MSTORE PUSH1 0x20 PUSH0 KECCAK256 SWAP1 JUMPDEST DUP2 SLOAD DUP2 MSTORE SWAP1 PUSH1 0x1 ADD SWAP1 PUSH1 0x20 ADD DUP1 DUP4 GT PUSH2 0xFC3 JUMPI DUP3 SWAP1 SUB PUSH1 0x1F AND DUP3 ADD SWAP2 JUMPDEST POP POP POP POP POP DUP2 MSTORE PUSH1 0x20 ADD PUSH1 0x2 DUP3 ADD DUP1 SLOAD PUSH2 0xFF9 SWAP1 PUSH2 0x19B8 JUMP JUMPDEST DUP1 PUSH1 0x1F ADD PUSH1 0x20 DUP1 SWAP2 DIV MUL PUSH1 0x20 ADD PUSH1 0x40 MLOAD SWAP1 DUP2 ADD PUSH1 0x40 MSTORE DUP1 SWAP3 SWAP2 SWAP1 DUP2 DUP2 MSTORE PUSH1 0x20 ADD DUP3 DUP1 SLOAD PUSH2 0x1025 SWAP1 PUSH2 0x19B8 JUMP JUMPDEST DUP1 ISZERO PUSH2 0x1070 JUMPI DUP1 PUSH1 0x1F LT PUSH2 0x1047 JUMPI PUSH2 0x100 DUP1 DUP4 SLOAD DIV MUL DUP4 MSTORE SWAP2 PUSH1 0x20 ADD SWAP2 PUSH2 0x1070 JUMP JUMPDEST DUP3 ADD SWAP2 SWAP1 PUSH0 MSTORE PUSH1 0x20 PUSH0 KECCAK256 SWAP1 JUMPDEST DUP2 SLOAD DUP2 MSTORE SWAP1 PUSH1 0x1 ADD SWAP1 PUSH1 0x20 ADD DUP1 DUP4 GT PUSH2 0x1053 JUMPI DUP3 SWAP1 SUB PUSH1 0x1F AND DUP3 ADD SWAP2 JUMPDEST POP POP POP POP POP DUP2 MSTORE PUSH1 0x20 ADD PUSH1 0x3 DUP3 ADD SLOAD DUP2 MSTORE PUSH1 0x20 ADD PUSH1 0x4 DUP3 ADD SLOAD DUP2 MSTORE PUSH1 0x20 ADD PUSH1 0x5 DUP3 ADD DUP1 SLOAD PUSH2 0x109D SWAP1 PUSH2 0x19B8 JUMP JUMPDEST DUP1 PUSH1 0x1F ADD PUSH1 0x20 DUP1 SWAP2 DIV MUL PUSH1 0x20 ADD PUSH1 0x40 MLOAD SWAP1 DUP2 ADD PUSH1 0x40 MSTORE DUP1 SWAP3 SWAP2 SWAP1 DUP2 DUP2 MSTORE PUSH1 0x20 ADD DUP3 DUP1 SLOAD PUSH2 0x10C9 SWAP1 PUSH2 0x19B8 JUMP JUMPDEST DUP1 ISZERO PUSH2 0x1114 JUMPI DUP1 PUSH1 0x1F LT PUSH2 0x10EB JUMPI PUSH2 0x100 DUP1 DUP4 SLOAD DIV MUL DUP4 MSTORE SWAP2 PUSH1 0x20 ADD SWAP2 PUSH2 0x1114 JUMP JUMPDEST DUP3 ADD SWAP2 SWAP1 PUSH0 MSTORE PUSH1 0x20 PUSH0 KECCAK256 SWAP1 JUMPDEST DUP2 SLOAD DUP2 MSTORE SWAP1 PUSH1 0x1 ADD SWAP1 PUSH1 0x20 ADD DUP1 DUP4 GT PUSH2 0x10F7 JUMPI DUP3 SWAP1 SUB PUSH1 0x1F AND DUP3 ADD SWAP2 JUMPDEST POP POP POP POP POP DUP2 MSTORE PUSH1 0x20 ADD PUSH1 0x6 DUP3 ADD SLOAD DUP2 MSTORE POP POP SWAP2 POP POP PUSH2 0x1178 JUMP JUMPDEST DUP1 DUP1 PUSH1 0x1 ADD SWAP2 POP POP PUSH2 0xE1E JUMP JUMPDEST POP PUSH1 0x40 MLOAD PUSH32 0x8C379A000000000000000000000000000000000000000000000000000000000 DUP2 MSTORE PUSH1 0x4 ADD PUSH2 0x116F SWAP1 PUSH2 0x22F7 JUMP JUMPDEST PUSH1 0x40 MLOAD DUP1 SWAP2 SUB SWAP1 REVERT JUMPDEST SWAP2 SWAP1 POP JUMP JUMPDEST PUSH1 0x40 MLOAD DUP1 PUSH1 0xE0 ADD PUSH1 0x40 MSTORE DUP1 PUSH1 0x60 DUP2 MSTORE PUSH1 0x20 ADD PUSH1 0x60 DUP2 MSTORE PUSH1 0x20 ADD PUSH1 0x60 DUP2 MSTORE PUSH1 0x20 ADD PUSH0 DUP2 MSTORE PUSH1 0x20 ADD PUSH0 DUP2 MSTORE PUSH1 0x20 ADD PUSH1 0x60 DUP2 MSTORE PUSH1 0x20 ADD PUSH0 DUP2 MSTORE POP SWAP1 JUMP JUMPDEST PUSH0 PUSH1 0x40 MLOAD SWAP1 POP SWAP1 JUMP JUMPDEST PUSH0 DUP1 REVERT JUMPDEST PUSH0 DUP1 REVERT JUMPDEST PUSH0 DUP2 SWAP1 POP SWAP2 SWAP1 POP JUMP JUMPDEST PUSH2 0x11DA DUP2 PUSH2 0x11C8 JUMP JUMPDEST DUP2 EQ PUSH2 0x11E4 JUMPI PUSH0 DUP1 REVERT JUMPDEST POP JUMP JUMPDEST PUSH0 DUP2 CALLDATALOAD SWAP1 POP PUSH2 0x11F5 DUP2 PUSH2 0x11D1 JUMP JUMPDEST SWAP3 SWAP2 POP POP JUMP JUMPDEST PUSH0 PUSH1 0x20 DUP3 DUP5 SUB SLT ISZERO PUSH2 0x1210 JUMPI PUSH2 0x120F PUSH2 0x11C0 JUMP JUMPDEST JUMPDEST PUSH0 PUSH2 0x121D DUP5 DUP3 DUP6 ADD PUSH2 0x11E7 JUMP JUMPDEST SWAP2 POP POP SWAP3 SWAP2 POP POP JUMP JUMPDEST PUSH0 DUP2 MLOAD SWAP1 POP SWAP2 SWAP1 POP JUMP JUMPDEST PUSH0 DUP3 DUP3 MSTORE PUSH1 0x20 DUP3 ADD SWAP1 POP SWAP3 SWAP2 POP POP JUMP JUMPDEST PUSH0 JUMPDEST DUP4 DUP2 LT ISZERO PUSH2 0x125D JUMPI DUP1 DUP3 ADD MLOAD DUP2 DUP5 ADD MSTORE PUSH1 0x20 DUP2 ADD SWAP1 POP PUSH2 0x1242 JUMP JUMPDEST PUSH0 DUP5 DUP5 ADD MSTORE POP POP POP POP JUMP JUMPDEST PUSH0 PUSH1 0x1F NOT PUSH1 0x1F DUP4 ADD AND SWAP1 POP SWAP2 SWAP1 POP JUMP JUMPDEST PUSH0 PUSH2 0x1282 DUP3 PUSH2 0x1226 JUMP JUMPDEST PUSH2 0x128C DUP2 DUP6 PUSH2 0x1230 JUMP JUMPDEST SWAP4 POP PUSH2 0x129C DUP2 DUP6 PUSH1 0x20 DUP7 ADD PUSH2 0x1240 JUMP JUMPDEST PUSH2 0x12A5 DUP2 PUSH2 0x1268 JUMP JUMPDEST DUP5 ADD SWAP2 POP POP SWAP3 SWAP2 POP POP JUMP JUMPDEST PUSH2 0x12B9 DUP2 PUSH2 0x11C8 JUMP JUMPDEST DUP3 MSTORE POP POP JUMP JUMPDEST PUSH0 PUSH1 0xE0 DUP3 ADD SWAP1 POP DUP2 DUP2 SUB PUSH0 DUP4 ADD MSTORE PUSH2 0x12D7 DUP2 DUP11 PUSH2 0x1278 JUMP JUMPDEST SWAP1 POP DUP2 DUP2 SUB PUSH1 0x20 DUP4 ADD MSTORE PUSH2 0x12EB DUP2 DUP10 PUSH2 0x1278 JUMP JUMPDEST SWAP1 POP DUP2 DUP2 SUB PUSH1 0x40 DUP4 ADD MSTORE PUSH2 0x12FF DUP2 DUP9 PUSH2 0x1278 JUMP JUMPDEST SWAP1 POP PUSH2 0x130E PUSH1 0x60 DUP4 ADD DUP8 PUSH2 0x12B0 JUMP JUMPDEST PUSH2 0x131B PUSH1 0x80 DUP4 ADD DUP7 PUSH2 0x12B0 JUMP JUMPDEST DUP2 DUP2 SUB PUSH1 0xA0 DUP4 ADD MSTORE PUSH2 0x132D DUP2 DUP6 PUSH2 0x1278 JUMP JUMPDEST SWAP1 POP PUSH2 0x133C PUSH1 0xC0 DUP4 ADD DUP5 PUSH2 0x12B0 JUMP JUMPDEST SWAP9 SWAP8 POP POP POP POP POP POP POP POP JUMP JUMPDEST PUSH0 DUP2 MLOAD SWAP1 POP SWAP2 SWAP1 POP JUMP JUMPDEST PUSH0 DUP3 DUP3 MSTORE PUSH1 0x20 DUP3 ADD SWAP1 POP SWAP3 SWAP2 POP POP JUMP JUMPDEST PUSH0 DUP2 SWAP1 POP PUSH1 0x20 DUP3 ADD SWAP1 POP SWAP2 SWAP1 POP JUMP JUMPDEST PUSH0 DUP3 DUP3 MSTORE PUSH1 0x20 DUP3 ADD SWAP1 POP SWAP3 SWAP2 POP POP JUMP JUMPDEST PUSH0 PUSH2 0x138B DUP3 PUSH2 0x1226 JUMP JUMPDEST PUSH2 0x1395 DUP2 DUP6 PUSH2 0x1371 JUMP JUMPDEST SWAP4 POP PUSH2 0x13A5 DUP2 DUP6 PUSH1 0x20 DUP7 ADD PUSH2 0x1240 JUMP JUMPDEST PUSH2 0x13AE DUP2 PUSH2 0x1268 JUMP JUMPDEST DUP5 ADD SWAP2 POP POP SWAP3 SWAP2 POP POP JUMP JUMPDEST PUSH2 0x13C2 DUP2 PUSH2 0x11C8 JUMP JUMPDEST DUP3 MSTORE POP POP JUMP JUMPDEST PUSH0 PUSH1 0xE0 DUP4 ADD PUSH0 DUP4 ADD MLOAD DUP5 DUP3 SUB PUSH0 DUP7 ADD MSTORE PUSH2 0x13E2 DUP3 DUP3 PUSH2 0x1381 JUMP JUMPDEST SWAP2 POP POP PUSH1 0x20 DUP4 ADD MLOAD DUP5 DUP3 SUB PUSH1 0x20 DUP7 ADD MSTORE PUSH2 0x13FC DUP3 DUP3 PUSH2 0x1381 JUMP JUMPDEST SWAP2 POP POP PUSH1 0x40 DUP4 ADD MLOAD DUP5 DUP3 SUB PUSH1 0x40 DUP7 ADD MSTORE PUSH2 0x1416 DUP3 DUP3 PUSH2 0x1381 JUMP JUMPDEST SWAP2 POP POP PUSH1 0x60 DUP4 ADD MLOAD PUSH2 0x142B PUSH1 0x60 DUP7 ADD DUP3 PUSH2 0x13B9 JUMP JUMPDEST POP PUSH1 0x80 DUP4 ADD MLOAD PUSH2 0x143E PUSH1 0x80 DUP7 ADD DUP3 PUSH2 0x13B9 JUMP JUMPDEST POP PUSH1 0xA0 DUP4 ADD MLOAD DUP5 DUP3 SUB PUSH1 0xA0 DUP7 ADD MSTORE PUSH2 0x1456 DUP3 DUP3 PUSH2 0x1381 JUMP JUMPDEST SWAP2 POP POP PUSH1 0xC0 DUP4 ADD MLOAD PUSH2 0x146B PUSH1 0xC0 DUP7 ADD DUP3 PUSH2 0x13B9 JUMP JUMPDEST POP DUP1 SWAP2 POP POP SWAP3 SWAP2 POP POP JUMP JUMPDEST PUSH0 PUSH2 0x1481 DUP4 DUP4 PUSH2 0x13C8 JUMP JUMPDEST SWAP1 POP SWAP3 SWAP2 POP POP JUMP JUMPDEST PUSH0 PUSH1 0x20 DUP3 ADD SWAP1 POP SWAP2 SWAP1 POP JUMP JUMPDEST PUSH0 PUSH2 0x149F DUP3 PUSH2 0x1348 JUMP JUMPDEST PUSH2 0x14A9 DUP2 DUP6 PUSH2 0x1352 JUMP JUMPDEST SWAP4 POP DUP4 PUSH1 0x20 DUP3 MUL DUP6 ADD PUSH2 0x14BB DUP6 PUSH2 0x1362 JUMP JUMPDEST DUP1 PUSH0 JUMPDEST DUP6 DUP2 LT ISZERO PUSH2 0x14F6 JUMPI DUP5 DUP5 SUB DUP10 MSTORE DUP2 MLOAD PUSH2 0x14D7 DUP6 DUP3 PUSH2 0x1476 JUMP JUMPDEST SWAP5 POP PUSH2 0x14E2 DUP4 PUSH2 0x1489 JUMP JUMPDEST SWAP3 POP PUSH1 0x20 DUP11 ADD SWAP10 POP POP PUSH1 0x1 DUP2 ADD SWAP1 POP PUSH2 0x14BE JUMP JUMPDEST POP DUP3 SWAP8 POP DUP8 SWAP6 POP POP POP POP POP POP SWAP3 SWAP2 POP POP JUMP JUMPDEST PUSH0 PUSH1 0x20 DUP3 ADD SWAP1 POP DUP2 DUP2 SUB PUSH0 DUP4 ADD MSTORE PUSH2 0x1520 DUP2 DUP5 PUSH2 0x1495 JUMP JUMPDEST SWAP1 POP SWAP3 SWAP2 POP POP JUMP JUMPDEST PUSH0 DUP1 REVERT JUMPDEST PUSH0 DUP1 REVERT JUMPDEST PUSH32 0x4E487B7100000000000000000000000000000000000000000000000000000000 PUSH0 MSTORE PUSH1 0x41 PUSH1 0x4 MSTORE PUSH1 0x24 PUSH0 REVERT JUMPDEST PUSH2 0x1566 DUP3 PUSH2 0x1268 JUMP JUMPDEST DUP2 ADD DUP2 DUP2 LT PUSH8 0xFFFFFFFFFFFFFFFF DUP3 GT OR ISZERO PUSH2 0x1585 JUMPI PUSH2 0x1584 PUSH2 0x1530 JUMP JUMPDEST JUMPDEST DUP1 PUSH1 0x40 MSTORE POP POP POP JUMP JUMPDEST PUSH0 PUSH2 0x1597 PUSH2 0x11B7 JUMP JUMPDEST SWAP1 POP PUSH2 0x15A3 DUP3 DUP3 PUSH2 0x155D JUMP JUMPDEST SWAP2 SWAP1 POP JUMP JUMPDEST PUSH0 PUSH8 0xFFFFFFFFFFFFFFFF DUP3 GT ISZERO PUSH2 0x15C2 JUMPI PUSH2 0x15C1 PUSH2 0x1530 JUMP JUMPDEST JUMPDEST PUSH2 0x15CB DUP3 PUSH2 0x1268 JUMP JUMPDEST SWAP1 POP PUSH1 0x20 DUP2 ADD SWAP1 POP SWAP2 SWAP1 POP JUMP JUMPDEST DUP3 DUP2 DUP4 CALLDATACOPY PUSH0 DUP4 DUP4 ADD MSTORE POP POP POP JUMP JUMPDEST PUSH0 PUSH2 0x15F8 PUSH2 0x15F3 DUP5 PUSH2 0x15A8 JUMP JUMPDEST PUSH2 0x158E JUMP JUMPDEST SWAP1 POP DUP3 DUP2 MSTORE PUSH1 0x20 DUP2 ADD DUP5 DUP5 DUP5 ADD GT ISZERO PUSH2 0x1614 JUMPI PUSH2 0x1613 PUSH2 0x152C JUMP JUMPDEST JUMPDEST PUSH2 0x161F DUP5 DUP3 DUP6 PUSH2 0x15D8 JUMP JUMPDEST POP SWAP4 SWAP3 POP POP POP JUMP JUMPDEST PUSH0 DUP3 PUSH1 0x1F DUP4 ADD SLT PUSH2 0x163B JUMPI PUSH2 0x163A PUSH2 0x1528 JUMP JUMPDEST JUMPDEST DUP2 CALLDATALOAD PUSH2 0x164B DUP5 DUP3 PUSH1 0x20 DUP7 ADD PUSH2 0x15E6 JUMP JUMPDEST SWAP2 POP POP SWAP3 SWAP2 POP POP JUMP JUMPDEST PUSH0 DUP1 PUSH0 DUP1 PUSH0 DUP1 PUSH1 0xC0 DUP8 DUP10 SUB SLT ISZERO PUSH2 0x166E JUMPI PUSH2 0x166D PUSH2 0x11C0 JUMP JUMPDEST JUMPDEST PUSH0 DUP8 ADD CALLDATALOAD PUSH8 0xFFFFFFFFFFFFFFFF DUP2 GT ISZERO PUSH2 0x168B JUMPI PUSH2 0x168A PUSH2 0x11C4 JUMP JUMPDEST JUMPDEST PUSH2 0x1697 DUP10 DUP3 DUP11 ADD PUSH2 0x1627 JUMP JUMPDEST SWAP7 POP POP PUSH1 0x20 DUP8 ADD CALLDATALOAD PUSH8 0xFFFFFFFFFFFFFFFF DUP2 GT ISZERO PUSH2 0x16B8 JUMPI PUSH2 0x16B7 PUSH2 0x11C4 JUMP JUMPDEST JUMPDEST PUSH2 0x16C4 DUP10 DUP3 DUP11 ADD PUSH2 0x1627 JUMP JUMPDEST SWAP6 POP POP PUSH1 0x40 DUP8 ADD CALLDATALOAD PUSH8 0xFFFFFFFFFFFFFFFF DUP2 GT ISZERO PUSH2 0x16E5 JUMPI PUSH2 0x16E4 PUSH2 0x11C4 JUMP JUMPDEST JUMPDEST PUSH2 0x16F1 DUP10 DUP3 DUP11 ADD PUSH2 0x1627 JUMP JUMPDEST SWAP5 POP POP PUSH1 0x60 PUSH2 0x1702 DUP10 DUP3 DUP11 ADD PUSH2 0x11E7 JUMP JUMPDEST SWAP4 POP POP PUSH1 0x80 PUSH2 0x1713 DUP10 DUP3 DUP11 ADD PUSH2 0x11E7 JUMP JUMPDEST SWAP3 POP POP PUSH1 0xA0 DUP8 ADD CALLDATALOAD PUSH8 0xFFFFFFFFFFFFFFFF DUP2 GT ISZERO PUSH2 0x1734 JUMPI PUSH2 0x1733 PUSH2 0x11C4 JUMP JUMPDEST JUMPDEST PUSH2 0x1740 DUP10 DUP3 DUP11 ADD PUSH2 0x1627 JUMP JUMPDEST SWAP2 POP POP SWAP3 SWAP6 POP SWAP3 SWAP6 POP SWAP3 SWAP6 JUMP JUMPDEST PUSH0 DUP1 PUSH0 PUSH1 0x60 DUP5 DUP7 SUB SLT ISZERO PUSH2 0x1764 JUMPI PUSH2 0x1763 PUSH2 0x11C0 JUMP JUMPDEST JUMPDEST PUSH0 DUP5 ADD CALLDATALOAD PUSH8 0xFFFFFFFFFFFFFFFF DUP2 GT ISZERO PUSH2 0x1781 JUMPI PUSH2 0x1780 PUSH2 0x11C4 JUMP JUMPDEST JUMPDEST PUSH2 0x178D DUP7 DUP3 DUP8 ADD PUSH2 0x1627 JUMP JUMPDEST SWAP4 POP POP PUSH1 0x20 DUP5 ADD CALLDATALOAD PUSH8 0xFFFFFFFFFFFFFFFF DUP2 GT ISZERO PUSH2 0x17AE JUMPI PUSH2 0x17AD PUSH2 0x11C4 JUMP JUMPDEST JUMPDEST PUSH2 0x17BA DUP7 DUP3 DUP8 ADD PUSH2 0x1627 JUMP JUMPDEST SWAP3 POP POP PUSH1 0x40 DUP5 ADD CALLDATALOAD PUSH8 0xFFFFFFFFFFFFFFFF DUP2 GT ISZERO PUSH2 0x17DB JUMPI PUSH2 0x17DA PUSH2 0x11C4 JUMP JUMPDEST JUMPDEST PUSH2 0x17E7 DUP7 DUP3 DUP8 ADD PUSH2 0x1627 JUMP JUMPDEST SWAP2 POP POP SWAP3 POP SWAP3 POP SWAP3 JUMP JUMPDEST PUSH0 PUSH20 0xFFFFFFFFFFFFFFFFFFFFFFFFFFFFFFFFFFFFFFFF DUP3 AND SWAP1 POP SWAP2 SWAP1 POP JUMP JUMPDEST PUSH0 PUSH2 0x181A DUP3 PUSH2 0x17F1 JUMP JUMPDEST SWAP1 POP SWAP2 SWAP1 POP JUMP JUMPDEST PUSH2 0x182A DUP2 PUSH2 0x1810 JUMP JUMPDEST DUP2 EQ PUSH2 0x1834 JUMPI PUSH0 DUP1 REVERT JUMPDEST POP JUMP JUMPDEST PUSH0 DUP2 CALLDATALOAD SWAP1 POP PUSH2 0x1845 DUP2 PUSH2 0x1821 JUMP JUMPDEST SWAP3 SWAP2 POP POP JUMP JUMPDEST PUSH0 PUSH1 0x20 DUP3 DUP5 SUB SLT ISZERO PUSH2 0x1860 JUMPI PUSH2 0x185F PUSH2 0x11C0 JUMP JUMPDEST JUMPDEST PUSH0 PUSH2 0x186D DUP5 DUP3 DUP6 ADD PUSH2 0x1837 JUMP JUMPDEST SWAP2 POP POP SWAP3 SWAP2 POP POP JUMP JUMPDEST PUSH0 PUSH1 0x20 DUP3 DUP5 SUB SLT ISZERO PUSH2 0x188B JUMPI PUSH2 0x188A PUSH2 0x11C0 JUMP JUMPDEST JUMPDEST PUSH0 DUP3 ADD CALLDATALOAD PUSH8 0xFFFFFFFFFFFFFFFF DUP2 GT ISZERO PUSH2 0x18A8 JUMPI PUSH2 0x18A7 PUSH2 0x11C4 JUMP JUMPDEST JUMPDEST PUSH2 0x18B4 DUP5 DUP3 DUP6 ADD PUSH2 0x1627 JUMP JUMPDEST SWAP2 POP POP SWAP3 SWAP2 POP POP JUMP JUMPDEST PUSH0 PUSH1 0xE0 DUP4 ADD PUSH0 DUP4 ADD MLOAD DUP5 DUP3 SUB PUSH0 DUP7 ADD MSTORE PUSH2 0x18D7 DUP3 DUP3 PUSH2 0x1381 JUMP JUMPDEST SWAP2 POP POP PUSH1 0x20 DUP4 ADD MLOAD DUP5 DUP3 SUB PUSH1 0x20 DUP7 ADD MSTORE PUSH2 0x18F1 DUP3 DUP3 PUSH2 0x1381 JUMP JUMPDEST SWAP2 POP POP PUSH1 0x40 DUP4 ADD MLOAD DUP5 DUP3 SUB PUSH1 0x40 DUP7 ADD MSTORE PUSH2 0x190B DUP3 DUP3 PUSH2 0x1381 JUMP JUMPDEST SWAP2 POP POP PUSH1 0x60 DUP4 ADD MLOAD PUSH2 0x1920 PUSH1 0x60 DUP7 ADD DUP3 PUSH2 0x13B9 JUMP JUMPDEST POP PUSH1 0x80 DUP4 ADD MLOAD PUSH2 0x1933 PUSH1 0x80 DUP7 ADD DUP3 PUSH2 0x13B9 JUMP JUMPDEST POP PUSH1 0xA0 DUP4 ADD MLOAD DUP5 DUP3 SUB PUSH1 0xA0 DUP7 ADD MSTORE PUSH2 0x194B DUP3 DUP3 PUSH2 0x1381 JUMP JUMPDEST SWAP2 POP POP PUSH1 0xC0 DUP4 ADD MLOAD PUSH2 0x1960 PUSH1 0xC0 DUP7 ADD DUP3 PUSH2 0x13B9 JUMP JUMPDEST POP DUP1 SWAP2 POP POP SWAP3 SWAP2 POP POP JUMP JUMPDEST PUSH0 PUSH1 0x20 DUP3 ADD SWAP1 POP DUP2 DUP2 SUB PUSH0 DUP4 ADD MSTORE PUSH2 0x1983 DUP2 DUP5 PUSH2 0x18BD JUMP JUMPDEST SWAP1 POP SWAP3 SWAP2 POP POP JUMP JUMPDEST PUSH32 0x4E487B7100000000000000000000000000000000000000000000000000000000 PUSH0 MSTORE PUSH1 0x22 PUSH1 0x4 MSTORE PUSH1 0x24 PUSH0 REVERT JUMPDEST PUSH0 PUSH1 0x2 DUP3 DIV SWAP1 POP PUSH1 0x1 DUP3 AND DUP1 PUSH2 0x19CF JUMPI PUSH1 0x7F DUP3 AND SWAP2 POP JUMPDEST PUSH1 0x20 DUP3 LT DUP2 SUB PUSH2 0x19E2 JUMPI PUSH2 0x19E1 PUSH2 0x198B JUMP JUMPDEST JUMPDEST POP SWAP2 SWAP1 POP JUMP JUMPDEST PUSH32 0x4F6E6C792061646D696E2063616E2063616C6C20746869732066756E6374696F PUSH0 DUP3 ADD MSTORE PUSH32 0x6E00000000000000000000000000000000000000000000000000000000000000 PUSH1 0x20 DUP3 ADD MSTORE POP JUMP JUMPDEST PUSH0 PUSH2 0x1A42 PUSH1 0x21 DUP4 PUSH2 0x1230 JUMP JUMPDEST SWAP2 POP PUSH2 0x1A4D DUP3 PUSH2 0x19E8 JUMP JUMPDEST PUSH1 0x40 DUP3 ADD SWAP1 POP SWAP2 SWAP1 POP JUMP JUMPDEST PUSH0 PUSH1 0x20 DUP3 ADD SWAP1 POP DUP2 DUP2 SUB PUSH0 DUP4 ADD MSTORE PUSH2 0x1A6F DUP2 PUSH2 0x1A36 JUMP JUMPDEST SWAP1 POP SWAP2 SWAP1 POP JUMP JUMPDEST PUSH0 PUSH1 0x20 DUP3 ADD SWAP1 POP PUSH2 0x1A89 PUSH0 DUP4 ADD DUP5 PUSH2 0x12B0 JUMP JUMPDEST SWAP3 SWAP2 POP POP JUMP JUMPDEST PUSH0 DUP1 REVERT JUMPDEST PUSH0 DUP1 REVERT JUMPDEST PUSH0 DUP2 MLOAD SWAP1 POP PUSH2 0x1AA5 DUP2 PUSH2 0x11D1 JUMP JUMPDEST SWAP3 SWAP2 POP POP JUMP JUMPDEST PUSH0 PUSH2 0x1ABD PUSH2 0x1AB8 DUP5 PUSH2 0x15A8 JUMP JUMPDEST PUSH2 0x158E JUMP JUMPDEST SWAP1 POP DUP3 DUP2 MSTORE PUSH1 0x20 DUP2 ADD DUP5 DUP5 DUP5 ADD GT ISZERO PUSH2 0x1AD9 JUMPI PUSH2 0x1AD8 PUSH2 0x152C JUMP JUMPDEST JUMPDEST PUSH2 0x1AE4 DUP5 DUP3 DUP6 PUSH2 0x1240 JUMP JUMPDEST POP SWAP4 SWAP3 POP POP POP JUMP JUMPDEST PUSH0 DUP3 PUSH1 0x1F DUP4 ADD SLT PUSH2 0x1B00 JUMPI PUSH2 0x1AFF PUSH2 0x1528 JUMP JUMPDEST JUMPDEST DUP2 MLOAD PUSH2 0x1B10 DUP5 DUP3 PUSH1 0x20 DUP7 ADD PUSH2 0x1AAB JUMP JUMPDEST SWAP2 POP POP SWAP3 SWAP2 POP POP JUMP JUMPDEST PUSH0 DUP2 ISZERO ISZERO SWAP1 POP SWAP2 SWAP1 POP JUMP JUMPDEST PUSH2 0x1B2D DUP2 PUSH2 0x1B19 JUMP JUMPDEST DUP2 EQ PUSH2 0x1B37 JUMPI PUSH0 DUP1 REVERT JUMPDEST POP JUMP JUMPDEST PUSH0 DUP2 MLOAD SWAP1 POP PUSH2 0x1B48 DUP2 PUSH2 0x1B24 JUMP JUMPDEST SWAP3 SWAP2 POP POP JUMP JUMPDEST PUSH0 PUSH2 0x1B58 DUP3 PUSH2 0x17F1 JUMP JUMPDEST SWAP1 POP SWAP2 SWAP1 POP JUMP JUMPDEST PUSH2 0x1B68 DUP2 PUSH2 0x1B4E JUMP JUMPDEST DUP2 EQ PUSH2 0x1B72 JUMPI PUSH0 DUP1 REVERT JUMPDEST POP JUMP JUMPDEST PUSH0 DUP2 MLOAD SWAP1 POP PUSH2 0x1B83 DUP2 PUSH2 0x1B5F JUMP JUMPDEST SWAP3 SWAP2 POP POP JUMP JUMPDEST PUSH0 PUSH1 0xE0 DUP3 DUP5 SUB SLT ISZERO PUSH2 0x1B9E JUMPI PUSH2 0x1B9D PUSH2 0x1A8F JUMP JUMPDEST JUMPDEST PUSH2 0x1BA8 PUSH1 0xE0 PUSH2 0x158E JUMP JUMPDEST SWAP1 POP PUSH0 PUSH2 0x1BB7 DUP5 DUP3 DUP6 ADD PUSH2 0x1A97 JUMP JUMPDEST PUSH0 DUP4 ADD MSTORE POP PUSH1 0x20 DUP3 ADD MLOAD PUSH8 0xFFFFFFFFFFFFFFFF DUP2 GT ISZERO PUSH2 0x1BDA JUMPI PUSH2 0x1BD9 PUSH2 0x1A93 JUMP JUMPDEST JUMPDEST PUSH2 0x1BE6 DUP5 DUP3 DUP6 ADD PUSH2 0x1AEC JUMP JUMPDEST PUSH1 0x20 DUP4 ADD MSTORE POP PUSH1 0x40 DUP3 ADD MLOAD PUSH8 0xFFFFFFFFFFFFFFFF DUP2 GT ISZERO PUSH2 0x1C0A JUMPI PUSH2 0x1C09 PUSH2 0x1A93 JUMP JUMPDEST JUMPDEST PUSH2 0x1C16 DUP5 DUP3 DUP6 ADD PUSH2 0x1AEC JUMP JUMPDEST PUSH1 0x40 DUP4 ADD MSTORE POP PUSH1 0x60 PUSH2 0x1C2A DUP5 DUP3 DUP6 ADD PUSH2 0x1B3A JUMP JUMPDEST PUSH1 0x60 DUP4 ADD MSTORE POP PUSH1 0x80 PUSH2 0x1C3E DUP5 DUP3 DUP6 ADD PUSH2 0x1A97 JUMP JUMPDEST PUSH1 0x80 DUP4 ADD MSTORE POP PUSH1 0xA0 DUP3 ADD MLOAD PUSH8 0xFFFFFFFFFFFFFFFF DUP2 GT ISZERO PUSH2 0x1C62 JUMPI PUSH2 0x1C61 PUSH2 0x1A93 JUMP JUMPDEST JUMPDEST PUSH2 0x1C6E DUP5 DUP3 DUP6 ADD PUSH2 0x1AEC JUMP JUMPDEST PUSH1 0xA0 DUP4 ADD MSTORE POP PUSH1 0xC0 PUSH2 0x1C82 DUP5 DUP3 DUP6 ADD PUSH2 0x1B75 JUMP JUMPDEST PUSH1 0xC0 DUP4 ADD MSTORE POP SWAP3 SWAP2 POP POP JUMP JUMPDEST PUSH0 PUSH1 0x20 DUP3 DUP5 SUB SLT ISZERO PUSH2 0x1CA3 JUMPI PUSH2 0x1CA2 PUSH2 0x11C0 JUMP JUMPDEST JUMPDEST PUSH0 DUP3 ADD MLOAD PUSH8 0xFFFFFFFFFFFFFFFF DUP2 GT ISZERO PUSH2 0x1CC0 JUMPI PUSH2 0x1CBF PUSH2 0x11C4 JUMP JUMPDEST JUMPDEST PUSH2 0x1CCC DUP5 DUP3 DUP6 ADD PUSH2 0x1B89 JUMP JUMPDEST SWAP2 POP POP SWAP3 SWAP2 POP POP JUMP JUMPDEST PUSH32 0x5265717565737420686173206265656E206E6F7420617070726F766564000000 PUSH0 DUP3 ADD MSTORE POP JUMP JUMPDEST PUSH0 PUSH2 0x1D09 PUSH1 0x1D DUP4 PUSH2 0x1230 JUMP JUMPDEST SWAP2 POP PUSH2 0x1D14 DUP3 PUSH2 0x1CD5 JUMP JUMPDEST PUSH1 0x20 DUP3 ADD SWAP1 POP SWAP2 SWAP1 POP JUMP JUMPDEST PUSH0 PUSH1 0x20 DUP3 ADD SWAP1 POP DUP2 DUP2 SUB PUSH0 DUP4 ADD MSTORE PUSH2 0x1D36 DUP2 PUSH2 0x1CFD JUMP JUMPDEST SWAP1 POP SWAP2 SWAP1 POP JUMP JUMPDEST PUSH32 0x496E73756666696369656E742062616C616E636520696E2074686520636F6E74 PUSH0 DUP3 ADD MSTORE PUSH32 0x7261637400000000000000000000000000000000000000000000000000000000 PUSH1 0x20 DUP3 ADD MSTORE POP JUMP JUMPDEST PUSH0 PUSH2 0x1D97 PUSH1 0x24 DUP4 PUSH2 0x1230 JUMP JUMPDEST SWAP2 POP PUSH2 0x1DA2 DUP3 PUSH2 0x1D3D JUMP JUMPDEST PUSH1 0x40 DUP3 ADD SWAP1 POP SWAP2 SWAP1 POP JUMP JUMPDEST PUSH0 PUSH1 0x20 DUP3 ADD SWAP1 POP DUP2 DUP2 SUB PUSH0 DUP4 ADD MSTORE PUSH2 0x1DC4 DUP2 PUSH2 0x1D8B JUMP JUMPDEST SWAP1 POP SWAP2 SWAP1 POP JUMP JUMPDEST PUSH0 DUP2 SWAP1 POP DUP2 PUSH0 MSTORE PUSH1 0x20 PUSH0 KECCAK256 SWAP1 POP SWAP2 SWAP1 POP JUMP JUMPDEST PUSH0 PUSH1 0x20 PUSH1 0x1F DUP4 ADD DIV SWAP1 POP SWAP2 SWAP1 POP JUMP JUMPDEST PUSH0 DUP3 DUP3 SHL SWAP1 POP SWAP3 SWAP2 POP POP JUMP JUMPDEST PUSH0 PUSH1 0x8 DUP4 MUL PUSH2 0x1E27 PUSH32 0xFFFFFFFFFFFFFFFFFFFFFFFFFFFFFFFFFFFFFFFFFFFFFFFFFFFFFFFFFFFFFFFF DUP3 PUSH2 0x1DEC JUMP JUMPDEST PUSH2 0x1E31 DUP7 DUP4 PUSH2 0x1DEC JUMP JUMPDEST SWAP6 POP DUP1 NOT DUP5 AND SWAP4 POP DUP1 DUP7 AND DUP5 OR SWAP3 POP POP POP SWAP4 SWAP3 POP POP POP JUMP JUMPDEST PUSH0 DUP2 SWAP1 POP SWAP2 SWAP1 POP JUMP JUMPDEST PUSH0 PUSH2 0x1E6C PUSH2 0x1E67 PUSH2 0x1E62 DUP5 PUSH2 0x11C8 JUMP JUMPDEST PUSH2 0x1E49 JUMP JUMPDEST PUSH2 0x11C8 JUMP JUMPDEST SWAP1 POP SWAP2 SWAP1 POP JUMP JUMPDEST PUSH0 DUP2 SWAP1 POP SWAP2 SWAP1 POP JUMP JUMPDEST PUSH2 0x1E85 DUP4 PUSH2 0x1E52 JUMP JUMPDEST PUSH2 0x1E99 PUSH2 0x1E91 DUP3 PUSH2 0x1E73 JUMP JUMPDEST DUP5 DUP5 SLOAD PUSH2 0x1DF8 JUMP JUMPDEST DUP3 SSTORE POP POP POP POP JUMP JUMPDEST PUSH0 SWAP1 JUMP JUMPDEST PUSH2 0x1EAD PUSH2 0x1EA1 JUMP JUMPDEST PUSH2 0x1EB8 DUP2 DUP5 DUP5 PUSH2 0x1E7C JUMP JUMPDEST POP POP POP JUMP JUMPDEST JUMPDEST DUP2 DUP2 LT ISZERO PUSH2 0x1EDB JUMPI PUSH2 0x1ED0 PUSH0 DUP3 PUSH2 0x1EA5 JUMP JUMPDEST PUSH1 0x1 DUP2 ADD SWAP1 POP PUSH2 0x1EBE JUMP JUMPDEST POP POP JUMP JUMPDEST PUSH1 0x1F DUP3 GT ISZERO PUSH2 0x1F20 JUMPI PUSH2 0x1EF1 DUP2 PUSH2 0x1DCB JUMP JUMPDEST PUSH2 0x1EFA DUP5 PUSH2 0x1DDD JUMP JUMPDEST DUP2 ADD PUSH1 0x20 DUP6 LT ISZERO PUSH2 0x1F09 JUMPI DUP2 SWAP1 POP JUMPDEST PUSH2 0x1F1D PUSH2 0x1F15 DUP6 PUSH2 0x1DDD JUMP JUMPDEST DUP4 ADD DUP3 PUSH2 0x1EBD JUMP JUMPDEST POP POP JUMPDEST POP POP POP JUMP JUMPDEST PUSH0 DUP3 DUP3 SHR SWAP1 POP SWAP3 SWAP2 POP POP JUMP JUMPDEST PUSH0 PUSH2 0x1F40 PUSH0 NOT DUP5 PUSH1 0x8 MUL PUSH2 0x1F25 JUMP JUMPDEST NOT DUP1 DUP4 AND SWAP2 POP POP SWAP3 SWAP2 POP POP JUMP JUMPDEST PUSH0 PUSH2 0x1F58 DUP4 DUP4 PUSH2 0x1F31 JUMP JUMPDEST SWAP2 POP DUP3 PUSH1 0x2 MUL DUP3 OR SWAP1 POP SWAP3 SWAP2 POP POP JUMP JUMPDEST PUSH2 0x1F71 DUP3 PUSH2 0x1226 JUMP JUMPDEST PUSH8 0xFFFFFFFFFFFFFFFF DUP2 GT ISZERO PUSH2 0x1F8A JUMPI PUSH2 0x1F89 PUSH2 0x1530 JUMP JUMPDEST JUMPDEST PUSH2 0x1F94 DUP3 SLOAD PUSH2 0x19B8 JUMP JUMPDEST PUSH2 0x1F9F DUP3 DUP3 DUP6 PUSH2 0x1EDF JUMP JUMPDEST PUSH0 PUSH1 0x20 SWAP1 POP PUSH1 0x1F DUP4 GT PUSH1 0x1 DUP2 EQ PUSH2 0x1FD0 JUMPI PUSH0 DUP5 ISZERO PUSH2 0x1FBE JUMPI DUP3 DUP8 ADD MLOAD SWAP1 POP JUMPDEST PUSH2 0x1FC8 DUP6 DUP3 PUSH2 0x1F4D JUMP JUMPDEST DUP7 SSTORE POP PUSH2 0x202F JUMP JUMPDEST PUSH1 0x1F NOT DUP5 AND PUSH2 0x1FDE DUP7 PUSH2 0x1DCB JUMP JUMPDEST PUSH0 JUMPDEST DUP3 DUP2 LT ISZERO PUSH2 0x2005 JUMPI DUP5 DUP10 ADD MLOAD DUP3 SSTORE PUSH1 0x1 DUP3 ADD SWAP2 POP PUSH1 0x20 DUP6 ADD SWAP5 POP PUSH1 0x20 DUP2 ADD SWAP1 POP PUSH2 0x1FE0 JUMP JUMPDEST DUP7 DUP4 LT ISZERO PUSH2 0x2022 JUMPI DUP5 DUP10 ADD MLOAD PUSH2 0x201E PUSH1 0x1F DUP10 AND DUP3 PUSH2 0x1F31 JUMP JUMPDEST DUP4 SSTORE POP JUMPDEST PUSH1 0x1 PUSH1 0x2 DUP9 MUL ADD DUP9 SSTORE POP POP POP JUMPDEST POP POP POP POP POP POP JUMP JUMPDEST PUSH32 0x56616C7565206D75737420626520302E3030303220455448206F722061626F76 PUSH0 DUP3 ADD MSTORE PUSH32 0x6500000000000000000000000000000000000000000000000000000000000000 PUSH1 0x20 DUP3 ADD MSTORE POP JUMP JUMPDEST PUSH0 PUSH2 0x2091 PUSH1 0x21 DUP4 PUSH2 0x1230 JUMP JUMPDEST SWAP2 POP PUSH2 0x209C DUP3 PUSH2 0x2037 JUMP JUMPDEST PUSH1 0x40 DUP3 ADD SWAP1 POP SWAP2 SWAP1 POP JUMP JUMPDEST PUSH0 PUSH1 0x20 DUP3 ADD SWAP1 POP DUP2 DUP2 SUB PUSH0 DUP4 ADD MSTORE PUSH2 0x20BE DUP2 PUSH2 0x2085 JUMP JUMPDEST SWAP1 POP SWAP2 SWAP1 POP JUMP JUMPDEST PUSH0 DUP2 SWAP1 POP SWAP3 SWAP2 POP POP JUMP JUMPDEST PUSH0 PUSH2 0x20D9 DUP3 PUSH2 0x1226 JUMP JUMPDEST PUSH2 0x20E3 DUP2 DUP6 PUSH2 0x20C5 JUMP JUMPDEST SWAP4 POP PUSH2 0x20F3 DUP2 DUP6 PUSH1 0x20 DUP7 ADD PUSH2 0x1240 JUMP JUMPDEST DUP1 DUP5 ADD SWAP2 POP POP SWAP3 SWAP2 POP POP JUMP JUMPDEST PUSH0 PUSH2 0x210A DUP3 DUP5 PUSH2 0x20CF JUMP JUMPDEST SWAP2 POP DUP2 SWAP1 POP SWAP3 SWAP2 POP POP JUMP JUMPDEST PUSH32 0x4E487B7100000000000000000000000000000000000000000000000000000000 PUSH0 MSTORE PUSH1 0x32 PUSH1 0x4 MSTORE PUSH1 0x24 PUSH0 REVERT JUMPDEST PUSH0 DUP2 SLOAD PUSH2 0x214E DUP2 PUSH2 0x19B8 JUMP JUMPDEST PUSH2 0x2158 DUP2 DUP7 PUSH2 0x20C5 JUMP JUMPDEST SWAP5 POP PUSH1 0x1 DUP3 AND PUSH0 DUP2 EQ PUSH2 0x2172 JUMPI PUSH1 0x1 DUP2 EQ PUSH2 0x2187 JUMPI PUSH2 0x21B9 JUMP JUMPDEST PUSH1 0xFF NOT DUP4 AND DUP7 MSTORE DUP2 ISZERO ISZERO DUP3 MUL DUP7 ADD SWAP4 POP PUSH2 0x21B9 JUMP JUMPDEST PUSH2 0x2190 DUP6 PUSH2 0x1DCB JUMP JUMPDEST PUSH0 JUMPDEST DUP4 DUP2 LT ISZERO PUSH2 0x21B1 JUMPI DUP2 SLOAD DUP2 DUP10 ADD MSTORE PUSH1 0x1 DUP3 ADD SWAP2 POP PUSH1 0x20 DUP2 ADD SWAP1 POP PUSH2 0x2192 JUMP JUMPDEST DUP4 DUP9 ADD SWAP6 POP POP POP JUMPDEST POP POP POP SWAP3 SWAP2 POP POP JUMP JUMPDEST PUSH0 PUSH2 0x21CD DUP3 DUP5 PUSH2 0x2142 JUMP JUMPDEST SWAP2 POP DUP2 SWAP1 POP SWAP3 SWAP2 POP POP JUMP JUMPDEST PUSH32 0x4E487B7100000000000000000000000000000000000000000000000000000000 PUSH0 MSTORE PUSH1 0x11 PUSH1 0x4 MSTORE PUSH1 0x24 PUSH0 REVERT JUMPDEST PUSH0 PUSH2 0x220F DUP3 PUSH2 0x11C8 JUMP JUMPDEST SWAP2 POP PUSH2 0x221A DUP4 PUSH2 0x11C8 JUMP JUMPDEST SWAP3 POP DUP3 DUP3 ADD SWAP1 POP DUP1 DUP3 GT ISZERO PUSH2 0x2232 JUMPI PUSH2 0x2231 PUSH2 0x21D8 JUMP JUMPDEST JUMPDEST SWAP3 SWAP2 POP POP JUMP JUMPDEST PUSH2 0x2241 DUP2 PUSH2 0x1810 JUMP JUMPDEST DUP3 MSTORE POP POP JUMP JUMPDEST PUSH0 PUSH1 0xA0 DUP3 ADD SWAP1 POP DUP2 DUP2 SUB PUSH0 DUP4 ADD MSTORE PUSH2 0x225F DUP2 DUP9 PUSH2 0x1278 JUMP JUMPDEST SWAP1 POP DUP2 DUP2 SUB PUSH1 0x20 DUP4 ADD MSTORE PUSH2 0x2273 DUP2 DUP8 PUSH2 0x1278 JUMP JUMPDEST SWAP1 POP PUSH2 0x2282 PUSH1 0x40 DUP4 ADD DUP7 PUSH2 0x2238 JUMP JUMPDEST PUSH2 0x228F PUSH1 0x60 DUP4 ADD DUP6 PUSH2 0x12B0 JUMP JUMPDEST DUP2 DUP2 SUB PUSH1 0x80 DUP4 ADD MSTORE PUSH2 0x22A1 DUP2 DUP5 PUSH2 0x1278 JUMP JUMPDEST SWAP1 POP SWAP7 SWAP6 POP POP POP POP POP POP JUMP JUMPDEST PUSH32 0x4E6F7420666F756E640000000000000000000000000000000000000000000000 PUSH0 DUP3 ADD MSTORE POP JUMP JUMPDEST PUSH0 PUSH2 0x22E1 PUSH1 0x9 DUP4 PUSH2 0x1230 JUMP JUMPDEST SWAP2 POP PUSH2 0x22EC DUP3 PUSH2 0x22AD JUMP JUMPDEST PUSH1 0x20 DUP3 ADD SWAP1 POP SWAP2 SWAP1 POP JUMP JUMPDEST PUSH0 PUSH1 0x20 DUP3 ADD SWAP1 POP DUP2 DUP2 SUB PUSH0 DUP4 ADD MSTORE PUSH2 0x230E DUP2 PUSH2 0x22D5 JUMP JUMPDEST SWAP1 POP SWAP2 SWAP1 POP JUMP INVALID LOG2 PUSH5 0x6970667358 0x22 SLT KECCAK256 0xAC 0xBA MULMOD DUP13 PC 0xC5 PUSH16 0xD4A273215AF2DAAB76167F057AE0AA74 0xD4 0x1F 0xD9 SELFBALANCE 0x23 SWAP15 SWAP1 CREATE 0xBD PUSH5 0x736F6C6343 STOP ADDMOD AND STOP CALLER "
    },
    "gasEstimates": {
      "creation": {
        "codeDepositCost": "1807000",
        "executionCost": "26169",
        "totalCost": "1833169"
      },
      "external": {
        "addNewCampaign(string,string,string,uint256,uint256,string)": "infinite",
        "campaignInfoArray(uint256)": "infinite",
        "donate(string,string,string)": "infinite",
        "getAllCampaign()": "infinite",
        "getCampaignById(string)": "infinite",
        "setTransactionHistoryAddress(address)": "26925",
        "setWithdrawRequestAddress(address)": "26903",
        "withdraw(uint256)": "infinite"
      }
    },
    "methodIdentifiers": {
      "addNewCampaign(string,string,string,uint256,uint256,string)": "5e5503aa",
      "campaignInfoArray(uint256)": "057902be",
      "donate(string,string,string)": "8bf20649",
      "getAllCampaign()": "4ca079f2",
      "getCampaignById(string)": "e26034cd",
      "setTransactionHistoryAddress(address)": "af393b1e",
      "setWithdrawRequestAddress(address)": "9aeeb856",
      "withdraw(uint256)": "2e1a7d4d"
    }
  },
  "abi": [
    {
      "inputs": [
        {
          "internalType": "string",
          "name": "id",
          "type": "string"
        },
        {
          "internalType": "string",
          "name": "creatorUserName",
          "type": "string"
        },
        {
          "internalType": "string",
          "name": "title",
          "type": "string"
        },
        {
          "internalType": "uint256",
          "name": "currentValue",
          "type": "uint256"
        },
        {
          "internalType": "uint256",
          "name": "targetValue",
          "type": "uint256"
        },
        {
          "internalType": "string",
          "name": "endDate",
          "type": "string"
        }
      ],
      "name": "addNewCampaign",
      "outputs": [],
      "stateMutability": "nonpayable",
      "type": "function"
    },
    {
      "inputs": [
        {
          "internalType": "uint256",
          "name": "",
          "type": "uint256"
        }
      ],
      "name": "campaignInfoArray",
      "outputs": [
        {
          "internalType": "string",
          "name": "id",
          "type": "string"
        },
        {
          "internalType": "string",
          "name": "creatorUserName",
          "type": "string"
        },
        {
          "internalType": "string",
          "name": "title",
          "type": "string"
        },
        {
          "internalType": "uint256",
          "name": "currentValue",
          "type": "uint256"
        },
        {
          "internalType": "uint256",
          "name": "targetValue",
          "type": "uint256"
        },
        {
          "internalType": "string",
          "name": "endDate",
          "type": "string"
        },
        {
          "internalType": "uint256",
          "name": "donateCount",
          "type": "uint256"
        }
      ],
      "stateMutability": "view",
      "type": "function"
    },
    {
      "inputs": [
        {
          "internalType": "string",
          "name": "campaignId",
          "type": "string"
        },
        {
          "internalType": "string",
          "name": "donatorId",
          "type": "string"
        },
        {
          "internalType": "string",
          "name": "time",
          "type": "string"
        }
      ],
      "name": "donate",
      "outputs": [],
      "stateMutability": "payable",
      "type": "function"
    },
    {
      "inputs": [],
      "name": "getAllCampaign",
      "outputs": [
        {
          "components": [
            {
              "internalType": "string",
              "name": "id",
              "type": "string"
            },
            {
              "internalType": "string",
              "name": "creatorUserName",
              "type": "string"
            },
            {
              "internalType": "string",
              "name": "title",
              "type": "string"
            },
            {
              "internalType": "uint256",
              "name": "currentValue",
              "type": "uint256"
            },
            {
              "internalType": "uint256",
              "name": "targetValue",
              "type": "uint256"
            },
            {
              "internalType": "string",
              "name": "endDate",
              "type": "string"
            },
            {
              "internalType": "uint256",
              "name": "donateCount",
              "type": "uint256"
            }
          ],
          "internalType": "struct Campaign.CampaignInfo[]",
          "name": "",
          "type": "tuple[]"
        }
      ],
      "stateMutability": "view",
      "type": "function"
    },
    {
      "inputs": [
        {
          "internalType": "string",
          "name": "id",
          "type": "string"
        }
      ],
      "name": "getCampaignById",
      "outputs": [
        {
          "components": [
            {
              "internalType": "string",
              "name": "id",
              "type": "string"
            },
            {
              "internalType": "string",
              "name": "creatorUserName",
              "type": "string"
            },
            {
              "internalType": "string",
              "name": "title",
              "type": "string"
            },
            {
              "internalType": "uint256",
              "name": "currentValue",
              "type": "uint256"
            },
            {
              "internalType": "uint256",
              "name": "targetValue",
              "type": "uint256"
            },
            {
              "internalType": "string",
              "name": "endDate",
              "type": "string"
            },
            {
              "internalType": "uint256",
              "name": "donateCount",
              "type": "uint256"
            }
          ],
          "internalType": "struct Campaign.CampaignInfo",
          "name": "",
          "type": "tuple"
        }
      ],
      "stateMutability": "view",
      "type": "function"
    },
    {
      "inputs": [
        {
          "internalType": "address",
          "name": "_transactionHistoryAddress",
          "type": "address"
        }
      ],
      "name": "setTransactionHistoryAddress",
      "outputs": [],
      "stateMutability": "nonpayable",
      "type": "function"
    },
    {
      "inputs": [
        {
          "internalType": "address",
          "name": "_withdrawRequestAddress",
          "type": "address"
        }
      ],
      "name": "setWithdrawRequestAddress",
      "outputs": [],
      "stateMutability": "nonpayable",
      "type": "function"
    },
    {
      "inputs": [
        {
          "internalType": "uint256",
          "name": "_withdrawRequestId",
          "type": "uint256"
        }
      ],
      "name": "withdraw",
      "outputs": [],
      "stateMutability": "nonpayable",
      "type": "function"
    }
  ]
}